:020000040800F2
:1000000048260020D500000881180008291600089D
:1000100000000000000000000000000000000000E0
:10002000000000000000000000000000051A0008A9
:100030000000000000000000C9180008951C00081E
:10004000E7000008E7000008E7000008E7000008F4
:10005000E7000008E7000008E7000008E7000008E4
:10006000E7000008E7000008E7000008E7000008D4
:10007000E7000008E7000008E7000008E7000008C4
:10008000E7000008E7000008E700000800000000A3
:10009000E7000008E7000008E7000008E7000008A4
:1000A000E7000008E7000008E7000008E700000894
:1000B000E7000008E7000008E7000008E700000884
:1000C0000348854600F086F80048004739260008B6
:1000D000482600200448804704480047FEE7FEE722
:1000E000FEE7FEE7FEE7FEE72D1D0008C100000861
:1000F00030B50B46014600202022012409E00D46C0
:10010000D5409D4205D31D469540491B2546954047
:1001100040191546521E002DF1DC30BDF0B51FB45C
:100120000646002082B005464024019100901BE065
:10013000019922460F46304600F03AF8049A059B92
:10014000801A994110D310461946224600F020F833
:10015000361A8F410197224601200021009F00F0AE
:1001600017F838184D4100902046641E0028DFDC47
:10017000019B00982946324607B0F0BD0321001DBF
:10018000401E037812021A43491EF9D510467047E3
:1001900010B5202A04DB0146203A9140002010BD12
:1001A000914020239C1A0346E3401943904010BD20
:1001B00010B5202A04DB0846203AD040002110BDAB
:1001C0000B46D340D0402024A21A91400843194640
:1001D00010BD0000064C0125064E05E0E36807CC83
:1001E0002B430C3C98471034B442F7D3FFF76CFF15
:1001F000E42600081427000803B40148019001BD5B
:10020000F1000020F7B5002416460546570809E01E
:100210000198A1000818FFF7B1FF1021C841296813
:100220000860641CA742F3D8F00704D00198A1002D
:10023000405A2968088028680068FEBDFEB505465A
:100240000024900816460F4601900EE0A000C01949
:100250000090FFF793FF00BA010A00980902C078E6
:100260000143286801600198641CA042EED8B007E1
:1002700021D0B007800F012803D1A1002A68795C42
:100280001170022808D1A000C1194878097800022D
:100290000843296840BA0880F04380070BD1A000CA
:1002A000C01941780278090211432A6849BA1180BD
:1002B00029688078087028680068FEBDF7B5FFB02F
:1002C0000446FFB00020012584B0AD021646AF08F9
:1002D00000901EE004CC8300CA50401C8742F9D82D
:1002E000FFA83A46006900F045F8002805D0032031
:1002F00000907FB07FB007B0F0BD01210520C90399
:10030000000700F0E9FAFFA800694119FFA8761B71
:100310000161002E02D0002001A9DFE70098E8E784
:100320007FB500260D460446009600F0F5F90196CB
:100330000294AC420AD2281BC0090390694601A866
:1003400000F086F9002801D00120009000F0BCF9EF
:10035000009804B070BD000010B500F0DDF904494C
:100360000248886100F0B0F910BD0000002F0300C2
:1003700000200240F8B517460C460646002500F05E
:10038000CBF9B800071915E021463046FFF734FFD6
:10039000002801D003250FE08100725861588A427D
:1003A00001D0022502E0401C1028F5D3403440362D
:1003B000002D01D1A742E7D800F086F92846F8BD04
:1003C00010B5084900224A6107494B684C15234380
:1003D0004B604B68082423434B60C009C001026096
:1003E00010BD0000300600200020024010B5214A58
:1003F00000219069C305204804D5416902231943AF
:100400004161911593699B0505D5436901242343F7
:1004100043616302194393695B0505D54369082469
:1004200023434361E301194393691B0505D54369E0
:100430000424234343616302194393699B0405D554
:1004400043691024234343616302194393699B0367
:1004500004D5446920231C43446119439369DB0399
:1004600005D54369402423434361A00201439161C0
:1004700010BD0000002002403006002070B5054687
:1004800000F034FA0646184C0AE0681C08D0002D2B
:1004900004D000F02BFA801BA84201D9032070BDC4
:1004A000A069C007F1D1A069800701D50220A06131
:1004B000A069C00511D4A06980050ED4A0694005CB
:1004C0000BD4A069000508D4A069800405D4A069F4
:1004D000800302D4A069C00303D5FFF787FF012082
:1004E00070BD002070BD00000020024030B51F2309
:1004F00001252C469C400C4201D15B1EF9D2002AFA
:100500000FD0082A09D0102A04D0182A09D1072BA5
:1005100005D206E0082B02D203E0102B01D3012004
:1005200030BD0368596101688868182398431043F7
:100530008860002030BDF8B504460020257F0346C2
:10054000012D0FD001252577022666772668B7682A
:100550002F43B760266A012E10D0022E12D0032E30
:1005600014D106E00220F8BD83002668CB58336022
:10057000401C9042F8D32068036807E02046FFF74C
:100580005DFE02E02046FFF73DFE03466577002052
:1005900020771846F8BD000010B5040012D0607F27
:1005A000002803D12077204600F034F8022060773D
:1005B0002079002808D02046E268A168FFF796FF5E
:1005C000002809D0012010BD216811484861206829
:1005D00081681822914381606079002814D02069D5
:1005E000216808612168886860229043626910432D
:1005F00088602168886880229043A26910438860DF
:1006000001206077002010BD0020C043E8E7000013
:10061000B71DC10408B500680549884207D10548DF
:10062000026B81140A430263006B0840009008BD0E
:10063000003002400010024031B500F057F9044686
:1006400000F054F90099001B8842F9D338BD00002E
:10065000F8B51A4E0546307C0F46012807D0012018
:1006600030741748FFF70AFF010002D021E0022092
:10067000F8BD0020C04338606C6814E02046FFF7E6
:100680009FFE0F48FFF7FAFE01460E484268082316
:100690009A434260426843159A434260002901D060
:1006A0003C6006E08034A8686A68C0018018A042F7
:1006B000E4D8002030740846F8BD00003006002061
:1006C00050C3000000200240034841680222114349
:1006D000416000207047000000200240F8B50C4C3B
:1006E0001646207C0F46012808D0012020740948B6
:1006F000FFF7C4FE0025002802D006E00220F8BD66
:1007000065613E600348FFF7B9FE2574F8BD00003F
:100710003006002050C300000948416889070CD505
:100720004168C90703D00749C1600749C16007494B
:1007300001610749016100207047012070470000F6
:1007400000200240EFCDAB8905040302BFAE9D8CB3
:1007500016151413F8B500230124A7E027469F407F
:100760003A4070D04D68022D01D0122D14D1DD0811
:10077000AD002D1800952D6A5E07AC46F50E0F26CC
:10078000AE46AE406546B543AC460E697546AE40D2
:1007900065462E43009D2E624D68012D05D0022D29
:1007A00003D0112D01D0122D16D185680326AC4639
:1007B0005D00AE46AE406546B543AC46CE68754674
:1007C000AE4065462E43866046680D79BE43ED0611
:1007D000ED0F9D403543456006685F000325BD4031
:1007E000AE46AE430D79B446AE07B60FBE40654681
:1007F0002E430660C6687546AE438D68BD403543DE
:10080000C5604D68ED0050D52B4D6E6B26436E6371
:100810009E082A4DB6007519AC46AD689E07360F86
:100820000F27B740BD4305273F07B84201D1002736
:100830001AE0234FB84201D1012715E0214FB842F9
:1008400002D1022710E030E01F4FB84201D1032748
:100850000AE01E4FB84201D1042705E01C4FB84200
:1008600001D1052700E00627B7402F436546AF605A
:10087000184D2E684F689643FF0300D516432E602F
:100880006E684F689643BF0300D516436E60AE682E
:100890004F689643FF0200D51643AE60EE684F687E
:1008A0009643BF0200D51643EE605B1C0A681546EE
:1008B000DD4000D052E7F8BD0010024000000140CA
:1008C0000004005000080050000C005000100050C0
:1008D000001C00500004014042694A4042617047D8
:1008E000002A01D081617047816270470148006829
:1008F000704700004C01002002480168491C01605B
:10090000704700004C01002010B506480168022223
:1009100011430160032000F007F800F019F80020EF
:1009200010BD00000020024010B5044607487D219C
:10093000C9000068FFF7DCFB00F01EFD0022214625
:10094000501E00F021F8002010BD000050010020D2
:1009500010B50C48416B012211434163816B0204C5
:100960001143816300221146501F00F00DF8002250
:100970001146901E00F008F800221146501E00F0AB
:1009800003F810BD0010024010B500F07BFF10BD51
:10099000F8B56649074601250020ED03624B634A1E
:1009A0004031102F6FD011DC012F77D0022F6CD087
:1009B000042F6BD0082F24D1C968032424032140BD
:1009C0007BD0BD026C10A9427CD0A0E00326584C1D
:1009D0003604202F0BD0402F35D0FF3F012F10D1F0
:1009E000C968314069D07C04A1426BD096E00B69A4
:1009F0000969012731403F04B94203D1990559E003
:100A00002846F8BD01256D04A94203D19907F8D500
:100A10004848F8BDB142FCD111688903F9D5116885
:100A200003200005014001200005091A09D0091A18
:100A300005D0814201D14048F8BD2046F8BD3F486D
:100A4000F8BD3F48F8BDC9680125AD06294006D06C
:100A5000A942F7D191688907F4D53A48F8BD1168E1
:100A60008901FBD5D068D1688002374D000F2D5C1D
:100A70000802810FD068491CC0030AD41068C00660
:100A800005D5204606E045E008E023E030E01846C2
:100A900000E02E486843FFF72BFBF8BDCC68A407A5
:100AA000A40F0CD0022C0DD0012C10D0032CF4D1AB
:100AB000096989050029A3DBF8BD16E002E000F012
:100AC000D7F9F9E711684907F6D51846F4E700F0B9
:100AD000DFF9F1E7CC680C26344006D0082CF1D0C1
:100AE000042CF4D00C2CE3D0E6E700F0B1F9E3E7F6
:100AF000CC680326B6023440F7D00127FF02BC427F
:100B0000E0D07A109442E2D0B442D1D0D4E7A142EE
:100B1000DDD0D1E7916B4902E7D4CDE70122120481
:100B20009142D4D0C8E700000024F4000010024035
:100B300000093D008890000020A1070040420F00FE
:100B400080841E00006CDC02D026000800127A00AF
:100B5000F8B5044600785E4D800672D55C4E0027DD
:100B6000403EB06BC00004D4B06BA9050843B0632D
:100B7000012758480168C90511D40168821511433D
:100B80000160FFF7B3FE009005E0FFF7AFFE0099AC
:100B9000401A642837D84F480068C005F5D5326838
:100BA0000321090560680A400140914208D0810391
:100BB000890F032904D13168890301D50120F8BDCB
:100BC0002A69032109040A4022D0084090421FD01C
:100BD000207880061CD528692A6988430121C90428
:100BE0000A432A612A698A432A612861C0050FD510
:100BF000FFF77CFE009008E0FFF778FE0099411AAD
:100C00003548814201D90320F8BD28698005F3D514
:100C100061688803800F032805D13268000582438C
:100C200001400A43326028690322616812041140BE
:100C300008432861002F04D0B06B012109078843C5
:100C4000B0632078C00705D0E868A16880088000FC
:100C50000843E8602078800705D5E8680C218843C0
:100C6000E1680843E8602078400706D5E86803217A
:100C70008902884321690843E8602078000706D587
:100C8000E86803210903884361690843E860208814
:100C9000C00506D5E868032109048843A169084313
:100CA000E8602078400606D5E86801218906884377
:100CB000216A0843E8602078000606D5E868032129
:100CC00089048843E1690843E8600020F8BD00001A
:100CD000401002400070004088130000F8B505463F
:100CE00053480E460068C007C00FB0420AD25048B1
:100CF000016849084900314301600068C007C00F1E
:100D0000B0426FD128784B4C800705D5E068F021C0
:100D10008843A9680843E0602878C00752D0686813
:100D2000022817D0032818D02168012818D0890577
:100D3000002957DAE168890889000143E160FFF77B
:100D4000D5FD69680746022912D003291CD0012964
:100D500026D033E021688903EAE721688901E7E7C3
:100D60004907E5E7FFF7C2FDC11B3348814223D89D
:100D7000E0680007800F0228F4D123E0FFF7B6FDFA
:100D8000C11B2D48814217D8E0680007800F032857
:100D9000F4D117E0FFF7AAFDC11B274881420BD809
:100DA000E0680007800F0128F4D10BE0FFF79EFDFB
:100DB000C11B2148814201D90320F8BDE06800072A
:100DC000800FF3D11A480168C907C90FB1420BD986
:100DD000016849084900314301600068C007C00F3D
:100DE000B04201D00120F8BD2878400706D5E06860
:100DF000072109028843E9680843E0602878000772
:100E000007D5E0680721C90288432969C90008435A
:100E1000E06000F03DF8E168084A0906090F515CFE
:100E2000C840074908600320FFF77EFD0020F8BD99
:100E3000002002400010024088130000C026000875
:100E40005001002001480068704700005001002058
:100E5000044805490068C968044A4905490F515CBE
:100E6000C84070475001002000100240D9260008F9
:100E7000044805490068C968044A8904490F515C5F
:100E8000C84070475001002000100240D9260008D9
:100E900010B5184AD1680C20084004280BD0082847
:100EA00010D00C2810D050680004410F0120C0035E
:100EB000491C884010BD1068C00601D50E4810BD01
:100EC0000E4810BD0E4810BD88020E4B000F185C76
:100ED0000902D368890F491CDB0301D5084A05E0E4
:100EE0001268D20601D5044A00E0044A5043FFF7D5
:100EF000FFF810BD0010024000093D000024F4007E
:100F000000127A00D0260008F8B504460078FE4D9D
:100F1000C0074AD0E8680007800F022807D0E868B9
:100F20000007800F032809D1E868C00306D52868A8
:100F300080033AD56068002873D036E001206268EB
:100F40000004824203D129680143296011E005238E
:100F500001211B0489049A422A6802D10A432A60AB
:100F6000F1E782432A602A68024000922868884399
:100F70002860606800280CD0FFF7B8FC064604E043
:100F8000FFF7B4FC801B64287ED828688003F7D55F
:100F90000BE0FFF7ABFC064604E0FFF7A7FC801B65
:100FA0006428F1D828688003F7D42078800741D5D9
:100FB000E8681F270007800F3F02012807D0E86874
:100FC0000007800F032809D1E868C00306D4286809
:100FD000400717D5E068012823D113E0E068002816
:100FE00017D029680922914301432960FFF77EFC4D
:100FF000064604E0FFF77AFC801B0228C4D8286864
:101000004007F7D568682169B8430902084368605A
:1010100010E02868400840002860FFF767FC06469B
:1010200005E095E0FFF762FC801B0228ACD8286839
:101030004007F7D42078C00672D5E868B34E0007A1
:10104000800F0AD0E06900282868B1495AD00843C7
:101050002860FFF74BFC074644E02868800502D56E
:10106000E069002874D0606A69683140884212D90A
:1010700000F02CFC0028AFD16868616AB0430843D7
:1010800068606868000200E0DCE0218C000A090664
:10109000084368600FE06968B143014369606868AC
:1010A000218C0002000A090608436860606A00F0AB
:1010B0000DFC002890D1606A410B0120C003491C3F
:1010C0008840E96809060A0F9249895CC84092493C
:1010D00008600320FFF728FC22E0FFF707FCC01B95
:1010E00002288BD828688005F7D56868616AB04304
:1010F000084368606868218C0002000A09060843FA
:1011000068600DE088432860FFF7F0FB064604E0C6
:10111000FFF7ECFB801B022888D828688005F7D4ED
:1011200020787E4E000723D560690028306910D0F2
:10113000012108433061FFF7D9FB074604E0FFF7C0
:10114000D5FBC01B02287DD830698007F7D50FE09A
:1011500001E1400840003061FFF7C8FB074604E0AA
:10116000FFF7C4FBC01B02286CD830698007F7D496
:101170002078400760D5A86B0027C00005D4A86B75
:10118000012109070843A863012765480168C905CB
:1011900011D40168821511430160FFF7A7FB00908D
:1011A00005E0FFF7A3FB0099401A64284AD85C4881
:1011B0000068C005F5D55648A268824203D131695E
:1011C0000143316111E001218902002A07D0052382
:1011D0001B029A4203D132690A433261EFE7326956
:1011E00082433261306988433061A06800280ED0A4
:1011F000FFF77CFB009006E0FFF778FB0099411AAF
:10120000484881421ED830698005F5D50DE0FFF7CA
:101210006DFB009006E0FFF769FB0099411A414819
:1012200081420FD830698005F5D4002F04D0A96B16
:10123000012000078143A9632078800630D53A4811
:10124000421400E080E0A169002916D0AB680121BA
:101250000B43AB606B6B0B436B63016A1143016221
:10126000FFF744FB064604E0FFF740FB801B022823
:101270006AD8A8688007F7D512E0A968490849002C
:10128000A960016A91430162FFF730FB064604E062
:10129000FFF72CFB801B022856D8A8688007F7D4DC
:1012A000A06A002855D0E9680907890F032952D0A0
:1012B000012636060228286805D0B0432860FFF7CB
:1012C00015FB044642E0B0432860FFF70FFB0746DA
:1012D00004E0FFF70BFBC01B022835D8286880010B
:1012E000F7D4216BE06AEA680843616BFD231B04B5
:1012F0009A4311430843E860286830432860FFF7A9
:10130000F5FA044617E000000010024000E000007B
:1013100000010000C02600085001002040100240DB
:10132000007000408813000000000140FFF7DEFA63
:10133000001B022808D828688001F7D509E0FFF7CC
:10134000D5FA001B022801D90320F8BD28688001C6
:10135000F5D40020F8BD0120F8BD000004220449A6
:101360000428086902D09043086170471043FBE7E6
:1013700000E000E070470000094910B5401E8842B7
:1013800001D9012010BD074C60610321081F00F046
:1013900079FA0020A06107202061002010BD000024
:1013A000FFFFFF0000E000E010B5FFF7E3FF10BD16
:1013B00070B5040005D025466035687A002802D053
:1013C00006E0012070BD00202872204600F026F8BB
:1013D0002420687220680168490849000160606A39
:1013E000002802D0204600F0CBFC204600F05EFD35
:1013F0000128E7D0206841680922D2029143416068
:10140000206881682A229143816020680168012256
:1014100011430160204600F019FD70BD00B5006861
:101420000D4985B0884215D10C48416B01229203C9
:1014300011434163032040020090022001900020EC
:1014400002900320039004200490052069460007C1
:10145000FFF780F905B000BD0038014000100240E0
:10146000FFB5074604466037B87A83B00E46202899
:1014700071D1002E0CD00598002809D00120A16858
:101480000003814207D12069002804D1F00702D06F
:10149000012007B0F0BD387A01285CD001203872F5
:1014A0000020E0662220B872FFF720FA029025465D
:1014B000403505982883059868830122A0681203A7
:1014C000FF21904204D12069002815D123480AE069
:1014D0007F2200280BD001210907884204D120690E
:1014E000002807D03F20A883A88B019023E0206923
:1014F000002801D0AA83F7E7A983F5E7688B401E8F
:10150000688306980090002220212046029B00F06C
:10151000E5FD002801D00320BBE70120A1680003FE
:10152000814202D1206900280DD02068416A0198CB
:1015300001403170761C688B0028DFD12020B87202
:1015400000203872A5E72068406A01990840308081
:10155000B61CF0E7FFE702209BE70000FF01000058
:10156000FFB5064604466036707A83B00D462028E3
:1015700058D1002D0CD00598002809D00120A16871
:101580000003814207D12069002804D1E80702D076
:10159000012007B0F0BD307A012843D0012030721D
:1015A0000020E06621207072FFF7A0F90190274625
:1015B0004037059838820598788218E0788A401E6E
:1015C000788206980090002280212046019B00F03E
:1015D00085FD002818D10120A1680003814202D1B5
:1015E0002069002812D02168287888626D1C788ACA
:1015F0000028E3D106980090002240212046019B5C
:1016000000F06CFD002808D00320C2E7288821687C
:10161000C005C00D8862AD1CE9E720207072002073
:101620003072B6E70220B4E7FEE700000748016821
:10163000074A1140C203914207D14168054A5160EF
:101640001160006880F30888084770470040000870
:101650000000FE2F44010020F3B50024104F81B09C
:101660002646254639460298FEF742FD019A30305B
:10167000105502910A213846641CFEF739FD0746D1
:10168000019800192038C07F302801D1002E04D0E5
:10169000761C6D1C0A2DE5D3FEBD0024F9E7000081
:1016A00000CA9A3B10B50D480B4901600121017138
:1016B0000B4A82600822C2604171002202614261CD
:1016C00082610162FEF768FF002803D0482105A06F
:1016D00000F094FF10BD00000030024054010020D3
:1016E000211000002E2E2F5372632F6372632E631E
:1016F0000000000070B5114886B0C26A04210A4398
:10170000C262C26A0A400592C16A01242143C162D1
:10171000C06A05262040E5033607059000222946C9
:101720003046FFF7DDF80021029103910095019406
:1017300069463046FFF70EF806B070BD0010024053
:1017400010B50D480B490160E121490241600021BB
:101750008160C16001618161C1610C2201624261ED
:101760004162FFF725FE002803D0432103A000F0CB
:1017700045FF10BD00380140780100202E2E2F5368
:1017800072632F75736172742E630000F8B5274879
:101790000168274A274F914236D1284D26492C46C9
:1017A0002846FEF7BDFD21461926254CF602324695
:1017B0002046FEF783FD002804D022A000F0C4F9E3
:1017C000FFF734FF234800F0CFF923A000F0BCF965
:1017D00000F01AF9002813D023492046FEF7A0FD97
:1017E000324621462846FEF769FD6420FEF724FFB5
:1017F000012105200022C9030007FFF771F812E05C
:10180000384600F0B1F9F0E70068184988420CD179
:10181000384600F0A9F916A000F096F900F042F958
:101820006420FEF709FFFFF701FFF8BD003F000845
:10183000785634126824571300E001080018010894
:10184000004000084241434B5550204641494C4519
:10185000440D0A00571368242B444F574E4C4F41F8
:10186000443A4F4B0D0A00000008010821436587E8
:101870002B55504C4F41443A4F4B0D0A000000008D
:10188000704700008307FF22DB0E9A408907090E8C
:10189000994000280BDA0007000F08388308084831
:1018A0009B001818C36993430B43C36170478308B7
:1018B00004489B001B181868904308431860704741
:1018C00000ED00E000E400E07047000070B517494B
:1018D0000023CA681206120F18D18A6B154CD50066
:1018E000134A02D51268224009E08E6B01252D07AC
:1018F0002E438E6312688E6B2240AE438E63A242EB
:1019000004D103218903884200D101230A480168D8
:1019100049084900194301600068C007C00F984298
:1019200001D0012070BD002070BD000000100240F9
:10193000007000400018000000200240F7B582B09F
:1019400000240C600F460646012269462B48049B82
:10195000FFF786FD050020D168460078182820D0C2
:1019600006DC01280BD002280BD0042804D104E0A7
:10197000412828D0612826D0012530700DE0802430
:1019800001E00124A4023070221DB11C1B48049BFD
:10199000FFF766FD050018D000243C60284605B01E
:1019A000F0BD012269461548049BFFF759FD002848
:1019B00003D168460078182803D0684601250078CE
:1019C000DBE70224D9E70225D7E7F078B178FF22D8
:1019D000504081420ED130190179407909024018F6
:1019E00001902246311D0648FEF7A5FD01460198EB
:1019F0008142D2D000240125CFE7000078010020E9
:101A0000540100207047000038B50020009068465F
:101A100000F096FB04000AD0052C0AD0042C0AD052
:101A2000022C0AD006A000F08FF8204638BD09A08D
:101A3000F9E70DA0F7E711A0F5E715A0F3E700001F
:101A40002B444F574E4C4F41443A454D5054590D3D
:101A50000A0000002B444F574E4C4F41443A535517
:101A600043434553530D0A002B444F574E4C4F41AF
:101A7000443A4C494D49540D0A0000002B444F573D
:101A80004E4C4F41443A4641494C45440D0A0000F2
:101A90002B444F574E4C4F41443A41424F525445CC
:101AA000440D0A0008B50021684601704B1E012252
:101AB00069460B48FFF7D4FC6846007843280ED1EE
:101AC0002122D20207A1100400F006FC694608702A
:101AD000002801D009A000E00DA000F035F808BDF5
:101AE000780100204C305F4C6F52614D6163466954
:101AF000726D776172652E62696E00002B55504CD5
:101B00004F41443A4641494C45440D0A000000000B
:101B10002B55504C4F41443A535543434553530D75
:101B20000A00000001B50748417AA02901D120210F
:101B3000417204486423012269466038FFF710FDB2
:101B400008BD0000D801002010B5002201E0521CA1
:101B500092B2815C0029FAD1014664230148FFF763
:101B6000FFFC10BD780100207FB5002504460395D9
:101B7000FEF7D2FD009501200C4D029003A90195BE
:101B80006846FEF765FD002802D009A0FFF7DCFFDC
:101B9000224629460220FEF7A1FD002802D00AA015
:101BA000FFF7D2FFFEF790FD7FBD0000003F000869
:101BB000464C415348204572617365204661696C0B
:101BC0002E2E2E0D0A000000464C4153482057721D
:101BD000697465204661696C2E2E2E0D0A00000086
:101BE000F0B5054600242B7820462246302B2CD118
:101BF0006B78782B01D0582B27D102241AE01E468F
:101C0000413E052E06D91F46613F052F02D93137C7
:101C1000092F13D81F461201303F092F01D83B4628
:101C200004E0052E01D8373B00E0573BD218641C76
:101C30000B2C04D22B5D002BE1D103E000202B5DA7
:101C4000002B01D101200A60F0BD2B5D002B0ED0CE
:101C50006B2B01D04B2B03D1002C01D0920206E05C
:101C60006D2B01D04D2B05D1002C03D01205012086
:101C70000A6007E01E46303E092E09D80A26724344
:101C8000303A9A18641C0B2CDED20128DDD1F0BD4D
:101C90000020F0BD10B5FEF72FFEFFF785FB10BD4D
:101CA00030B521489DB001680322D2029143C2148D
:101CB000891801600220009001250A9000240395F4
:101CC000400510210D900B940C9404916846FFF789
:101CD0001BF9002800D0FEE70F200E9003200F9084
:101CE00010941194012112940EA8FEF7F7FF00281A
:101CF00000D0FEE713A813951594FEF729FF0028DE
:101D000000D0FEE7FFF79EF87D21C900FEF7F0F94D
:101D1000FFF732FB0420FFF721FB00221146501E83
:101D2000FEF732FE1DB030BD007000401048016863
:101D3000821511430160C1680E4A1140C1600168FB
:101D40000D4A1140016081684908490081600168BD
:101D50000122920491430160C168FD221204914363
:101D6000C160002101610549C0038860704700001F
:101D7000001002400C40FF88F6FFF6FE00ED00E088
:101D800010B5818CC90707D001684A6801235B043C
:101D90009A43836A1A434A60818C890707D5016890
:101DA0004A6801231B049A43C36A1A434A60818C20
:101DB000490707D501684A6801239B049A43036BCE
:101DC0001A434A60818C090707D501684A680123D4
:101DD000DB039A43436B1A434A60818CC90607D5DB
:101DE0000268916801231B039943836B1943916037
:101DF000818C890607D501688A6801235B039A43B1
:101E0000C36B1A438A60818C490612D503685A68ED
:101E100001210905046C8A4322435A60026C8A42FC
:101E200007D10268516803235B059943436C19434A
:101E30005160818C090607D501684A680123DB04DB
:101E4000806C9A4302434A6010BD0000F8B500263A
:101E50000446C666FEF74AFD054620680068124F34
:101E6000000709D501212B4600224905204600978D
:101E700000F034F900280DD12068006840070BD528
:101E800001212B46002289052046009700F026F903
:101E9000002801D00320F8BD202060346072A072B9
:101EA00026720020F8BD0000FFFFFF01FEB50446CA
:101EB000016880682269E36910436269102700267F
:101EC0001A4310430A683546784B1A4002430A60A9
:101ED00020684168032212039143E2681143416084
:101EE000734A2168A069914201D0226A10438A682E
:101EF0000B231B029A4302438A606E4A20686E4994
:101F000090420CD1C8688007800F06D0012843D0CA
:101F100002283FD0032826D124E0012723E0674A86
:101F200090420AD1C8680C21084031D0042833D02F
:101F300008282FD00C2816D114E0614A904227D0EF
:101F4000604A904224D05A4A90420CD1C96803207A
:101F5000800201401CD01015091A1DD0091A19D091
:101F6000814200D108270220FEF712FD0190504B5C
:101F7000514922684039D81300929A4235D1002F36
:101F80000CD0022F0DD0042F12D0082F1CD113E03B
:101F90000027E8E70227E6E70427E4E7FEF758FF13
:101FA00008E00868C00601D5474805E0474803E057
:101FB000FEF76EFF002873D062685100511881420D
:101FC00002D81103814201D2012569E0010E060207
:101FD0005008002330185941FEF7A0F803210902E8
:101FE0003B4A411A914259D9EEE7E26982422DD12A
:101FF0003B0000F004FB0906080B24192424241FCD
:102000002400019812E0FEF733FF0FE008686168D2
:10201000C00602D548082F4A01E02F4A4808801818
:10202000FEF766F886B20BE0FEF732FF616840000B
:102030004A08F4E76168012248081204EFE7012525
:10204000310909013007400F084327E03B0000F049
:10205000D6FA09070A0D061D060606290600B3E78B
:10206000FEF7F6FE14E0FEF703FF11E00868616872
:10207000C00602D54A08144801E014484A0810185E
:10208000FEF736F881B20098C16009E0FEF700FF64
:1020900061684A088018FEF72BF880B22168C86092
:1020A0002846FEBD61684A08E9E70000F369FFEFD2
:1020B0000048004000380140401002400044004009
:1020C000004C00400050004000093D000024F40096
:1020D000FFFC0F0000127A000048E801FFB581B054
:1020E00017460E4604460A9D1DE0681C1BD0002DB5
:1020F00005D0FEF7FBFB0499401AA84213D92068CB
:102100000168FF22A132914301602068816849087B
:1021100049008160202060346072A072002020722B
:10212000032005B0F0BD2068C1693046884304D063
:102130000020B842D9D00020F3E70120F9E70000E1
:10214000F1B5002790B05D483E463C460C970090A4
:10215000ACE0002005460D90A4E0594A08A9594872
:10216000FFF7ECFB00280CD002287DD00C9800284B
:1021700000D0761C052E78D91820FFF7D3FC182044
:102180008EE00898002600280DD0022806D04D4980
:102190000D9A8B7893420BD0152081E00620FFF733
:1021A000C1FC02247EE00620FFF7BCFC012579E09B
:1021B000002A14D08208091D0098FEF7DBF80028D9
:1021C0005AD01820FFF7AEFC1820FFF7ABFC042410
:1021D0000D98401CC0B20D9001200C9062E008796F
:1021E000002843D00020384B091D02E01A54401C3F
:1021F000491C0A78002A01D04028F7D300221A543B
:10220000104604AB01E01A54401C491C0A78202AED
:1022100001D01028F7D3002119540EA91846FFF752
:10222000DFFC109829490068884211D918206946B6
:102230000872012424052346012202A92448FFF73D
:102240008FF92346012202A92148FFF789F90524C5
:1022500020491A48FEF764F810980E99016006208C
:10226000FFF760FC432012E014E018E00620FFF7BF
:1022700059FC01252F4615E001210520C90300075F
:10228000FEF72AFB08990098401800900620FFF7F7
:1022900049FC9DE71820FFF745FC18207FE7432005
:1022A000FFF740FC2846204300D156E7384620433C
:1022B00000D14EE7204611B0F0BD000000400008FC
:1022C0001027000028020020E8010020010801007A
:1022D0007801002000080108F7B500208EB00B90AF
:1022E000054602900120C24E0A9000270122109854
:1022F0007270B770FF22F2703C4602E033191A7117
:10230000641C0A5D002A01D0402CF7D30021321949
:102310001171014607A8FFF79FF907A8641D02E0A5
:102320003155641C7F1CC15D0029F9D102E00020F9
:102330003055641C842CFAD324E00126AC4C3605BD
:1023400033468322611CAB48FFF70AF98022211D26
:10235000A948FEF7F0F804460004000EFFF7E2FB80
:10236000E0B2FFF7DFFB3346012203A9A148FFF7E4
:1023700077F800280DD00B98401C0B900B9805287F
:1023800000D3012502982843D7D00E980690109CC0
:1023900091E06846007B06281FD01828EED133460E
:1023A000012203A99348FFF75BF80028E6D16846AD
:1023B000007B1828E2D10220FEF73EF98D4908681B
:1023C00083690822134383610868836910242343C7
:1023D0008361086802620225D0E701200290CDE700
:1023E00001210520C9030007FEF776FA0A980123A8
:1023F0007F4A9B020699C0B226469C4201D31F46E3
:1024000000E08027BE4200D33E4601239B02B44633
:102410009F4201D1022300E0012353709070C0431A
:10242000D0700423301D03E00E78D654491C5B1C89
:102430008342F9D36046BC4507D81A21001D3F1DD1
:1024400001E01154401CB842FBD3002069460290C1
:10245000087307462CE00126B602B44200D280265B
:1024600063490123F21C1B05491C6248FFF778F8F9
:102470005F493246091D6048FEF75DF8019000048F
:10248000000EFFF74FFB0198C0B2FFF74BFB012393
:102490001B05012203A95748FEF7E2FF002803D1DC
:1024A0006846007B062810D07F1C052F00D301252D
:1024B00002982843CFD0002C01D0002D90D00024CA
:1024C000684626460473274623E0012002900698BA
:1024D000B4420AD9801906900A98A41B422802D057
:1024E000401C0A90E1E70525DFE7801900240690EB
:1024F000DBE70420FFF716FB01231B05012203A9DC
:102500003C48FEF7ADFF002809D07F1C052F00D303
:10251000012520462843ECD0002D27D064E06846F2
:10252000007B062820D01828F0D101231B050122AA
:1025300003A93048FEF794FF0028E7D16846007BE6
:102540001828E3D10220FEF777F82A480268936939
:1025500008210B4393610268936910252B43936113
:10256000006801620225D1E70124CFE7204C012059
:102570006070A670FF20E07004202654401CC0B29A
:102580008428FAD30126360533468322611C194874
:10259000FEF7E6FF8022211D1748FDF7CCFF044619
:1025A0000004000EFFF7BEFAE0B2FFF7BBFA3346B5
:1025B000012203A90F48FEF753FF002814D16846F3
:1025C000007B182810D10220FEF736F8094802686F
:1025D000936908210B4393610268946910231C439B
:1025E0009461006801620225284611B0F0BD000028
:1025F000280200207801002054010020FEE730B4BA
:102600007446641E2578641CAB4200D21D46635D8F
:102610005B00E31830BC184702E008C8121F08C16D
:10262000002AFAD170477047002001E001C1121F53
:10263000002AFBD170470000FEF766F9FFF730FB78
:10264000FFF758F8FFF72EF815480168154A914230
:1026500003D00168144A91420CD101220520D10314
:102660000007FEF73DF9FDF777FEFFF769F8FFF782
:102670008DF813E000680D4988420DD10D4C0C49CE
:102680002046FDF74DFE1922D20221460A48FDF7E9
:1026900015FE0A48FFF768FAFEF7C8FFFEE70000DC
:1026A000003F000878563412214365875713682489
:1026B00000080108004000080018010868245713AA
:1026C00000000000000000000102030406070809E2
:1026D000030406080C10182030000000000102035B
:1026E000040000001427000800000020440100003E
:1026F0001826000858280008440100201000000097
:10270000182600086828000854010020F42400005E
:102710002826000810B5214A00219069C3052048E9
:1027200004D54169022319434161911593699B05C1
:1027300005D5436901242343436163021943936927
:102740005B0505D54369082423434361E30119432D
:1027500093691B0505D54369042423434361630240
:10276000194393699B0405D54369102423434361AE
:102770006302194393699B0304D5446920231C43D6
:10278000446119439369DB0305D54369402423431E
:102790004361A00201439161002010BD002002406E
:1027A0003006002010B5164900E0401E8A69D207A5
:1027B00002D00028F9D11FE000281DD088698007C9
:1027C00001D5022088618869C00511D48869800517
:1027D0000ED4886940050BD48869000508D488693F
:1027E000800405D48869800302D48869C00305D5B4
:1027F000FFF790FF012010BD032010BD002010BD89
:1028000000200240F8B507460E4600251048FFF7A5
:10281000C9FF00281BD10F4C606821150843606078
:10282000606808210843606072B601CE38606D1C94
:10283000102DFAD362B60648FFF7B4FF616808228C
:10284000914361606268012189028A436260F8BD38
:1028500050C3000000200240000000000000000003
:082860000000000080841E004E
:10400000101D0020D54000085D960008DF40000824
:1040100000000000000000000000000000000000A0
:10402000000000000000000000000000E140000867
:104030000000000000000000E340000849B600084E
:10404000E7400008E74000081D9F0008E74000081F
:10405000E7400008096300081D6300083163000899
:10406000E7400008E7400008E7400008E740000894
:10407000E7400008E740000885C00008E740000866
:10408000E7400008E7400008E740000800000000A3
:10409000E7400008E7400008E7400008E740000864
:1040A000E7400008E7400008E740000865C0000856
:1040B00075C00008E740000800000000E740000865
:1040C0000348854600F060FD0048004781D00008A5
:1040D000101D00200448804704480047FEE7FEE723
:1040E000FEE7FEE7FEE7FEE761B70008C140000813
:1040F00030B50B46014600202022012409E00D4680
:10410000D5409D4205D31D469540491B2546954007
:1041100040191546521E002DF1DC30BD03460B43FD
:104120009B0703D009E008C9121F08C0042AFAD26D
:1041300003E00B780370401C491C521EF9D27047F3
:10414000D2B201E00270401C491EFBD2704700222F
:10415000F6E710B513460A4604461946FFF7F0FF86
:10416000204610BD421E5378521C002BFBD10B7809
:104170001370491C521C002BF9D1704730B505460D
:104180002A460B4610781C78521C5B1C002801D074
:10419000A042F7D0002C03D0002802D06D1CEFE71E
:1041A000284630BD10B5044605E00B780370401C6E
:1041B000002B00D0491C521EF7D2204610BD421CD5
:1041C0000178401C0029FBD1801A704730B50446A5
:1041D0000020034600E05B1C934203D2E05CCD5C10
:1041E000401BF8D030BD03460A780270401C491CC1
:1041F000002AF9D1184670470321001D401E03789C
:1042000012021A43491EF9D510467047F8B5024606
:104210004A40D40F42004B0052085B089A4202D237
:104220000246084611464A0023D0C30D4A00DDB2BB
:10423000120EAD1A202D35DA49020126490AF6057B
:104240008A19002C00D0524220214F1B1146B94040
:104250002A411018C20D9A4221D0002C17D0012DEE
:1042600008DCDA05801AD20F8019D207DBB200F021
:1042700095FBF8BDDA05801A012340001B06C01823
:1042800080185A428018CA0F1043490007E04908B5
:10429000C2071143DA05801A80194008801800F01F
:1042A00075FBF8BD61000122511A001BF7E70122DE
:1042B000D2075140AAE70122D2075040A6E70246A2
:1042C00070B54A40D30FDB0740002DD04A002AD0FA
:1042D000010E140E000212020919400A520A841833
:1042E000E50104465443000A120A2E045043A4195F
:1042F0004219200CC543AA18120C0125AD03521C0B
:10430000521912047F39240400D0521C104301D4E6
:104310004000491EC2B20C06C0092018401C4008CB
:10432000802A02D003E0002070BD40084000002930
:1043300000DA0020184370BD70B502464A40D50F20
:1043400040004A00ED0740085208002814D0002A17
:1043500012D0C40DD30D41020120C0055202490AFA
:10436000520AE41A091812187D34914201D3641CD0
:1043700000E04900002C01DA002070BD00239142CA
:1043800001D3891A0343400849000028F7D10029C6
:104390000AD0914202D10121C90705E0914201D220
:1043A000012101E00121C943E005C018401900F0D6
:1043B000EDFA70BDF0B507460846584087B0C00F0B
:1043C000049048000E46590040084908BC1A88412C
:1043D00005D2384631461E4617460B46024658005F
:1043E000400810434CD0300D039040055900400D5B
:1043F000490D0590401A0290402872DA18030121F5
:10440000000B09050843019004980092002805D08C
:104410000199524200208841009201900298402167
:104420000A1A0199009800F07DFA05460C466B4681
:1044300007CB00F098FAC0197141039A0E0D0023C2
:10444000D71756401A467A40164344D0049A002A99
:104450002DD0029A012A039A15DC1205C01A914147
:1044600001263605001C7141D20F059ED20700932C
:10447000019202962A46234600F0D6FA07B0F0BD14
:1044800038463146FAE71605224A0F46B218C01AD6
:10449000B74101210905001C4F4100187F41114619
:1044A00018187941E20F10436D19644113E0E207D7
:1044B0006D0815436408C2071443039A01261205C8
:1044C000C01A91413605001C7141CE0740083043A7
:1044D0004908C01851412A46234600F098FACDE712
:1044E000FFE7049801224000C117121A00238B41F4
:1044F00004983146C417381AA141EEE730B40124BC
:10450000E407634030BC55E730B40124E407614060
:1045100030BC4FE70000E0FFF0B51FB488B00B9946
:104520000998002448400999C00F49004908099199
:10453000C0070B990090490049080B910999089808
:10454000A64608431CD00B990A98084318D009982E
:1045500001244000420D4800410D09982405000344
:10456000000B204309900B980003000B20430B9095
:1045700050181C494018002201901446104605E0CE
:10458000002001460DB0F0BD032801DA034600E02B
:1045900003239C46C11A0AAE0AE05F0008ADED5B3A
:1045A0004F00F75B7D430027AA187C41491C5B1E26
:1045B0006145F2DD410004AB5A522104120C0A435A
:1045C000240C401C0828DFDB0198029000997046FB
:1045D00001910090059B049A0799069800F024FA2F
:1045E000D0E700000DFCFFFFF0B50C465C4085B045
:1045F000E40FE40703944C00002664085900944635
:10460000490802460296224321D062460A431ED040
:104610006200570D4A000E032303550D0124024684
:104620002C492405781B1B0B360B401823432643CB
:10463000614600901C46501AB44103D30098401CB8
:10464000009002E0921800985B41002803DA0020F5
:10465000014605B0F0BD0020012109050746864648
:1046600011E064461D46141BB54106D36546521B36
:10467000B341744607430C43A646CD07400849089A
:10468000284392185B4105460D43EAD11046184372
:1046900013D06046194650407140084306D060462A
:1046A000101AB34106D20122002306E000220123A2
:1046B000DB0702E00122D243531000987446010543
:1046C000381C6141029C039D0019694100F09FF96B
:1046D000BFE70000FD03000070B54B005B0803431B
:1046E0000BD04B005C0D002633466542B341D41716
:1046F000AD1AA34102DB0020014670BD120530183F
:10470000514170BDC217C10F504010B54018CA07C3
:104710009623002100F042F910BD10B50022962327
:10472000114600F03BF910BD0EB5C217C10F504045
:10473000CA0740180021054B0293019200910A46D6
:104740000B4600F071F903B000BD00003304000017
:104750000EB505490291002100910A460B460191D0
:1047600000F062F903B000BD330400000EB5054A45
:104770000292002200921346019200F055F903B014
:1047800000BD000033040000410040020122400A45
:10479000D205090E80187F2901DA0020704796297A
:1047A00003DC9622511AC8407047963988407047FA
:1047B0004A0009030123090B1B051943094B10B5D6
:1047C000520D9A4201DA002010BD064B34339A4252
:1047D00003DC9A1A00F0B6F810BD0349511888405E
:1047E00010BD0000FF030000CDFBFFFFC20FD2078A
:1047F000400040080BD0C10D0723DB01C91840025F
:104800000905400A1143C2084007114370470020C0
:104810000146704710B5002904DB0124E40740423B
:104820008C412146002B04DB1C460123DB0752424E
:10483000A3418B4200D1824210BD000010B5002977
:1048400004DB0124E40740428C412146002B04DBB9
:104850001C460123DB075242A341994200D19042FA
:1048600010BD0000CB0FDB07490010B54908024618
:104870000A4307D00A0D07240903E401090B121BA0
:10488000002A01DC002010BDC900440F0C43C10008
:10489000E018D205801800F079F810BD0122D20787
:1048A000002800DB101A002900DB511A81427047F2
:1048B0000122D207002800DB101A002900DB511A60
:1048C00088427047F0B51FB40646002082B0054606
:1048D0004024019100901BE0019922460F4630468A
:1048E00000F030F8049A059B801A994110D31046C5
:1048F0001946224600F016F8361A8F4101972246D3
:1049000001200021009F00F00DF838184D41009063
:104910002046641E0028DFDC019B009829463246B1
:1049200007B0F0BD10B5202A04DB0146203A9140C3
:10493000002010BD914020239C1A0346E3401943F8
:10494000904010BD10B5202A04DB0846203AD04024
:10495000002110BD0B46D340D0402024A21A914024
:104960000843194610BD10B5202A06DBCB170846B0
:10497000203A1041C1170B4306E00B461341D040CB
:104980002024A21A91400843194610BD002904DAD8
:10499000401C490001D140084000704770B4002419
:1049A000050C05D11024000402D1002921D01124C6
:1049B000050E01D100020834050F01D10001241DAC
:1049C000850F01D18000A41C002801DB4000641C7D
:1049D000002908D020252E1B0D46F540A14000D00F
:1049E00001212943084301061B1B000ADB1D02D5D8
:1049F000002070BC7047DB05181880180029F8DA11
:104A0000401C4900F5D170BC40084000704710B50B
:104A1000002B08DA0024401C614192185B411A43C4
:104A200001D14008400010BDF0B51FB482B005466A
:104A30000C0003D0084607F04FFE02E007F04CFEE2
:104A400020300246009021462846FFF76BFF049B6A
:104A5000059A04460F4618431143084314D01846DC
:104A600010431BD0009840210A1A18460599FFF7F9
:104A700069FF05460E46009A05990498FFF752FF14
:104A8000084305D0012004E02046394607B0F0BDB8
:104A90000020C11705430E432C43374300990E985D
:104AA0006305401A7905E40A00220C43FD0A0A3026
:104AB00002D500200146E9E70105101969410C9C67
:104AC0000D9D00196941FFF7A2FFDFE7F8B5054624
:104AD000480040080C46284304D06000184A400DA6
:104AE000904201DD2846F8BD15493539884210DC71
:104AF00088420BDB290D200308432903014305D01D
:104B0000E00F1049C00741180020F8BD0020014601
:104B1000F8BD161A4020821B28462146FFF702FFE7
:104B200007460091284621463246FFF70BFF3A46DA
:104B3000009BFFF76CFF3246FFF7F4FEF8BD000064
:104B4000330400000000F03F4A0009030123090B71
:104B50001B0519430A4B10B5520D9A4202DA002088
:104B6000014610BD064B34339A4203DC9A1AFFF714
:104B7000E9FE10BD034BD218FFF7D4FE10BD0000B4
:104B8000FF030000CDFBFFFF064C0125064E05E0AC
:104B9000E36807CC2B430C3C98471034B442F7D35E
:104BA000FFF792FAFCD700081CD80008104B10B58C
:104BB0001A469C89143A517884420FD2203B987847
:104BC00001430AD1012098701070507009490A48B9
:104BD00006F010FF084806F015FF10BD0229FCD1B1
:104BE00099780020042900D19870507010BD000001
:104BF00090000020DC05000070130020F8B531485B
:104C000001F082FF304801F025FF304C2D4821781B
:104C1000264627460C3E143700250088002934D04C
:104C2000BA89904226D903291AD3257001F024FDB0
:104C3000307040087070401E092801D20A20707040
:104C4000707806F001FA2249224806F0D3FE214886
:104C500006F0D8FE20A007F02FFD0420B870F8BDA4
:104C600022A007F029FD2078401C2070194806F08A
:104C7000C9FEF8BDB57065702570164806F0F4FEE3
:104C800021781AA007F018FDF8BDB98988420ED91D
:104C900001F0F2FC40087070401E092801D20A2081
:104CA0007070707806F0D0F90220607004E0B87877
:104CB000042800D1BD706570064806F0D5FEB570B9
:104CC000F8BD000000120020301200207C000020FF
:104CD000A0BB0D00701300204661756C743A41430F
:104CE0002043757272656E740D0A000041432043C3
:104CF000757272656E74206170706561723A2564B8
:104D00000D0A0000F8B5394801F0FEFE384801F000
:104D1000A1FE384D002429782F462E4633481137FE
:104D20000F3E00292CD07969C068FFF7B7FD1CD26F
:104D30002978032912D32C7001F09EFC30700020DA
:104D400006F082F97D2189012B4806F053FE2A489E
:104D500006F058FE29A007F0AFFCF8BD2AA007F026
:104D6000ABFC2878401C28703CE0B4706C702C7050
:104D7000214806F079FE297827A007F09DFCF8BDB0
:104D8000317A002929D07969C068FFF787FD18D2E8
:104D90003079401CC0B2307103280AD30C20B8709F
:104DA00002206870144806F05FFE3471B4703078E9
:104DB00003E0114806F026FE002006F045F93472A3
:104DC000F8BDBC7002206870307806F03DF90A48E2
:104DD00006F04AFEB4703471F1E7307806F034F929
:104DE00001203072044806F00DFEF8BD00120020CC
:104DF000301200207F000020841300204661756C73
:104E0000743A50460D0A000050462061707065618A
:104E1000723A25640D0A00004143204375727265A1
:104E20006E74206170706561723A25640D0A00002D
:104E3000F8B5144E3446173C328925466178093D51
:104E4000824202D3F28882420FD9A87801430BD163
:104E500001F012FC287001206070A8700A4806F06A
:104E6000D1FD0AA007F028FCF8BD0229FCD10027DB
:104E7000AF706770287806F0F5F8B0780228F3D1A3
:104E8000B770F8BD900000205C1300204661756C7F
:104E9000743A414320566F6C746167650D0A0000D7
:104EA000F8B5214C1F4F254620350026384601F025
:104EB0002BFE1E4801F0CEFD2889FFF72EFC7968F5
:104EC000FFF7ECFC06D3E888FFF727FC7968FFF7CB
:104ED000EFFC17D2E078401CC0B2E07002280DD37E
:104EE00011490220A87009314870002006F0BAF874
:104EF000E6700F4806F0B8FDA670F8BD0C4806F045
:104F000081FDF8BDA878022800D1AE7006480930AE
:104F10004670207806F0A6F8054806F0A5FDA670B4
:104F2000E670F8BD00120020700000203012002052
:104F30005C13002070B5044600688168490720D5DD
:104F4000816810254907002905DA8168890702D49C
:104F500081682943816002F09FFC06460DE002F063
:104F60009BFC801B0A2808D9A06D2843A065E06D32
:104F700001210843E065084670BD2068806840074D
:104F8000EDD4002070BD000038B504460648054940
:104F90000068FFF7ADF8604300E0401E0090002875
:104FA000FBD138BD40420F0020000020F8B5044678
:104FB000006881688907890F012925D10168C9071F
:104FC00022D08168052211401025012601290FD128
:104FD000816802221143816021680320086002F089
:104FE0005BFC07460CE002F057FCC01B0A2807D9FF
:104FF000A06D2843A065E06D3043E0650120F8BD59
:1050000020688068C007EED10020F8BDF8B50446DE
:10501000006881688907890F012902D10168C907E1
:1050200022D18168114A10261140012500290ED194
:105030008168294381600120FFF7A6FF02F02CFC64
:1050400007460CE002F028FCC01B0A2807D9A06D17
:105050003043A065E06D2843E0650120F8BD20687D
:105060000068C043C007EDD10020F8BD17000080E4
:1050700010B5054A1378002B05D10123137000F0F9
:1050800027F800F003F810BD3000002010B50F48DD
:105090000021032292074160426181610722C261BF
:1050A00041628162C16241630122016302628163E4
:1050B0000422C2634164920281640264C16401F00B
:1050C000F7FF0021014801F003FF10BDD8000020C8
:1050D0007CB50C4605460C490A480C4A0860506BE2
:1050E000511508435063084801F084FF601C08D044
:1050F000002000900346019003222146284601F03B
:105100005DFE7CBD00240140D8000020001002405C
:10511000FEB50020204C0090019020680125284316
:10512000206020684007FCD5606B01277F02384370
:105130006063F800009101906946184801F010FF83
:10514000164E3068816829438160304602F0F4F8D9
:105150000021C943304602F08FF8304601F0A4FF29
:1051600085B2306881680222114381603168032072
:1051700008600B490098884202D00A49884202D14F
:10518000064801F037FF606BB84360632068400851
:10519000400020602846FEBD00100240D8000020DC
:1051A000000004480000024410B5044A1278002AA6
:1051B00002D0FFF7ADFF10BD002010BD3000002071
:1051C000002204E0835C33338354521CD2B28A42FF
:1051D000F8D37047F8B5074614460E464068FFF707
:1051E000D3FAC0B2FFF724FE1C4DA878022833D0B2
:1051F0007068FFF7C9FA80B200F0AAFAA87802280E
:105200002AD0032828D03888FFF7D0FCAB78022BAF
:1052100022D0032B20D0042B1ED0308880B200F087
:10522000EBF9A978022917D0042915D0032913D046
:10523000052911D00420285604F03AF8A97802294B
:105240000AD0042908D0032906D0052904D006294C
:1052500002D0204600F0B4FFF8BD0000900000200E
:1052600010B5040001D005F0A1FC0148847010BD08
:105270001400002072B602480179491C0171704780
:105280000000002004490879401E0006000E087145
:1052900000D162B670470000000000207FB52B4DA2
:1052A000A87800280CD006F031FA172216212848D9
:1052B00003F08CFF26480021B838FFF7D9FE7FBDE8
:1052C00002F0F6FB06F0C6F901242149AC70EC703F
:1052D0005431250208462A46E43801F09DF91C485D
:1052E0002A4684381B49054601F096F91A4A1B499B
:1052F000284601F091F9164819492C3881620A2391
:1053000009220121803806F0E1FE00200090019082
:10531000034602900E48E122520202210394AC3867
:1053200006F0B8FE05F0F6FB01F09CF9002806D067
:1053300002F0C8F802F0D6F802F0CCF8B5E702F0B7
:10534000D9F802F0E7F802F0DDF8AEE7000000203F
:10535000240A0020780B00201A04000038010020E5
:1053600035D0000810B506F0E9F805F00FF800F0A8
:1053700087FE05F0B7F810BDF0B5002315E05A1C04
:1053800094469D00D2B22B180BE094004659075961
:10539000BE4204DD24181E6827681F602660521C68
:1053A000D2B28A42F1D36246D3B28B42E7D3F0BD88
:1053B00030B50024234604E0C55C2C195B1CE4B224
:1053C000DBB28B42F8D3A24201D1012030BD0020D4
:1053D00030BD10B504F06AFA022806D0032803D0C5
:1053E000062805D0052000E0042005F0E5FF10BDEB
:1053F00000F03CFA10BD0000104868220270112134
:1054000041708170C170017141718171C271162149
:10541000C172332101734A2242732B2282733722D5
:10542000C2733522027441748174C174017541756F
:105430008175C1750249C162704700000C100020DF
:10544000CDC2000870B50024022A14D30023551ED3
:1054500004E0CE5C34195B1CE4B2DBB2AB42F8DB97
:1054600089182039C97F2018C943C0B2C9B2814206
:1054700001D1012070BD002070BD000070B5114D3C
:1054800004462A780078824217D1E279824214D108
:1054900060182038EA7AC37F9A420ED1827F891E33
:1054A000C9B22046FFF784FF002807D00622691CF6
:1054B000601CFEF78BFE002801D0002070BD01208B
:1054C00070BD00000C100020482918D341790279E2
:1054D0000902114313D0C17A827A090211430122D1
:1054E000D20391420BD0417B037B090219439142C5
:1054F00005D0C17F837F08021843904201D100206C
:10550000704701207047000010B51921014800F0D4
:1055100059FF10BDA40A08087FB503AA69460120F7
:1055200004F0A2FD002824D069460888812645BAE7
:105530000120C00305430E70280A48708D700321B6
:10554000684605F00DFD002403AA6946292004F0F1
:105550008BFD002803D1641CE4B2032CF4D369460C
:1055600068040E70400E48708D700321684605F087
:10557000F7FC00F00DFF0449002048610349486032
:10558000886008807FBD0000DC0F002048000020FC
:1055900070B500224D0808E08B1A1B18203B845C74
:1055A000DE7F8654521CDC77D2B29542F4D870BDAF
:1055B00010B50E490C480860084601F00DFF0C4874
:1055C000002101600221416001460022074801F0EC
:1055D000E1FE0022074B1146044801F031FF002193
:1055E000024801F03BFF10BD007400404010002055
:1055F00058000020FF0F0000104B10B51A46DC8C3D
:105600000B3A517884420FD2203B987801430AD15B
:10561000012098701070507009490A4806F0EAF9A4
:10562000084806F0EFF910BD0229FCD19978002056
:10563000052900D19870507010BD00009000002026
:10564000DC050000AC130020F8B5314801F05CFA2D
:10565000304801F0FFF9304C2E4821782646274685
:10566000153E0B3700250068002934D0FA8C904293
:1056700026D903291AD3257000F0FEFF30704008A8
:105680007070401E092801D20A207070707805F0F1
:10569000DBFC2249224806F0ADF9214806F0B2F9B8
:1056A00020A007F009F80520B870F8BD22A007F087
:1056B00003F82078401C2070194806F0A3F9F8BDC3
:1056C000B57065702570164806F0CEF921781AA0DD
:1056D00006F0F2FFF8BDF98C88420ED900F0CCFF3D
:1056E00040087070401E092801D20A20707070783E
:1056F00005F0AAFC0220607004E0B878052800D10B
:10570000BD706570064806F0AFF9B570F8BD0000D1
:10571000001200203012002085000020A0BB0D00E8
:10572000AC1300204661756C743A44432043757293
:1057300072656E740D0A00004443204375727265F1
:105740006E74206170706561723A25640D0A000004
:1057500070B5164D2E462C4612362034FEF7DDFF6E
:10576000216AFFF7A5F80ED27078A97808431BD1FB
:1057700000F082FF287001207070A8700C4806F0BD
:1057800041F90CA00EE000F077FF00280CD07078F3
:10579000022809D10020A8707070A178032903D1D4
:1057A000A07009A006F088FF70BD00007000002006
:1057B000981300204661756C743A444320566F6C10
:1057C000746167650D0A0000436C6561722074683E
:1057D00065206661756C7420666C61673A44435F4E
:1057E000564F4C544147450D0A000000F8B51B4F79
:1057F00000263D46123D2C462034194801F084F91C
:10580000184801F027F91748216A4068FFF750F857
:1058100016D26879401CC0B2687102280CD30320EC
:10582000A07002207870002005F01CFC6E710E48FC
:1058300006F01AF9AE70F8BD0B4806F0E3F8F8BDB3
:10584000A078032800D1A6707E70287805F00AFCA5
:10585000054806F009F9AE706E71F8BD82000020AF
:10586000001200203012002098130020F0B58DB0F7
:1058700000270B9707970A970997F8A0089706F053
:105880001BFF002504AE03AA04A9222004F016FC85
:1058900000281BD0FBA006F00FFF002405E0315DBF
:1058A000FAA006F009FF641CE4B26846007B84425B
:1058B000F5D3F7A006F000FF6946087C497C000498
:1058C000090208436946897C0843C71903AA04A949
:1058D000232004F0F3FB00281DD0EEA006F0ECFE20
:1058E000002405E0315DE9A006F0E6FE641CE4B2A8
:1058F0006846007B8442F5D3E5A006F0DDFE6946EC
:10590000087C497C0004090208436946897C0843F5
:105910000B9940180B9003AA04A9242004F0CEFB95
:1059200000281DD0DDA006F0C7FE002405E0315D93
:10593000D6A006F0C1FE641CE4B26846007B844237
:10594000F5D3D3A006F0B8FE6946087C497C000474
:10595000090208436946897C084307994018079063
:105960000A2000F029FC04F0FFFB6D1CEDB20A2DAB
:1059700089D30A213846FEF7BBFB05460A210B985E
:10598000FEF7B6FB04460A210798FEF7B1FB079025
:1059900093206A461070280C5070280A90700321DA
:1059A000684605F009FB94206A461070200C507080
:1059B000200A90700321684605F0FEFA95206A4699
:1059C00010700799080C50700799080A907003210D
:1059D000684605F0F1FA2106090F28060901000FB3
:1059E00008430B9107996A460906090F0902084303
:1059F0000C9196211170010A517090700321684634
:105A000005F0DAFA22462946A6A0079B06F054FEC6
:105A1000ADA006F051FE04F0A7FB7D20000100F0D0
:105A2000CBFBAFA006F048FE002703AA04A9222062
:105A300004F044FB00281DD092A006F03DFE002497
:105A400005E0315D91A006F037FE641CE4B26846C3
:105A5000007B8442F5D38EA006F02EFE6946087CBA
:105A6000497C0004090208436946897C08430A9975
:105A700040180A9003AA04A9232004F01FFB002861
:105A80001DD084A006F018FE002405E0315D7FA043
:105A900006F012FE641CE4B26846007B8442F5D333
:105AA0007BA006F009FE6946087C497C00040902D7
:105AB00008436946897C084309994018099003AA5C
:105AC00004A9242004F0FAFA00281DD073A006F0DF
:105AD000F3FD002405E0315D6CA006F0EDFD641CD3
:105AE000E4B26846007B8442F5D369A006F0E4FD89
:105AF0006946087C497C0004090208436946897CA0
:105B000008430899401808900A2000F055FB04F05B
:105B10002BFB7F1CFFB20A2F87D30A210A98FEF7BE
:105B2000E7FA07460A210998FEF7E2FA04460A2135
:105B30000898FEF7DDFA03460890224639466CA025
:105B400006F0BAFDAF4201D872A037E02846FEF752
:105B5000FFFD044638460991FEF7FAFD2246099BEF
:105B6000FEF742FDFEF77EFE0146FF2080058142E2
:105B700023DD6FA006F0A0FD93206A46ED43107070
:105B8000280C5070280A90700321684605F014FA1A
:105B900028060B99000F08430C996A460843962182
:105BA0001170010A517090700321684605F004FAE3
:105BB000294665A006F080FD02E067A006F07CFDA6
:105BC00007990898884201D869A03AE00846FEF78C
:105BD000BFFD044609910898FEF7BAFD2246099BCD
:105BE000FEF702FDFEF73EFE0146FF2080058142E2
:105BF00026DD66A006F060FD07986946C44395203F
:105C00000870200C4870200A88700321684605F04F
:105C1000D3F928060B99000F08432106090F090242
:105C20000843962269460A70020A4A708870032166
:105C3000684605F0C1F921465AA006F03DFD02E094
:105C40005BA006F039FD604806F036FD04F08CFAE2
:105C50007D20000100F0B0FAB8E00000506C6561F2
:105C6000736520636F6E6E65637420746865204988
:105C70004E50555420746F2067726F756E640D0A14
:105C8000000000004941524D533A000025582000C1
:105C90000D0A00004942524D533A000055524D53EF
:105CA0003A0000004961726D73313A25642C204935
:105CB00062726D73313A25642C2055726D73313ADE
:105CC00025640D0A000000005761697420666F7238
:105CD0002032207365636F6E64732E2E2E0D0A00C2
:105CE0005265616420616761696E0D0A0000000001
:105CF0004961726D73323A25642C204962726D736A
:105D0000323A25642C2055726D73323A25640D0A9F
:105D10000000000044434941482063616C6962729D
:105D20006174696F6E20737563636573730D0A0028
:105D300043616C6962726174652044434941482043
:105D40006167696E0D0A00007E4961726D73313AB8
:105D500025640D0A00000000446F206E6F74696EA8
:105D600067206F6E2044434941482121210D0A00DC
:105D7000444355482063616C6962726174696F6E57
:105D800020737563636573730D0A000043616C696A
:105D900062726174652044435548206167696E0DE5
:105DA0000A0000007E55726D73313A25640D0A00B9
:105DB000446F206E6F74696E67206F6E2044435588
:105DC000482121210D0A000070D7000833A006F0F9
:105DD00073FC002503AA04A9222004F06FF900280F
:105DE0001CD0354806F068FC002406E03248315DDE
:105DF000083006F061FC641CE4B26846007B844213
:105E0000F4D32EA006F058FC6946087C497C0004B7
:105E1000090208436946897C0843C7190A2000F033
:105E2000CBF904F0A1F96D1CEDB20A2DD2D30A21F1
:105E30003846FEF75DF94043FEF78AFC0022204B0E
:105E4000FEF7D2FBFEF7B4FC8E216A46C043117008
:105E5000010A517090700321684605F0ADF819A051
:105E600006F02AFC04F080F91E4800F0A5F904F0C1
:105E70007BF91DA006F020FC00F06EF81FA006F0D4
:105E80001BFC04F017FF24A006F016FC00F052F8EB
:105E90002749012008700DB0F0BD0000524D53207D
:105EA0004F46465345542063616C69627261696F65
:105EB0006E2E0D0A00000000845C00080D0A000030
:105EC00000007040506C65617365206769766520DD
:105ED00061207374616E6461726420696E707574A0
:105EE0000D0A0000282300004741494E2063616CE1
:105EF00069627261696F6E2E0D0A000053617665EA
:105F00002063616C69627261696F6E207061726199
:105F10006D732E0D0A00000052756E2074686520A6
:105F200070726F6772616D2E2E2E0D0A00000000D8
:105F30006C00002010B50649064805F0DDFC7D2107
:105F40000901044805F056FD024805F05BFD10BD4F
:105F500075970008C4000020F0B5002087B00090BD
:105F600001900290039004900646059006AA6946A7
:105F7000262004F0A3F800281ED037A006F09CFBD2
:105F8000002506E06846415D36A006F095FB6D1CD5
:105F9000EDB26846007E8542F4D333A006F08CFB58
:105FA0006A4610789178020611436A4652780004D6
:105FB000120210430143CF190A2000F0FDF8761CAD
:105FC000F6B20A2ED2D30A213846FEF791F80125FF
:105FD000ED07FEF7BDFB254A254BFEF79DFA254E42
:105FE00000223346FEF78AFA00223346FEF7FCFA17
:105FF000FEF738FC7F210646C905FEF707F9014682
:1060000030466840FEF798F9290A1B4D884206DBA6
:10601000FEF7ECFB00222B46FEF77EFA0DE0FF2197
:10602000C905C8420CD3FEF7E1FB00222B46FEF760
:1060300073FA0022114BFEF7BDF9FEF7B9FB84B2EB
:10604000852069460873200A48738C73032103A8CE
:1060500004F0B2FF07B0F0BD506F77657250413A5F
:1060600000000000255820000D0A0000C3893E5F93
:1060700099EA003F00805F400000E0400000F040EF
:106080007FB500F05BF8EA2469460C70FA2048708E
:106090000221684604F090FF69460C70E5204870C4
:1060A0000221684604F088FF8020694608700020BD
:1060B0004870032088700146684604F07DFF812007
:1060C0006946087040204870632088700321684644
:1060D00004F072FF8220694608705A204870CF2071
:1060E00088700321684604F067FF03AA69467F2091
:1060F00003F0E4FF002812D00AA006F0DDFA002425
:106100006D4605E0295D0BA006F0D6FA641CE4B2EA
:106110006846007B8442F5D307A006F0CDFA00F074
:10612000E9FB7FBD4463526E383230782049443AEF
:1061300000000000255820000D0A00007CB51B4817
:10614000826A0121C9040A438262826A8A438262A6
:10615000826B0A438263062501240023022219462A
:1061600013480195009400F029FE114800230222F3
:1061700001210C300195009400F020FE0C480D49DF
:10618000703801604B218901416021038160002149
:10619000A202C160026181610C21416102F0ECFC4C
:1061A0000348703802F0B2FD7CBD000000100240D0
:1061B00010130020004C004010B501F0B3F910BDE1
:1061C000104B10B52A241A461C5F083A51788442B5
:1061D0000FDA203B987801430AD1012098701070A3
:1061E00050700949094805F005FC084805F00AFC0B
:1061F00010BD0229FCD199780020072900D19870A0
:10620000507010BD90000020DC050000C01300207D
:10621000F8B503F02DFA2E4E002534461834B0712F
:10622000217827460837002935D02A22BA5E8242D3
:1062300026DA03291AD3257000F01EFA30704008C0
:106240007070401E092801D20A207070707804F026
:10625000FBFE2049204805F0CDFB1F4805F0D2FB8E
:106260001EA006F029FA0720B870F8BD20A006F09D
:1062700023FA2078401C2070174805F0C3FBF8BDB6
:10628000B57065702570144805F0EEFB217818A0F4
:1062900006F012FAF8BD2A21795E81420EDA00F08A
:1062A000EBF940087070401E092801D20A20707076
:1062B000707804F0C9FE0220607004E0B878072806
:1062C00000D1BD706570044805F0CEFBB570F8BD17
:1062D00070000020A0BB0D00C01300204661756C4B
:1062E000743A4472697665722074656D700D0A00A7
:1062F0004472697665722074656D70206170706596
:1063000061723A25640D0A0010B504F04FFC0120BB
:1063100001F000FA022001F0FDF910BD10B504F003
:1063200045FC042001F0F6F9082001F0F3F910BD56
:1063300010B504F03BFC102001F0ECF9202001F036
:10634000E9F9402001F0E6F9802001F0E3F9FF20AF
:10635000013001F0DFF90120400201F0DBF90120FA
:10636000800201F0D7F90120C00201F0D3F9012029
:10637000000301F0CFF90120400301F0CBF9012027
:10638000800301F0C7F90120C00301F0C3F910BD7B
:106390007CB500200A4D0A4C009080350190012206
:1063A0006946204603F0C4FE0098002803D001216E
:1063B000204600F007F8241DAC42F0D37CBD00005D
:1063C000200A0808F8B50F460446012601F0FEF839
:1063D000002506E0A800001901F0B0F80C4908708B
:1063E0006D1CBD42F6D300200A4907E02268002A4E
:1063F00000D000268C4200D2241D401CB842F5D3A8
:1064000001F0B0F8002E01D00120F8BD0020F8BD49
:1064100038000020FF0F080810B5074900234B6122
:1064200006494A684C1522434A604A6808242243B8
:106430004A60036010BD0000F80E002000200240FA
:106440001A498869C2051A4803D5426908231A43C4
:1064500042618A69920503D5426904231A43426165
:106460008A69520503D5426902231A4342618A6947
:10647000120503D5426910231A4342618A699204C6
:1064800003D5426901231A4342618A69920303D505
:10649000426920231A4342618A69D20303D54269C3
:1064A00040231A434261034888617047002002403C
:1064B000F80E0020002F030070B5044601F0ECF93F
:1064C00005461C4E0AE0601C08D0002C04D001F0E8
:1064D000E3F9401BA04201D9032070BDB069C0435D
:1064E000C007F0D0B069800701D50220B061B06963
:1064F000C043C00517D5B069C043800513D5B06946
:10650000C04340050FD5B069C04300050BD5B06945
:10651000C043800407D5B069C043800303D5B06988
:10652000C043C00303D4FFF78BFF012070BD0020E0
:1065300070BD00000020024070B52749274805F0D3
:10654000DBF97D24E4002146244805F053FA234872
:106550002349143005F0D0F9224D20482946143043
:1065600005F048FA1D482049283005F0C5F91B48B8
:106570002946283005F03EFA18481C493C3005F001
:10658000BBF9164821463C3005F034FA1348184947
:10659000503005F0B1F911482946503005F02AFA7B
:1065A0000E481449643005F0A7F90C4829466430B8
:1065B00005F020FA09481049783005F09DF90748A0
:1065C0002946783005F016FA04480C498C3005F05D
:1065D00093F902F04BFF70BDA14E00085C13002040
:1065E000FD4B000888130000054D0008ED5700081A
:1065F000495600081162000805930008016600086A
:1066000010B5034805F030FA02490120C87110BDE9
:10661000E8130020700000200023038043804160C5
:106620000281704710B50A460189501CFDF760FDD4
:1066300088B210BD70B504460188FFF7F3FF6168AA
:106640000D5C21882046FFF7EDFF2080284670BDB5
:1066500070B50D4604464188FFF7E4FF608061682D
:106660000D5470BD0348C078002801D00020704749
:1066700001207047000000200148007970470000A9
:10668000B0100020F0B59BB00025482105A803F00C
:106690009DFC61A006F010F8002405AE315D60A0FD
:1066A00006F00AF8641CE4B2482CF7D35EA006F0AA
:1066B00003F8482105A8FEF707FF002825D000248D
:1066C00017AF2046803010A90877072C15D0082C6A
:1066D00013D07119781C022206F004FD781C0221E7
:1066E000FEF756FF0321AD1CEDB217A804F038FCED
:1066F000641CE4B2172CE4D90AE07119781C012259
:1067000006F0F0FC02216D1CEEE748A005F0D4FF76
:10671000812010A908770020487703208877014658
:1067200017A804F01DFC14A80130FDF765FD10A9A1
:10673000097C00020843FDF7F7FF454D00222B4678
:10674000FDF752FF434C00222346FDF74DFFFEF7B5
:1067500089F8064615A80130FDF74EFD10A9097D00
:1067600000020843FDF7E0FF00222B46FDF73CFF47
:1067700000222346FDF738FFFEF774F8054616A8F9
:106780000130FDF739FD10A9097E00020843FDF72D
:10679000CBFF0022304BFDF727FFFEF763F80446DE
:1067A00010A94F897000000E2AD06800000E27D073
:1067B0006000000E24D0002F22D028A005F07CFF1E
:1067C0003048C6618561446207852046FEF70EF8B1
:1067D000009001912846FEF709F804460D46304620
:1067E000FEF704F80246019B009803930290049779
:1067F000019500940B4624A005F05EFF1BB0F0BD90
:10680000294E2A4D2A482B49FEF72CF804467D27AD
:10681000FF0029A0D2E70000466C6173683A0000CF
:10682000252E3258200000000D0A000057726974AE
:1068300065207265676973746572206661696C654D
:10684000642066726F6D20666C6173680D0A0000CB
:106850000000604100408F400000E04143616C69EE
:1068600062726174696F6E206461746120696E2068
:10687000666C6173682069732076616C69640D0AC7
:10688000000000000C1000206B69613A25662C2086
:106890006B753A25662C206B70703A25662C206546
:1068A000633A25640D0A00004FCD7836A76D433951
:1068B00021DD7DBDD98EE73E43616C6962726174F2
:1068C000696F6E206461746120696E20666C61730B
:1068D0006820697320696E76616C69642E20557337
:1068E000652064656661756C742076616C75652ED3
:1068F0000D0A0000F0B589B02821454803F082FB5D
:10690000434C207888285DD1607888285AD1A089A6
:10691000002857D000221346E169A069FDF77AFFED
:1069200050D0256A6800000E4CD020694100090E45
:1069300048D0FDF75BFF06460F462846FDF756FF99
:10694000A2896B460492C3C33248E369A26905F089
:10695000B3FE932069460875A0784875E07888757D
:10696000032105A804F028FB9520694608752079C5
:10697000487560798875032105A804F01DFB9620F1
:1069800069460875A0794875E0798875032105A8DE
:1069900004F012FB8E2069460875207A4875607AEB
:1069A0008875032105A804F007FB85206946087552
:1069B000A07A4875E07A8875032105A804F0FCFAEE
:1069C00009B0F0BD7D20C000A0811449E1611248EA
:1069D000A06113481349FDF745FF2062124820616A
:1069E000124805F069FE2069FDF700FF06460D46D6
:1069F000206AFDF7FBFE0246A089049002960395EB
:106A0000009201910AA0E369A26905F055FED7E75B
:106A100028130020B4D70008580DAEC4627EBF3ED4
:106A2000C3893E5F99EA003F960A43382CD7000895
:106A30004B69613D252E386C662C204B70703D25CE
:106A4000662C204B753D25662C2045633D25640D45
:106A50000A00000070B586B0044605AA69462220E7
:106A600003F02CFB264D002818D068460078060459
:106A70006846407800020643684680780643304600
:106A8000FDF766FEEB69AA69FDF746FD00221D4B86
:106A9000FDF742FDFDF78CFEA661206005AA694660
:106AA000242003F00BFB002811D068460078060470
:106AB00068464078000206436846807806433046C0
:106AC000FDF72BFE2969FDF7FAFBE661606005AA78
:106AD0006946262003F0F2FA00280ED00098694695
:106AE00000BA000AC9780002084300D54042FDF709
:106AF00009FE296AFDF7E3FBA060012006B070BD26
:106B00002813002000408F40F0B50446002089B0D3
:106B10000590069007460546079008AA6946222078
:106B200003F0A2FA00280DD06946087849780004DD
:106B30000902084369468978AA00084305A97F1C11
:106B40008850FFB26D1CEDB2032DE6D3734E022FB9
:106B50000FD3032105A8FEF70FFC0698FDF7DDFD16
:106B6000F169FDF7ACFB6E49FDF7A9FBFDF70CFEE3
:106B7000208000200590069007460546079008AA49
:106B80006946242003F070FA00280DD06946087881
:106B9000497800040902084369468978AA00084335
:106BA00005A97F1C8850FFB26D1CEDB2032DE6D302
:106BB000022F0AD3032105A8FEF7DEFB0698FDF796
:106BC000ACFDB169FDF77BFB60600020059006908D
:106BD00007460546079008AA6946262003F044FAAE
:106BE00000280BD00098694600BA000AC978000254
:106BF0000843AA0005A97F1C8850FFB26D1CEDB2A6
:106C0000032DE8D3022F0DD3032105A8FEF7B4FB13
:106C10000698002800DA4042FDF774FD716AFDF71E
:106C20004EFBA060002005900690074605460790A1
:106C300008AA6946292003F017FA00280DD06946F2
:106C40000878497800040902084369468978AA004F
:106C5000084305A97F1C8850FFB26D1CEDB2032DBF
:106C6000E6D3022F2CD3032105A8FEF785FB2D4A7E
:106C700006989168884202D21088401C10800698BD
:106C8000906011880B06591A0D185560308DFDF76C
:106C90005FFD06460F462846FDF75AFD32463B4645
:106CA000FDF7A2FC05461D480E4630384069FDF749
:106CB0009DFD2A463346FDF77DFBFDF7D3FD2061A0
:106CC0002788002F26D060684100090E22D0FDF7EA
:106CD0008DFD05460E463846FDF73AFD0022124B63
:106CE000FDF782FC2A463346FDF716FC05460E46A4
:106CF000A068FDF77BFD2A463346FDF775FCFDF7DE
:106D0000B1FD7F21C905E060884200DDE16001201E
:106D100009B0F0BD0020E060F9E700000C10002091
:106D200000007A444800002000408F4010B504461F
:106D300003F084F9FDF70CFD0022034BFDF754FC32
:106D4000FDF790FD606110BD00408F400EB50FA1B2
:106D50001148FDF748FA11A16846FDF744FA0E48BC
:106D60000F2210A10F30FDF71DFA0B4869461E30A7
:106D7000FDF7F8F96846FDF722FA07490F31401888
:106D800008A10F300F31FDF72EFA0EBD4E4F5F52A6
:106D90006567696F6E000000100F0020307E313093
:106DA0005F000000454D4C4C435F4331315F43541D
:106DB000524C5F56312E302E300000007CB50E1143
:106DC000069D079C062E03D80095019400F002F85A
:106DD0007CBD0000F0B587B00D9D04460170481CD5
:106DE00058D00F0701263F0F3046B8406080080694
:106DF0002949070F07D0000F01280FD0022812D011
:106E0000032815D01DE0052000076060C86A3043E4
:106E1000C862C86AC007C00F059012E01F486060D2
:106E2000CF6A022008E01E486060CF6A042003E0B9
:106E30001C486060CF6A08200743CF62C96A0140DE
:106E40000591608800900C98A07202900220039037
:106E5000002A09D0032A09D0022A0AD0012B0ED019
:106E60000196012A0ED011E0002000E003200190DD
:106E70000CE0012B00D112200495019006E01120B6
:106E80000190EEE72946204600F00EF8694660685A
:106E900000F04CFC07B0F0BD0010024000040050B0
:106EA00000080050000C005010B500228256521C01
:106EB00004D0CAB24188406800F0E8FC10BD10B5AB
:106EC000002282561211062A01D8FFF7EDFF10BDED
:106ED000F8B5054604464035287D0026012808D02F
:106EE00001202875206881688907890F01290ED142
:106EF00001E00220F8BD0168C90708D0A06D20217B
:106F00000843A0650126002028753046F8BDA16D14
:106F1000FF220132914302221143A1658168920749
:106F20001143816000F0B8FC07460EE000F0B4FCAD
:106F3000C01B0A2809D9A06D0221884310210843EB
:106F4000A065002028750120F8BD20688068002811
:106F5000ECDBA06D80088000401CA065D3E700003A
:106F6000F8B505460C464035297D01290DD0012193
:106F7000297501688A68520709D5816D202211435D
:106F80008165002028750120F8BD0220F8BD174B4F
:106F90006268D80547109A42154E8A6A236812D053
:106FA0005B035B0B1A438A622168490305D5B1680C
:106FB0000143B1600A20FDF7E7FF2068800312D586
:106FC000B06838430EE05B035B0B9A438A6221682A
:106FD000490302D5B1688143B1602068800302D5BE
:106FE000B068B843B06000202875F8BD01100000FB
:106FF0000027014070B5040043D0A06D0221084372
:10700000A0652046FDF796FF0026054600283AD0E9
:10701000012D32D0206841681F4A1140416021682B
:10702000D043086020688168012212079143816083
:107030002068C168194A1140C16020680169184A76
:107040001140016120684169C908C9004161206897
:10705000016A144A1140016220688030416BC909FD
:10706000C901416320688030416BC909C90141638E
:10707000204600F0FFF8E665A665403426752846F0
:1070800070BD012070BD2046FDF790FF0546012828
:10709000F3D00120A065BDE760F7FFFF00023E834B
:1070A00002FCFF3F00F000F00068006C7047000039
:1070B00070B5040006D0A06D254600264035002896
:1070C00002D006E0012070BDE6652E75204600F076
:1070D000D2F8A06DC00603D420688168490705D5A1
:1070E000A06D10210843A0652E75EBE7A16DFF226E
:1070F0000132914302221143A16581685B4A8907ED
:10710000890F012902D10168C9072BD103236169C5
:107110009B07994205D05B42994202D05B0099429D
:1071200009D10169890089080161206801696369E1
:10713000194301610CE001698900890801619068C7
:107140000F218904884390609068616908439060CA
:107150002068C16818239943C1602068C168A36989
:107160001943C16090680121490688439060906886
:10717000A16C49060843906020688168C90004D466
:10718000816801221207114381602068C168384A72
:107190001140C160206A616A022823D000200143A7
:1071A000A06AA26B4003520010430143206C0143CC
:1071B000606C80030143E06CC00301432068C26837
:1071C0001143C160206B0146FF39C23905D0616BA4
:1071D00008432168CA681043C860E06A0121012899
:1071E00002D00BE00420DAE7A06A002823D0A06DCB
:1071F00020221043A065E06D0843E0656068012827
:1072000020681FD00169C90703D0016949084900F6
:10721000016120684169C908C9004161206841696C
:10722000E26911434161E665A06D80088000401C61
:10723000A065002070BD2068C26801231B041A43AA
:10724000C260DBE70269FF239B009A43026120686A
:107250000269A36825691A43E3682B431A43026154
:10726000206802690A430261D3E700000027014059
