:020000040800F2
:10000000B8260020D5000008511900087516000810
:1000100000000000000000000000000000000000E0
:10002000000000000000000000000000251B000888
:10003000000000000000000099190008251E0008BB
:10004000E7000008E7000008E7000008E7000008F4
:10005000E7000008E7000008E7000008E7000008E4
:10006000E7000008E7000008E7000008E7000008D4
:10007000E7000008E7000008E7000008E7000008C4
:10008000E7000008E7000008E700000800000000A3
:10009000E7000008E7000008E7000008E7000008A4
:1000A000E7000008E7000008E7000008E700000894
:1000B000E7000008E7000008E7000008E700000884
:1000C0000348854600F086F8004800471D280008D0
:1000D000B82600200448804704480047FEE7FEE7B2
:1000E000FEE7FEE7FEE7FEE7BD1E0008C1000008D0
:1000F00030B50B46014600202022012409E00D46C0
:10010000D5409D4205D31D469540491B2546954047
:1001100040191546521E002DF1DC30BDF0B51FB45C
:100120000646002082B005464024019100901BE065
:10013000019922460F46304600F03AF8049A059B92
:10014000801A994110D310461946224600F020F833
:10015000361A8F410197224601200021009F00F0AE
:1001600017F838184D4100902046641E0028DFDC47
:10017000019B00982946324607B0F0BD0321001DBF
:10018000401E037812021A43491EF9D510467047E3
:1001900010B5202A04DB0146203A9140002010BD12
:1001A000914020239C1A0346E3401943904010BD20
:1001B00010B5202A04DB0846203AD040002110BDAB
:1001C0000B46D340D0402024A21A91400843194640
:1001D00010BD0000064C0125064E05E0E36807CC83
:1001E0002B430C3C98471034B442F7D3FFF76CFF15
:1001F000CC280008FC28000803B40148019001BD88
:10020000F1000020F7B5002416460546570809E01E
:100210000198A1000818FFF7B1FF1021C841296813
:100220000860641CA742F3D8F00704D00198A1002D
:10023000405A2968088028680068FEBDFEB505465A
:100240000024900816460F4601900EE0A000C01949
:100250000090FFF793FF00BA010A00980902C078E6
:100260000143286801600198641CA042EED8B007E1
:1002700021D0B007800F012803D1A1002A68795C42
:100280001170022808D1A000C1194878097800022D
:100290000843296840BA0880F04380070BD1A000CA
:1002A000C01941780278090211432A6849BA1180BD
:1002B00029688078087028680068FEBDF7B5FFB02F
:1002C0000446FFB00020012584B0AD021646AF08F9
:1002D00000901CE004CC8300CA50401C8742F9D82F
:1002E000FFA83A46006900F045F8002805D0032031
:1002F00000907FB07FB007B0F0BD2021074800F02C
:10030000EBFAFFA800694119FFA8761B0161002ED6
:1003100002D0002001A9E1E70098EAE700080050B8
:100320007FB500260D460446009600F0F5F90196CB
:100330000294AC420AD2281BC0090390694601A866
:1003400000F086F9002801D00120009000F0BCF9EF
:10035000009804B070BD000010B500F0DDF904494C
:100360000248886100F0B0F910BD0000002F0300C2
:1003700000200240F8B517460C460646002500F05E
:10038000CBF9B800071915E021463046FFF734FFD6
:10039000002801D003250FE08100725861588A427D
:1003A00001D0022502E0401C1028F5D3403440362D
:1003B000002D01D1A742E7D800F086F92846F8BD04
:1003C00010B5084900224A6107494B684C15234380
:1003D0004B604B68082423434B60C009C001026096
:1003E00010BD0000A00600200020024010B5214AE8
:1003F00000219069C305204804D5416902231943AF
:100400004161911593699B0505D5436901242343F7
:1004100043616302194393695B0505D54369082469
:1004200023434361E301194393691B0505D54369E0
:100430000424234343616302194393699B0405D554
:1004400043691024234343616302194393699B0367
:1004500004D5446920231C43446119439369DB0399
:1004600005D54369402423434361A00201439161C0
:1004700010BD000000200240A006002070B5054617
:1004800000F034FA0646184C0AE0681C08D0002D2B
:1004900004D000F02BFA801BA84201D9032070BDC4
:1004A000A069C007F1D1A069800701D50220A06131
:1004B000A069C00511D4A06980050ED4A0694005CB
:1004C0000BD4A069000508D4A069800405D4A069F4
:1004D000800302D4A069C00303D5FFF787FF012082
:1004E00070BD002070BD00000020024030B51F2309
:1004F00001252C469C400C4201D15B1EF9D2002AFA
:100500000FD0082A09D0102A04D0182A09D1072BA5
:1005100005D206E0082B02D203E0102B01D3012004
:1005200030BD0368596101688868182398431043F7
:100530008860002030BDF8B504460020257F0346C2
:10054000012D0FD001252577022666772668B7682A
:100550002F43B760266A012E10D0022E12D0032E30
:1005600014D106E00220F8BD83002668CB58336022
:10057000401C9042F8D32068036807E02046FFF74C
:100580005DFE02E02046FFF73DFE03466577002052
:1005900020771846F8BD000010B5040012D0607F27
:1005A000002803D12077204600F034F8022060773D
:1005B0002079002808D02046E268A168FFF796FF5E
:1005C000002809D0012010BD216811484861206829
:1005D00081681822914381606079002814D02069D5
:1005E000216808612168886860229043626910432D
:1005F00088602168886880229043A26910438860DF
:1006000001206077002010BD0020C043E8E7000013
:10061000B71DC10408B500680549884207D10548DF
:10062000026B81140A430263006B0840009008BD0E
:10063000003002400010024031B500F057F9044686
:1006400000F054F90099001B8842F9D338BD00002E
:10065000F8B51A4E0546307C0F46012807D0012018
:1006600030741748FFF70AFF010002D021E0022092
:10067000F8BD0020C04338606C6814E02046FFF7E6
:100680009FFE0F48FFF7FAFE01460E484268082316
:100690009A434260426843159A434260002901D060
:1006A0003C6006E08034A8686A68C0018018A042F7
:1006B000E4D8002030740846F8BD0000A0060020F1
:1006C00050C3000000200240034841680222114349
:1006D000416000207047000000200240F8B50C4C3B
:1006E0001646207C0F46012808D0012020740948B6
:1006F000FFF7C4FE0025002802D006E00220F8BD66
:1007000065613E600348FFF7B9FE2574F8BD00003F
:10071000A006002050C300000948416889070CD595
:100720004168C90703D00749C1600749C16007494B
:1007300001610749016100207047012070470000F6
:1007400000200240EFCDAB8905040302BFAE9D8CB3
:1007500016151413F8B500230124A7E027469F407F
:100760003A4070D04D68022D01D0122D14D1DD0811
:10077000AD002D1800952D6A5E07AC46F50E0F26CC
:10078000AE46AE406546B543AC460E697546AE40D2
:1007900065462E43009D2E624D68012D05D0022D29
:1007A00003D0112D01D0122D16D185680326AC4639
:1007B0005D00AE46AE406546B543AC46CE68754674
:1007C000AE4065462E43866046680D79BE43ED0611
:1007D000ED0F9D403543456006685F000325BD4031
:1007E000AE46AE430D79B446AE07B60FBE40654681
:1007F0002E430660C6687546AE438D68BD403543DE
:10080000C5604D68ED0050D52B4D6E6B26436E6371
:100810009E082A4DB6007519AC46AD689E07360F86
:100820000F27B740BD4305273F07B84201D1002736
:100830001AE0234FB84201D1012715E0214FB842F9
:1008400002D1022710E030E01F4FB84201D1032748
:100850000AE01E4FB84201D1042705E01C4FB84200
:1008600001D1052700E00627B7402F436546AF605A
:10087000184D2E684F689643FF0300D516432E602F
:100880006E684F689643BF0300D516436E60AE682E
:100890004F689643FF0200D51643AE60EE684F687E
:1008A0009643BF0200D51643EE605B1C0A681546EE
:1008B000DD4000D052E7F8BD0010024000000140CA
:1008C0000004005000080050000C005000100050C0
:1008D000001C00500004014042694A4042617047D8
:1008E000002A01D081617047816270470148006829
:1008F000704700004C01002002480168491C01605B
:10090000704700004C01002010B506480168022223
:1009100011430160032000F007F800F019F80020EF
:1009200010BD00000020024010B5044607487D219C
:10093000C9000068FFF7DCFB00F032FD0022214611
:10094000501E00F021F8002010BD000050010020D2
:1009500010B50C48416B012211434163816B0204C5
:100960001143816300221146501F00F00DF8002250
:100970001146901E00F008F800221146501E00F0AB
:1009800003F810BD0010024010B500F0E3FF10BDE9
:10099000F8B5684C074601210020C903644E654A3A
:1009A0004034102F73D011DC012F75D0022F70D07E
:1009B000042F6FD0082F21D1E16803231B031940B6
:1009C00069D0BC026310A1427AD09EE003255A4B45
:1009D0002D04202F08D0402F32D0FF3F7F1E6BD038
:1009E00007263602B74209D12669246901272C401F
:1009F0003F04BC4203D1B2055AE00846F8BD0121CC
:100A000049048C4203D1B107F8D54C48F8BDAC423B
:100A1000FCD111688903F9D5106803210905084044
:100A200001210905401A09D0401A05D0884201D198
:100A30004348F8BD1846F8BD4248F8BD4248F8BDE5
:100A4000E1680124A406214006D0A142F7D19168B3
:100A50008907F4D53D48F8BD11688901FBD5D068F8
:100A6000D16880023A4C000F245C0802810FD068E4
:100A7000491CC00306D41068C00601D5184602E020
:100A8000304600E033486043FFF732FBF8BD3FE0FB
:100A900002E01DE02AE026E0E3689B079B0F0CD0F4
:100AA000022B0DD0012B10D0032BEFD12269920520
:100AB000002AA2DBEAE703E02EE000F0EDF9E5E72B
:100AC00011684907E2D53046E0E700F0F5F9DDE7C7
:100AD000E3680C252B4006D0082BF1D0042BF4D072
:100AE0000C2BE3D0D2E700F0C7F9CFE7E36803258A
:100AF000AD022B40F7D00127FF02BB42E0D07A10B5
:100B00009342E2D0AB42D1D0C0E79942DDD0BDE7FD
:100B1000916B4902E7D4B9E7E1682940E3D00123AA
:100B20005B049942CCD05A109142CED0AEE700007F
:100B30000024F4000010024000093D0088900000ED
:100B400020A1070040420F0080841E00006CDC02E0
:100B5000B828000800127A00F8B504460068664D0F
:100B6000810601D400057DD5634E0027403EB06B61
:100B7000C00004D4B06B31040843B06301275F4860
:100B80000168C90511D40168821511430160FFF79E
:100B9000ADFE009005E0FFF7A9FE0099401A642819
:100BA00044D856480068C005F5D5316803200005D3
:100BB000626801401040884205D10323A0681B05EC
:100BC0001840884208D09003800F032804D1306871
:100BD000800301D50120F8BD2869032109040840DC
:100BE00029D00A40824202D02278920606D4A26816
:100BF0000A4082421FD0208800051CD528692A6936
:100C000088430121C9040A432A612A698A432A6167
:100C10002861C0050FD5FFF769FE009008E0FFF7D7
:100C200065FE0099411A3648814201D90320F8BD7A
:100C300028698005F3D561688803800F032805D1F2
:100C400032680005824301400A433260286903226A
:100C500061681204114008432861002F06D0B06B70
:100C6000012100E002E009078843B0632078C00753
:100C700005D0E868E168800880000843E8602078D3
:100C8000800705D5E8680C21884321690843E8609E
:100C90002078400706D5E868032189028843616906
:100CA0000843E8602078000706D5E86803210903B7
:100CB0008843A1690843E8602088C00506D5E86834
:100CC000032109048843E1690843E860207840066D
:100CD00006D5E868012189068843616A0843E8600F
:100CE0002078000606D5E868032189048843216A34
:100CF0000843E8600020F8BD40100240007000404A
:100D000088130000F8B5054653480E460068C00732
:100D1000C00FB0420AD25048016849084900314327
:100D200001600068C007C00FB0426FD128784B4CFB
:100D3000800705D5E068F0218843A9680843E06092
:100D40002878C00752D06868022817D0032818D026
:100D50002168012818D08905002957DAE168890837
:100D600089000143E160FFF7C1FD69680746022978
:100D700012D003291CD0012926D033E02168890331
:100D8000EAE721688901E7E74907E5E7FFF7AEFDF4
:100D9000C11B3348814223D8E0680007800F022836
:100DA000F4D123E0FFF7A2FDC11B2D48814217D8E3
:100DB000E0680007800F0328F4D117E0FFF796FDE5
:100DC000C11B274881420BD8E0680007800F01282B
:100DD000F4D10BE0FFF78AFDC11B2148814201D904
:100DE0000320F8BDE0680007800FF3D11A480168BE
:100DF000C907C90FB1420BD90168490849003143FD
:100E000001600068C007C00FB04201D00120F8BDEA
:100E10002878400706D5E068072109028843E96879
:100E20000843E0602878000707D5E0680721C90279
:100E300088432969C9000843E06000F03DF8E16893
:100E4000084A0906090F515CC84007490860032099
:100E5000FFF76AFD0020F8BD0020024000100240AC
:100E600088130000A82800085001002001480068ED
:100E70007047000050010020044805490068C96817
:100E8000044A4905490F515CC84070475001002091
:100E900000100240C1280008044805490068C968DC
:100EA000044A8904490F515CC84070475001002032
:100EB00000100240C128000810B5184AD1680C2063
:100EC000084004280BD0082810D00C2810D05068F7
:100ED0000004410F0120C003491C884010BD106868
:100EE000C00601D50E4810BD0E4810BD0E4810BDFD
:100EF00088020E4B000F185C0902D368890F491C49
:100F0000DB0301D5084A05E01268D20601D5044A80
:100F100000E0044A5043FFF7EBF810BD0010024018
:100F200000093D000024F40000127A00B8280008EF
:100F3000F8B504460078FE4DC0074AD0E8680007BF
:100F4000800F022807D0E8680007800F032809D126
:100F5000E868C00306D5286880033AD56068002891
:100F600073D036E0012062680004824203D1296810
:100F70000143296011E0052301211B0489049A42E1
:100F80002A6802D10A432A60F1E782432A602A686C
:100F900002400092286888432860606800280CD0CE
:100FA000FFF7A4FC064604E0FFF7A0FC801B6428C2
:100FB0007ED828688003F7D50BE0FFF797FC06463C
:100FC00004E0FFF793FC801B6428F1D828688003B5
:100FD000F7D42078800741D5E8681F270007800FE5
:100FE0003F02012807D0E8680007800F032809D1D5
:100FF000E868C00306D42868400717D5E0680128D0
:1010000023D113E0E068002817D029680922914312
:1010100001432960FFF76AFC064604E0FFF766FC1F
:10102000801B0228C4D828684007F7D56868216962
:10103000B84309020843686010E02868400840008F
:101040002860FFF753FC064605E095E0FFF74EFCED
:10105000801B0228ACD828684007F7D42078C00647
:1010600072D5E868B34E0007800F0AD0E069002807
:101070002868B1495AD008432860FFF737FC074673
:1010800044E02868800502D5E069002874D0606AD1
:1010900069683140884212D900F080FC0028AFD145
:1010A0006868616AB043084368606868000200E0ED
:1010B000DCE0218C000A0906084368600FE06968DB
:1010C000B143014369606868218C0002000A090687
:1010D00008436860606A00F061FC002890D1606A93
:1010E000410B0120C003491C8840E96809060A0F2A
:1010F0009249895CC840924908600320FFF714FCBC
:1011000022E0FFF7F3FBC01B02288BD8286880057C
:10111000F7D56868616AB043084368606868218CE5
:101120000002000A0906084368600DE08843286051
:10113000FFF7DCFB064604E0FFF7D8FB801B022824
:1011400088D828688005F7D420787E4E000723D5FC
:1011500060690028306910D0012108433061FFF731
:10116000C5FB074604E0FFF7C1FBC01B02287DD882
:1011700030698007F7D50FE001E140084000306199
:10118000FFF7B4FB074604E0FFF7B0FBC01B0228E3
:101190006CD830698007F7D42078400760D5A86BF9
:1011A0000027C00005D4A86B012109070843A863E4
:1011B000012765480168C90511D4016882151143EA
:1011C0000160FFF793FB009005E0FFF78FFB0099AC
:1011D000401A64284AD85C480068C005F5D55648CE
:1011E000A268824203D131690143316111E00121DA
:1011F0008902002A07D005231B029A4203D13269D3
:101200000A433261EFE732698243326130698843D1
:101210003061A06800280ED0FFF768FB009006E060
:10122000FFF764FB0099411A484881421ED8306993
:101230008005F5D50DE0FFF759FB009006E0FFF7BC
:1012400055FB0099411A414881420FD83069800509
:10125000F5D4002F04D0A96B012000078143A963B6
:101260002078800630D53A48421400E080E0A16939
:10127000002916D0AB6801210B43AB606B6B0B43AD
:101280006B63016A11430162FFF730FB064604E01D
:10129000FFF72CFB801B02286AD8A8688007F7D5C7
:1012A00012E0A96849084900A960016A91430162F6
:1012B000FFF71CFB064604E0FFF718FB801B022823
:1012C00056D8A8688007F7D4A06A002855D0E968E6
:1012D0000907890F032952D00126360602282868FB
:1012E00005D0B0432860FFF701FB044642E0B0435D
:1012F0002860FFF7FBFA074604E0FFF7F7FAC01B88
:10130000022835D828688001F7D4216BE06AEA68A2
:101310000843616BFD231B049A4311430843E860B3
:10132000286830432860FFF7E1FA044617E0000020
:101330000010024000E0000000010000A8280008A2
:10134000500100204010024000700040881300004F
:1013500000000140FFF7CAFA001B022808D82868DD
:101360008001F7D509E0FFF7C1FA001B022801D977
:101370000320F8BD28688001F5D40020F8BD0120C5
:10138000F8BD0000042204490428086902D09043F3
:10139000086170471043FBE700E000E07047000081
:1013A000094910B5401E884201D9012010BD074CE3
:1013B00060610321081F00F0CDFA0020A061072022
:1013C0002061002010BD0000FFFFFF0000E000E0F2
:1013D00010B5FFF7E3FF10BD70B5040005D025463A
:1013E0006035687A002802D006E0012070BD002038
:1013F0002872204600F026F82420687220680168D0
:10140000490849000160606A002802D0204600F0C7
:101410007FFD204600F012FE0128E7D020684168D9
:101420000922D20291434160206881682A229143B7
:10143000816020680168012211430160204600F0AC
:10144000CDFD70BD70B50268154E0520154902230B
:1014500003240425000786B0B24208D14A6B5E031C
:1014600032434A63610200910193002111E00E4E64
:10147000B24213D18E6A0122520416438E628E6AE2
:1014800096438E628E6B16438E630C2100910193FE
:10149000012102AA32C26946FFF75CF906B070BDAD
:1014A000003801400010024000440040FFB50746EC
:1014B00004466037B87A83B00E46202871D1002EDA
:1014C0000CD00598002809D00120A16800038142B2
:1014D00007D12069002804D1F00702D0012007B00D
:1014E000F0BD387A01285CD0012038720020E06617
:1014F0002220B872FFF7FAF9029025464035059888
:101500002883059868830122A0681203FF21904276
:1015100004D12069002815D123480AE07F22002841
:101520000BD001210907884204D12069002807D087
:101530003F20A883A88B019023E02069002801D0D8
:10154000AA83F7E7A983F5E7688B401E68830698AE
:101550000090002220212046029B00F087FE0028F8
:1015600001D00320BBE70120A1680003814202D122
:10157000206900280DD02068416A0198014031702F
:10158000761C688B0028DFD12020B87200203872CA
:10159000A5E72068406A019908403080B61CF0E752
:1015A000FFE702209BE70000FF010000FFB50646B1
:1015B00004466036707A83B00D46202858D1002D3D
:1015C0000CD00598002809D00120A16800038142B1
:1015D00007D12069002804D1E80702D0012007B014
:1015E000F0BD307A012843D0012030720020E0663F
:1015F00021207072FFF77AF901902746403705984D
:1016000038820598788218E0788A401E7882069899
:101610000090002280212046019B00F027FE002838
:1016200018D10120A1680003814202D1206900285D
:1016300012D02168287888626D1C788A0028E3D14E
:1016400006980090002240212046019B00F00EFEEB
:10165000002808D00320C2E728882168C005C00DF3
:101660008862AD1CE9E72020707200203072B6E776
:101670000220B4E7FEE7000007480168074A11406E
:10168000C203914207D14168054A51601160006868
:1016900080F3088808477047004000080000FE2FCC
:1016A00044010020F3B50024104F81B026462546A2
:1016B00039460298FEF71CFD019A30301055029110
:1016C0000A213846641CFEF713FD074601980019ED
:1016D0002038C07F302801D1002E04D0761C6D1C2C
:1016E0000A2DE5D3FEBD0024F9E7000000CA9A3BAD
:1016F00010B50D480B490160012101710B4A826050
:101700000822C2604171002202614261826101626D
:10171000FEF742FF002803D0482105A001F060F841
:1017200010BD0000003002405401002021100000D4
:101730002E2E2F5372632F6372632E6300000000FE
:1017400070B5194886B0C26A04210A43C262C26AEF
:101750000A400592C16A01252943C162C06A134E3D
:1017600028400590002220213046FFF7B9F82020BC
:101770000024009002946946019503943046FEF7D8
:10178000E9FF0294039405242E032407694600967A
:1017900001952046FEF7DEFF012231462046FFF785
:1017A0009FF806B070BD0000001002400008005015
:1017B00010B50D480B490160E1214902416000214B
:1017C0008160C16001618161C1610C22016242617D
:1017D0004162FFF701FE002803D0432103A000F07F
:1017E000FFFF10BD00380140780100202E2E2F533E
:1017F00072632F75736172742E63000010B50D480B
:101800000B4901604B21C901416000218160C16029
:1018100001618161C1610C22016242614162FFF795
:10182000DBFD002803D0562103A000F0D9FF10BD36
:1018300000440040E80100202E2E2F5372632F75C4
:10184000736172742E630000F8B52B4801682B4A4F
:101850002B4F91423AD12C4D2A492C462846FEF76F
:101860005FFD21460526294CB60332462046FEF789
:1018700025FD002807D026A000F02EFA24A000F0B5
:10188000D9F8FFF7F9FE264800F036FA25A000F057
:1018900023FA24A000F0CEF800F068F9002811D057
:1018A00024492046FEF73CFD324621462846FEF7F5
:1018B00005FD6420FEF7C0FE002220211E48FFF730
:1018C0000FF815E0384600F017FAF2E700681B49F8
:1018D00088420FD1384600F00FFA19A000F0FCF949
:1018E00017A000F0A7F800F09DF96420FEF7A4FE11
:1018F000FFF7C2FEF8BD0000003F00087856341222
:101900006824571300D00208009001080040000826
:101910004241434B5550204641494C45440D0A0035
:10192000571368242B444F574E4C4F41443A4F4B6A
:101930000D0A00000080010800080050214365875F
:101940002B55504C4F41443A4F4B0D0A00000000BC
:10195000704700008307FF22DB0E9A408907090EBB
:10196000994000280BDA0007000F08388308084860
:101970009B001818C36993430B43C36170478308E6
:1019800004489B001B181868904308431860704770
:1019900000ED00E000E400E07047000070B517497A
:1019A0000023CA681206120F18D18A6B154CD50095
:1019B000134A02D51268224009E08E6B01252D07DB
:1019C0002E438E6312688E6B2240AE438E63A2421A
:1019D00004D103218903884200D101230A48016808
:1019E00049084900194301600068C007C00F9842C8
:1019F00001D0012070BD002070BD00000010024029
:101A000000700040001800000020024070B5012462
:101A10000525064624032D07002221462846FEF709
:101A20005FFF304600F080F8012221462846FEF78D
:101A300057FF70BD70B501240525064624032D0708
:101A4000002221462846FEF74BFF304600F07EF884
:101A5000012221462846FEF743FF70BDF7B582B04C
:101A600000240C600F460646012269462B48049B61
:101A7000FFF71CFD050020D168460078182820D00B
:101A800006DC01280BD002280BD0042804D104E086
:101A9000412828D0612826D0012530700DE080240F
:101AA00001E00124A4023070221DB11C1B48049BDC
:101AB000FFF7FCFC050018D000243C60284605B068
:101AC000F0BD012269461548049BFFF7EFFC002892
:101AD00003D168460078182803D0684601250078AD
:101AE000DBE70224D9E70225D7E7F078B178FF22B7
:101AF000504081420ED130190179407909024018D5
:101B000001902246311D0648FEF715FD0146019859
:101B10008142D2D000240125CFE70000E801002057
:101B2000540100207047000001B50648417AA02901
:101B300001D1202141726423012269460248FFF746
:101B400035FD08BDD8010020E801002010B50022B5
:101B500001E0521C92B2815C0029FAD10146642353
:101B60000148FFF723FD10BDE801002038B5002033
:101B70000090684600F0ACFB04000DD0052C10D09E
:101B8000042C13D0022C16D00DA000F0A5F80CA048
:101B9000FFF750FF204638BD0EA000F09DF80DA0C5
:101BA000F6E711A000F098F80FA0F1E713A000F0FD
:101BB00093F812A0ECE716A000F08EF814A0E7E767
:101BC0002B444F574E4C4F41443A454D5054590DBC
:101BD0000A0000002B444F574E4C4F41443A535596
:101BE00043434553530D0A002B444F574E4C4F412E
:101BF000443A4C494D49540D0A0000002B444F57BC
:101C00004E4C4F41443A4641494C45440D0A000070
:101C10002B444F574E4C4F41443A41424F5254454A
:101C2000440D0A0008B50021684601704B1E0122D0
:101C300069460F48FFF73AFC68460078432815D1FB
:101C400003220120D2030BA1C00600F00DFC69465F
:101C50000870002804D00DA000F03EF80BA003E0AF
:101C60000FA000F039F80EA0FFF7E4FE08BD000059
:101C7000E80100204C305F4C6F52614D6163466952
:101C8000726D776172652E62696E00002B55504C43
:101C90004F41443A4641494C45440D0A000000007A
:101CA0002B55504C4F41443A535543434553530DE4
:101CB0000A00000001B50748417AA02901D120217E
:101CC000417204486423012269466038FFF76EFCC4
:101CD00008BD0000D801002010B5002201E0521C10
:101CE00092B2815C0029FAD1014664230148FFF7D2
:101CF0005DFC10BD780100207FB5002504460395EA
:101D0000FEF70AFD009501200C4D029003A90195F4
:101D10006846FEF79DFC002802D009A0FFF7DCFF13
:101D2000224629460220FEF7D9FC002802D00AA04C
:101D3000FFF7D2FFFEF7C8FC7FBD0000003F0008A0
:101D4000464C415348204572617365204661696C79
:101D50002E2E2E0D0A000000464C4153482057728B
:101D6000697465204661696C2E2E2E0D0A000000F4
:101D7000F0B5054600242B7820462246302B2CD186
:101D80006B78782B01D0582B27D102241AE01E46FD
:101D9000413E052E06D91F46613F052F02D9313736
:101DA000092F13D81F461201303F092F01D83B4697
:101DB00004E0052E01D8373B00E0573BD218641CE5
:101DC0000B2C04D22B5D002BE1D103E000202B5D16
:101DD000002B01D101200A60F0BD2B5D002B0ED03D
:101DE0006B2B01D04B2B03D1002C01D0920206E0CB
:101DF0006D2B01D04D2B05D1002C03D012050120F5
:101E00000A6007E01E46303E092E09D80A267243B2
:101E1000303A9A18641C0B2CDED20128DDD1F0BDBB
:101E20000020F0BD10B5FEF767FDFFF7D1FA10BD39
:101E300030B521489DB001680322D2029143C214FB
:101E4000891801600220009001250A900024039562
:101E5000400510210D900B940C9404916846FFF7F7
:101E600067F8002800D0FEE70F200E9003200F90A7
:101E700010941194012112940EA8FEF743FF00283C
:101E800000D0FEE713A813951694FEF765FE002810
:101E900000D0FEE7FEF7EAFF7D21C900FEF728F932
:101EA000FFF77EFA0420FFF76DFA00221146501E5C
:101EB000FEF76AFD1DB030BD00700040104801689B
:101EC000821511430160C1680E4A1140C16001686A
:101ED0000D4A11400160816849084900816001682C
:101EE0000122920491430160C168FD2212049143D2
:101EF000C160002101610549C0038860704700008E
:101F0000001002400C40FF88F6FFF6FE00ED00E0F6
:101F100010B5818CC90707D001684A6801235B04AA
:101F20009A43836A1A434A60818C890707D50168FE
:101F30004A6801231B049A43C36A1A434A60818C8E
:101F4000490707D501684A6801239B049A43036B3C
:101F50001A434A60818C090707D501684A68012342
:101F6000DB039A43436B1A434A60818CC90607D549
:101F70000268916801231B039943836B19439160A5
:101F8000818C890607D501688A6801235B039A431F
:101F9000C36B1A438A60818C490612D503685A685C
:101FA00001210905046C8A4322435A60026C8A426B
:101FB00007D10268516803235B059943436C1943B9
:101FC0005160818C090607D501684A680123DB044A
:101FD000806C9A4302434A6010BD0000F8B50026A9
:101FE0000446C666FEF782FC054620680068124F6C
:101FF000000709D501212B460022490520460097FC
:1020000000F034F900280DD12068006840070BD596
:1020100001212B46002289052046009700F026F971
:10202000002801D00320F8BD202060346072A07227
:1020300026720020F8BD0000FFFFFF01FEB5044638
:10204000016880682269E3691043626910270026ED
:102050001A4310430A683546784B1A4002430A6017
:1020600020684168032212039143E26811434160F2
:10207000734A2168A069914201D0226A10438A689C
:102080000B231B029A4302438A606E4A20686E4902
:1020900090420CD1C8688007800F06D0012843D039
:1020A00002283FD0032826D124E0012723E0674AF5
:1020B00090420AD1C8680C21084031D0042833D09E
:1020C00008282FD00C2816D114E0614A904227D05E
:1020D000604A904224D05A4A90420CD1C9680320E9
:1020E000800201401CD01015091A1DD0091A19D000
:1020F000814200D108270220FEF74AFC0190504B94
:10210000514922684039D81300929A4235D1002FA4
:102110000CD0022F0DD0042F12D0082F1CD113E0A9
:102120000027E8E70227E6E70427E4E7FEF7A4FE36
:1021300008E00868C00601D5474805E0474803E0C5
:10214000FEF7BAFE002873D0626851005118814230
:1021500002D81103814201D2012569E0010E060275
:102160005008002330185941FDF7D8FF0321090218
:102170003B4A411A914259D9EEE7E26982422DD198
:102180003B0000F02EFB0906080B24192424241F11
:102190002400019812E0FEF77FFE0FE008686168F6
:1021A000C00602D548082F4A01E02F4A4808801887
:1021B000FDF79EFF86B20BE0FEF77EFE61684000F1
:1021C0004A08F4E76168012248081204EFE7012594
:1021D000310909013007400F084327E03B0000F0B8
:1021E00000FB09070A0D061D060606290600B3E7CF
:1021F000FEF742FE14E0FEF74FFE11E0086861684A
:10220000C00602D54A08144801E014484A081018CC
:10221000FDF76EFF81B20098C16009E0FEF74CFE49
:1022200061684A088018FDF763FF80B22168C860C2
:102230002846FEBD61684A08E9E70000F369FFEF40
:102240000048004000380140401002400044004077
:10225000004C00400050004000093D000024F40004
:10226000FFFC0F0000127A000048E801FFB581B0C2
:1022700017460E4604460A9D1DE0681C1BD0002D23
:1022800005D0FEF733FB0499401AA84213D9206801
:102290000168FF22A13291430160206881684908EA
:1022A00049008160202060346072A072002020729A
:1022B000032005B0F0BD2068C1693046884304D0D2
:1022C0000020B842D9D00020F3E70120F9E7000050
:1022D000F1B5002790B05C483E463C460C97009014
:1022E000AAE0002005460D90A2E0584A08A95848E7
:1022F000FFF7B4FB00280CD002287DD00C980028F2
:1023000000D0761C052E78D91820FFF77FFB182007
:102310008CE00898002600280DD0022806D04C49F1
:102320000D9A8B7893420BD015207FE00620FFF7A3
:102330006DFB02247CE00620FFF768FB012577E0B7
:10234000002A14D08208091D0098FEF713F800280F
:102350005AD01820FFF75AFB1820FFF757FB042428
:102360000D98401CC0B20D9001200C9060E00879DF
:10237000002843D00020374B091D02E01A54401CAE
:10238000491C0A78002A01D04028F7D300221A54A9
:10239000104604AB01E01A54401C491C0A78202A5C
:1023A00001D01028F7D3002119540EA91846FFF7C1
:1023B000DFFC109828490068884211D91820694626
:1023C0000872012424052346012202A92348FFF7AD
:1023D000EDF82346012202A92048FFF7E7F805247B
:1023E0001F491948FDF79CFF10980E9901600620BF
:1023F000FFF70CFB432010E012E016E00620FFF789
:1024000005FB01252F4613E020211648FEF764FA4C
:1024100008990098401800900620FFF7F7FA9FE708
:102420001820FFF7F3FA182081E74320FFF7EEFAB0
:102430002846204300D158E73846204300D150E7D2
:10244000204611B0F0BD0000004000081027000039
:10245000980200205802002001800100E8010020BD
:102460000080010800080050F7B500208EB00B90E6
:10247000054602900120D54E0A90002701221098AF
:102480007270B770FF22F2703C4602E033191A7185
:10249000641C0A5D002A01D0402CF7D300213219B8
:1024A0001171014607A8FFF7FDF807A8641D02E0B7
:1024B0003155641C7F1CC15D0029F9D102E0002068
:1024C0003055641C842CFAD331E001273F030520EA
:1024D000002239460007FEF703FABC4C3E023346A1
:1024E0008322611CBA48FFF761F8052001223946B2
:1024F0000007FEF7F5F98022211DB648FEF71BF80C
:1025000004460004000EFFF781FAE0B2FFF77EFAFE
:102510003346012203A9AE48FEF7C8FF00280DD0BC
:102520000B98401C0B900B98052800D301250298AE
:102530002843CAD00E980690109C9CE06846007B09
:1025400006281FD01828EED13346012203A9A2483D
:10255000FEF7ACFF0028E6D16846007B1828E2D1E0
:102560000220FEF769F89A480268936908210B4334
:1025700093610268936910242343936100680162A8
:102580000225D0E701200290CDE720219348FEF7F5
:10259000A3F90A9801238D4A9B020699C0B22646E8
:1025A0009C4201D31F4600E08027BE4200D33E4636
:1025B00001239B02B4469F4201D1022300E0012384
:1025C00053709070C043D0700423301D03E00E7828
:1025D000D654491C5B1C8342F9D36046BC4507D8DE
:1025E0001A21001D3F1D01E01154401CB842FBD3CD
:1025F0000020694602900873074639E00126B602BA
:10260000B44200D2802601210520002209030007E0
:10261000FEF766F96D490123F21C1B05491C6C4845
:10262000FEF7C4FF0122052011030007FEF758F949
:1026300066493246091D6748FDF77DFF0190000499
:10264000000EFFF7E3F90198C0B2FFF7DFF90123AD
:102650001B05012203A95E48FEF728FF002803D1CD
:102660006846007B062810D07F1C052F00D301256B
:1026700002982843C2D0002C01D0002D85D0002420
:10268000684626460473274623E0012002900698F8
:10269000B4420AD9801906900A98A41B602802D077
:1026A000401C0A90E1E70525DFE780190024069029
:1026B000DBE70420FFF7FEFA01231B05012203A933
:1026C0004348FEF7F3FE002809D07F1C052F00D3F6
:1026D000012520462843ECD0002D27D072E0684623
:1026E000007B062820D01828F0D101231B050122E9
:1026F00003A93748FEF7DAFE0028E7D16846007BD9
:102700001828E3D10220FDF797FF3148026893694A
:1027100008210B4393610268936910252B43936151
:10272000006801620225D1E70124CFE7274C012090
:102730006070A670FF20E07004202654401CC0B2D8
:102740008428FAD3052601213607002209033046E2
:10275000FEF7C6F801273F053B468322611C1C4853
:10276000FEF724FF012211033046FEF7B9F880225C
:10277000211D1848FDF7DFFE04460004000EFFF798
:1027800045F9E0B2FFF742F93B46012203A912489E
:10279000FEF78CFE002815D16846007B182811D161
:1027A0000220FDF749FF0A4803689969082211438E
:1027B00099610068816910231943816106480068A6
:1027C00002620225284611B0F0BD000098020020E8
:1027D000E80100205401002078010020000800508A
:1027E000FEE730B47446641E2578641CAB4200D208
:1027F0001D46635D5B00E31830BC184702E008C863
:10280000121F08C1002AFAD170477047002001E06A
:1028100001C1121F002AFBD170470000FEF774F8B7
:10282000FFF706FBFEF78CFFFEF762FF1548016815
:10283000154A914203D00168144A91420DD10122F8
:1028400020211348FEF74CF8FDF786FDFEF7B0FF98
:10285000FEF7D4FFFEF7F8FF13E000680D49884249
:102860000DD10E4C0C492046FDF75AFD052292036E
:1028700021460B48FDF722FD0A48FFF73DFAFEF717
:10288000FBFEFEE7003F00087856341221436587BF
:102890000008005057136824008001080040000819
:1028A0000090010868245713000000000000000099
:1028B0000102030406070809030406080C10182087
:1028C000300000000001020304000000FC280008A2
:1028D0000000002044010000FC270008402A0008F6
:1028E0004401002010000000FC270008502A0008C6
:1028F00054010020642500000C28000810B5214A6E
:1029000000219069C305204804D541690223194379
:102910004161911593699B0505D5436901242343C2
:1029200043616302194393695B0505D54369082434
:1029300023434361E301194393691B0505D54369AB
:102940000424234343616302194393699B0405D51F
:1029500043691024234343616302194393699B0332
:1029600004D5446920231C43446119439369DB0364
:1029700005D54369402423434361A002014391618B
:10298000002010BD00200240A006002010B516490E
:1029900000E0401E8A69D20702D00028F9D11FE06A
:1029A00000281DD08869800701D5022088618869C8
:1029B000C00511D4886980050ED4886940050BD400
:1029C0008869000508D48869800405D48869800373
:1029D00002D48869C00305D5FFF790FF012010BD20
:1029E000032010BD002010BD00200240F8B50746AE
:1029F0000E4600251048FFF7C9FF00281BD10F4CD9
:102A000060682115084360606068082108436060C1
:102A100072B601CE38606D1C102DFAD362B606482E
:102A2000FFF7B4FF61680822914361606268012189
:102A300089028A436260F8BD50C300000020024052
:102A400000000000000000000000000080841E0064
:10400000382B0020D540000885A10008DF400008BB
:1040100000000000000000000000000000000000A0
:10402000000000000000000000000000E140000867
:104030000000000000000000E340000831F9000823
:10404000E7400008E7400008A9B90008E740000879
:10405000E7400008B15A0008C55A0008D95A0008BC
:10406000E7400008E7400008E7400008E740000894
:10407000E7400008E7400008C5020108E7400008E3
:10408000E7400008E7400008E740000800000000A3
:10409000E7400008E7400008E7400008E740000864
:1040A000E7400008E7400008E7400008A5020108D3
:1040B000B5020108E7400008E7400008E7400008B3
:1040C0000348854600F07AFD00480047ED1B0108D3
:1040D000382B00200448804704480047FEE7FEE7ED
:1040E000FEE7FEE7FEE7FEE721FA0008C140000810
:1040F00030B50B46014600202022012409E00D4680
:10410000D5409D4205D31D469540491B2546954007
:1041100040191546521E002DF1DC30BD70B500244B
:104120002546002801DA01244042002901DA012550
:104130004942FFF7DDFFAC4200D04042002C00D0E6
:10414000494270BD03460B439B0703D009E008C9F1
:10415000121F08C0042AFAD203E00B780370401C37
:10416000491C521EF9D27047D2B201E00270401CC5
:10417000491EFBD270470022F6E710B513460A46E7
:1041800004461946FFF7F0FF204610BD421E537843
:10419000521C002BFBD10B781370491C521C002BB6
:1041A000F9D1704710B5044605E00B780370401C48
:1041B000002B00D0491C521EF7D2204610BD421CD5
:1041C0000178401C0029FBD1801A704730B50446A5
:1041D0000020034600E05B1C934203D2E05CCD5C10
:1041E000401BF8D030BD03460A780270401C491CC1
:1041F000002AF9D1184670470321001D401E03789C
:1042000012021A43491EF9D510467047F8B5024606
:104210004A40D40F42004B0052085B089A4202D237
:104220000246084611464A0023D0C30D4A00DDB2BB
:10423000120EAD1A202D35DA49020126490AF6057B
:104240008A19002C00D0524220214F1B1146B94040
:104250002A411018C20D9A4221D0002C17D0012DEE
:1042600008DCDA05801AD20F8019D207DBB200F021
:104270009BFBF8BDDA05801A012340001B06C0181D
:1042800080185A428018CA0F1043490007E04908B5
:10429000C2071143DA05801A80194008801800F01F
:1042A0007BFBF8BD61000122511A001BF7E70122D8
:1042B000D2075140AAE70122D2075040A6E70246A2
:1042C00070B54A40D30FDB0740002DD04A002AD0FA
:1042D000010E140E000212020919400A520A841833
:1042E000E50104465443000A120A2E045043A4195F
:1042F0004219200CC543AA18120C0125AD03521C0B
:10430000521912047F39240400D0521C104301D4E6
:104310004000491EC2B20C06C0092018401C4008CB
:10432000802A02D003E0002070BD40084000002930
:1043300000DA0020184370BD70B502464A40D50F20
:1043400040004A00ED0740085208002814D0002A17
:1043500012D0C40DD30D41020120C0055202490AFA
:10436000520AE41A091812187D34914201D3641CD0
:1043700000E04900002C01DA002070BD00239142CA
:1043800001D3891A0343400849000028F7D10029C6
:104390000AD0914202D10121C90705E0914201D220
:1043A000012101E00121C943E005C018401900F0D6
:1043B000F3FA70BDF0B507460846584087B0C00F05
:1043C000049048000E46590040084908BC1A88412C
:1043D00005D2384631461E4617460B46024658005F
:1043E000400810434CD0300D039040055900400D5B
:1043F000490D0590401A0290402872DA18030121F5
:10440000000B09050843019004980092002805D08C
:104410000199524200208841009201900298402167
:104420000A1A0199009800F083FA05460C466B467B
:1044300007CB00F09EFAC0197141039A0E0D0023BC
:10444000D71756401A467A40164344D0049A002A99
:104450002DD0029A012A039A15DC1205C01A914147
:1044600001263605001C7141D20F059ED20700932C
:10447000019202962A46234600F0DCFA07B0F0BD0E
:1044800038463146FAE71605224A0F46B218C01AD6
:10449000B74101210905001C4F4100187F41114619
:1044A00018187941E20F10436D19644113E0E207D7
:1044B0006D0815436408C2071443039A01261205C8
:1044C000C01A91413605001C7141CE0740083043A7
:1044D0004908C01851412A46234600F09EFACDE70C
:1044E000FFE7049801224000C117121A00238B41F4
:1044F00004983146C417381AA141EEE730B40124BC
:10450000E407634030BC55E730B40124E407614060
:1045100030BC4FE70000E0FFF0B51FB488B00B9946
:104520000998002448400999C00F49004908099199
:10453000C0070B990090490049080B910999089808
:10454000A64608431CD00B990A98084318D009982E
:1045500001244000420D4800410D09982405000344
:10456000000B204309900B980003000B20430B9095
:1045700050181C494018002201901446104605E0CE
:10458000002001460DB0F0BD032801DA034600E02B
:1045900003239C46C11A0AAE0AE05F0008ADED5B3A
:1045A0004F00F75B7D430027AA187C41491C5B1E26
:1045B0006145F2DD410004AB5A522104120C0A435A
:1045C000240C401C0828DFDB0198029000997046FB
:1045D00001910090059B049A0799069800F02AFA29
:1045E000D0E700000DFCFFFFF0B50C465C4085B045
:1045F000E40FE40703944C00002664085900944635
:10460000490802460296224321D062460A431ED040
:104610006200570D4A000E032303550D0124024684
:104620002C492405781B1B0B360B401823432643CB
:10463000614600901C46501AB44103D30098401CB8
:10464000009002E0921800985B41002803DA0020F5
:10465000014605B0F0BD0020012109050746864648
:1046600011E064461D46141BB54106D36546521B36
:10467000B341744607430C43A646CD07400849089A
:10468000284392185B4105460D43EAD11046184372
:1046900013D06046194650407140084306D060462A
:1046A000101AB34106D20122002306E000220123A2
:1046B000DB0702E00122D243531000987446010543
:1046C000381C6141029C039D0019694100F0A5F965
:1046D000BFE70000FD03000070B54B005B0803431B
:1046E0000BD04B005C0D002633466542B341D41716
:1046F000AD1AA34102DB0020014670BD120530183F
:10470000514170BD10B500229623114600F04CF9BE
:1047100010BD00000EB5C217C10F5040CA074018A7
:104720000021054B0293019200910A460B4600F0CE
:1047300081F903B000BD0000330400000EB5054947
:104740000291002100910A460B46019100F072F996
:1047500003B000BD330400000EB5054A02920022EA
:1047600000921346019200F065F903B000BD00000D
:1047700033040000410040020122400AD205090E24
:1047800080187F2901DA00207047962903DC9622E1
:10479000511AC840704796398840704770B5CD0FA0
:1047A0004A0009030123090B1B0519430B4BED07B5
:1047B0000024520D9A4201DA002070BD074B3433B9
:1047C0009A4203DC9A1A00F0C3F802E00449511837
:1047D00088402C43F1D0404270BD0000FF03000030
:1047E000CDFBFFFF4A0009030123090B1B051943F9
:1047F000094B10B5520D9A4201DA002010BD064B4C
:1048000034339A4203DC9A1A00F0A2F810BD03492F
:104810005118884010BD0000FF030000CDFBFFFFD2
:10482000C20FD207400040080BD0C10D0723DB01A7
:10483000C91840020905400A1143C2084007114344
:10484000704700200146704710B5002904DB0124A1
:10485000E40740428C412146002B04DB1C46012327
:10486000DB075242A341994200D1904210BD0000A3
:10487000CB0FDB07490010B5490802460A4307D0B1
:104880000A0D07240903E401090B121B002A01DCAD
:10489000002010BDC900440F0C43C100E018D20530
:1048A000801800F079F810BD0122D207002800DB43
:1048B000101A002900DB511A814270470122D207E9
:1048C000002800DB101A002900DB511A88427047CB
:1048D000F0B51FB40646002082B005464024019181
:1048E00000901BE0019922460F46304600F030F858
:1048F000049A059B801A994110D310461946224606
:1049000000F016F8361A8F41019722460120002147
:10491000009F00F00DF838184D4100902046641EAD
:104920000028DFDC019B00982946324607B0F0BD25
:1049300010B5202A04DB0146203A9140002010BD2A
:10494000914020239C1A0346E3401943904010BD38
:1049500010B5202A04DB0846203AD040002110BDC3
:104960000B46D340D0402024A21A91400843194658
:1049700010BD10B5202A06DBCB170846203A10419F
:10498000C1170B4306E00B461341D0402024A21A66
:1049900091400843194610BD002904DA401C490023
:1049A00001D140084000704770B40024050C05D1C7
:1049B0001024000402D1002921D01124050E01D1B8
:1049C00000020834050F01D10001241D850F01D11B
:1049D0008000A41C002801DB4000641C002908D0D2
:1049E00020252E1B0D46F540A14000D00121294372
:1049F000084301061B1B000ADB1D02D5002070BC0A
:104A00007047DB05181880180029F8DA401C4900A7
:104A1000F5D170BC40084000704710B5002B08DA93
:104A20000024401C614192185B411A4301D14008A7
:104A3000400010BDF0B51FB482B005460C0003D095
:104A400008460BF079FF02E00BF076FF20300246BB
:104A5000009021462846FFF76BFF049B059A044609
:104A60000F4618431143084314D0184610431BD077
:104A7000009840210A1A18460599FFF769FF054674
:104A80000E46009A05990498FFF752FF084305D097
:104A9000012004E02046394607B0F0BD0020C117D0
:104AA00005430E432C43374300990E986305401A83
:104AB0007905E40A00220C43FD0A0A3002D50020E1
:104AC0000146E9E70105101969410C9C0D9D00198B
:104AD0006941FFF7A2FFDFE7F8B505464800400847
:104AE0000C46284304D06000184A400D904201DD76
:104AF0002846F8BD15493539884210DC88420BDB61
:104B0000290D200308432903014305D0E00F104974
:104B1000C00741180020F8BD00200146F8BD161A54
:104B20004020821B28462146FFF702FF07460091DE
:104B3000284621463246FFF70BFF3A46009BFFF717
:104B40006CFF3246FFF7F4FEF8BD000033040000AE
:104B50000000F03F4A0009030123090B1B0519431C
:104B60000A4B10B5520D9A4202DA0020014610BDE0
:104B7000064B34339A4203DC9A1AFFF7E9FE10BD64
:104B8000034BD218FFF7D4FE10BD0000FF03000056
:104B9000CDFBFFFF10B5002904DB0124E4074042F0
:104BA0008C412146002B04DB1C460123DB075242CB
:104BB000A3418B4200D1824210BD0000064C01256A
:104BC000064E05E0E36807CC2B430C3C98471034B5
:104BD000B442F7D3FFF778FA683101088831010849
:104BE00070B58C180578401C6B075B0F01D10378FA
:104BF000401C2A1106D10278401C03E006780E7092
:104C0000401C491C5B1EF9D12B0705D40023521E02
:104C10000DD40B70491CFAE70378401CCB1A921C88
:104C200003E01D780D70491C5B1C521EF9D5A14292
:104C3000D8D3002070BD70B504460068816849076C
:104C400020D5816810254907002905DA8168890780
:104C500002D481682943816002F032F806460DE0F3
:104C600002F02EF8801B0A2808D9A06D2843A06501
:104C7000E06D01210843E065084670BD206880684A
:104C80004007EDD4002070BD38B5044606480549FC
:104C90000068FFF72DFA604300E0401E00900028F6
:104CA000FBD138BD40420F0058000020F8B5044643
:104CB000006881688907890F012925D10168C90722
:104CC00022D08168052211401025012601290FD12B
:104CD000816802221143816021680320086001F08D
:104CE000EFFF07460CE001F0EBFFC01B0A2807D9D5
:104CF000A06D2843A065E06D3043E0650120F8BD5C
:104D000020688068C007EED10020F8BDF8B50446E1
:104D1000006881688907890F012902D10168C907E4
:104D200022D18168114A10261140012500290ED197
:104D30008168294381600120FFF7A6FF01F0C0FFD1
:104D400007460CE001F0BCFFC01B0A2807D9A06D84
:104D50003043A065E06D2843E0650120F8BD206880
:104D60000068C043C007EDD10020F8BD17000080E7
:104D7000F0B589B00C4607461022002168460DF0B8
:104D80002DF96946224608460CF0ECFA6846007890
:104D9000872600066A4600280FDA00201318115CE7
:104DA0005B784900DB0919431154401C0F28F5DBDF
:104DB000D07B1146400070400DE000201318115CBC
:104DC0005B784900DB0919431154401C0F28F5DBBF
:104DD000D07B11464000C873E11DF93148691028A5
:104DE00012D0107800061BD500201518135C6D78C2
:104DF0005B00ED092B431354401C0F28F5DBD07BDF
:104E000013464000704019E000202118FF310131A5
:104E10004B78155C401C6B404B701028F5DB26E08E
:104E200000201518135C6D785B00ED092B431354BB
:104E3000401C0F28F5DBD07B13464000D873E51DDE
:104E40004B698020FA355855002300E043554869E6
:104E5000401C48611028F9D300202118FF3101318E
:104E60004B78155C401C6B404B701028F5DB002024
:104E700023181A46FF33E0320133517C5B78401C23
:104E8000594051741028F3DB21461022F13104A857
:104E90000DF08CF82246394604A80CF063FA102273
:104EA000002168460DF09AF809B0F0BD10B504462F
:104EB00010220021F1300DF091F8FF200021153073
:104EC0000151F02220460DF089F810BD0B4610B5B7
:104ED0000246102118460CF06FFA10BDF0B50646D8
:104EE000FF3087B00D4601300590F11D4069FA3161
:104EF0000691103914460491002843D010210F1A4E
:104F0000A74200D317460699BAB2401829460DF0B9
:104F10004DF8059805994069C019486110283AD3A1
:104F2000BC4238D0002031180A46FF31E03201314E
:104F3000537C4978401C4B4053741028F3DB049990
:104F4000324608460CF00EFAED19E41B1AE0002276
:104F5000B018E030417CAB5C521C59404174102ABF
:104F6000F6DB1022684604990DF020F869463246B7
:104F700008460CF0F7F91022694604980DF016F86F
:104F8000103C1035102CE2D8A2B2294606980DF03C
:104F90000DF80598446107B0F0BD000001490020FC
:104FA000087070476C01002010B5054A1378002B7B
:104FB00005D10123137000F027F800F003F810BDAD
:104FC0006C01002010B50F480021032292074160B8
:104FD000426181610722C26141628162C1624163B3
:104FE00001220163026281630422C263416492026E
:104FF00081640264C16401F007FB0021014801F0F3
:1050000002FA10BD080300207CB50C4605460C4989
:105010000A480C4A0860506B511508435063084811
:1050200001F094FA601C08D0002000900346019023
:1050300003222146284601F0D5F87CBD002401401A
:105040000803002000100240FEB50020204C009014
:105050000190206801252843206020684007FCD586
:10506000606B01277F0238436063F8000091019074
:105070006946184801F00EFA164E306881682943D7
:105080008160304601F004FC0021C943304601F044
:105090009FFB304601F0B4FA85B230688168022285
:1050A000114381603168032008600B4900988842F1
:1050B00002D00A49884202D1064801F047FA606BE3
:1050C000B843606320684008400020602846FEBD69
:1050D00000100240080300200000044800000244C1
:1050E00010B5044A1278002A02D0FFF7ADFF10BDB8
:1050F000002010BD6C010020F0B5074685B00020EF
:105100000E46164C009015463046216805F02AF8E8
:10511000002802D0012005B0F0BD684600F014FC64
:105120000028F8D032463946009800F0D5FE0098A5
:1051300004F046FA002809D10098694645621A2011
:10514000087101A803F0F0FF002801D00020E2E779
:105150000298206009F0DCFBDCE70000A0010020E1
:10516000F0B5074685B000200E46154C0090154658
:105170003046216804F0F6FF002802D0012005B077
:10518000F0BD684600F0E0FB0028F8D03246394612
:10519000009800F0A1FE009804F012FA002809D14E
:1051A0000098694645621A20087101A803F0BCFF07
:1051B000002801D00020E2E702982060DEE700002E
:1051C000A0010020F7B523498022497A214B511ACA
:1051D000CDB2197A5B7A80260446F31ADEB2A71E96
:1051E0004A1C0120D2B2761E3B000BF0BCFB092802
:1051F000242824152428282C3000002015490122B9
:10520000CA71FEBD1448445404E013484454019943
:105210008154521C1A72F0E70E4BAD1EA942F0DA0F
:105220000D4D6C540198A854521CD0B202992954C7
:10523000401C1872E1E7074BB142E6DBFEBD054BAF
:10524000A942DFD3FEBD034BA942DED3FEBD02203F
:10525000FEBD000064000020DA0C0020F7B5002637
:1052600082B00D460446072972D360782178000287
:10527000084341BA494800904182E80005211038AE
:10528000FEF74CFF4648002960D102235CE0E15C58
:10529000C9088A008918F20012181171E15C761CA5
:1052A000F2B24907CE0EE1184F78BF093E43B7006E
:1052B000F619D7003F183E714E783E27521C7E43A8
:1052C000D2B2D70076083F183E714E788F78F60735
:1052D000F60E3F093E43521CB700D2B2F619D70072
:1052E0003F183E718E78CF783607F60EFF093E43A1
:1052F000521CB700D2B2F619D7003F183E71CE78D3
:10530000521C7606F60EB700D2B2F619D7003F1837
:105310003E71CE780F79B607521CF60E7F093E43D8
:10532000D2B2B700F619D7003F183E710979521C66
:10533000C906C90E8E00D2B28919D6003618521C81
:1053400031715B1DD6B2DBB2AB42A0D3002107E0C6
:1053500021E0E122D2004A43CB00491CC250C9B22D
:10536000B142F6D3009846740E480AF09DFC0D48F1
:105370000D4A0B49143809F095FD0498002804D013
:105380002A462146012009F017FB084901204870F0
:1053900007A00BF0C1FA05B0F0BD0000C81D002049
:1053A000481C0020981F002095B7000884010020A9
:1053B0004164642070726F66696C65310D0A00008B
:1053C000F7B5002582B00E46032946D3029801782E
:1053D000234800904182F043C00724D1012420E0FB
:1053E00002980019417802780902114349BA4B0525
:1053F0005B0D3C214B431B4AE9005350437807782F
:105400001802384340BAC00A8300C0188B181871BC
:105410005158024614A00BF07FFA6D1CA41CEDB28B
:10542000E4B2B442DCD3009845740D4828300AF049
:105430003BFC0B48114A0B493C3009F033FD049802
:10544000002804D032460220029909F0B5FA0C492E
:10545000022048700BA00BF05FFA05B0F0BD000011
:105460005C1F0020DC1D002054494D453A25642076
:1054700050574D3A25640D0A00000000F9B70008A6
:10548000840100204164642070726F66696C65322B
:105490000D0A000010B50C4C41221206E17E90422C
:1054A00006DA01290ED0642009F0B2FC012008E0E0
:1054B000064A904206DD002904D0002009F0A8FC2D
:1054C0000020E07610BD0000AC1F00200000F0417D
:1054D00010B5040001D007F0D1FD0148847010BD63
:1054E0004800002070B5144D01212C8B1348FFF7A4
:1054F000F7FD06462046FFF705F90446288BFFF71F
:1055000001F90F49FEF7DBFE2146FEF715FFFFF715
:1055100031F985B23046FFF7F5F80A49FEF70CFF7E
:1055200004462846FFF7EEF82146FEF7C8FEFFF7CF
:1055300021F94004000C70BD6000F81FF804002041
:1055400000404E4500F07F4510B50448FFF726FDAA
:10555000034809F0D5FD07F0BFFF10BDF804002097
:105560006C13002072B602488179491C8171704722
:105570003400002004498879401E0006000E88711E
:1055800000D162B6704700003400002010B500243E
:10559000FFF7A8FF1249088100F0F8FC00281CD092
:1055A00008891049884201D3FE2416E00E490F4BAA
:1055B0004218C9439A4208D2401AFD214843591C57
:1055C000FEF7ACFD401CC4B207E0094A904203D983
:1055D000884201D8012400E0FF24204610BD0000CD
:1055E0003400002094110000F7F8FFFF8B0A000040
:1055F0006C0700000F494B6A0A69D218120EC2717B
:105600004B6A0A69D218120C82710A8A8B8CD218E2
:10561000120A42710A7C8B8CD21802714A69120EEE
:10562000C2704A69120C82708A8A120A4270097D1D
:10563000017070474000F81F7FB5414C0125E078AC
:10564000002831D00AF0C2F9172216213D4803F094
:10565000F9F93C480021B838FFF7A6FC0020C04308
:1056600000901D231E221F21374809F0C9FD07F0B5
:1056700077FFE078002862D1E57000F087FC012810
:105680005DD1607900285AD12E48304954300AF053
:1056900039FA2C487D21C90054300AF0CBFA294848
:1056A00054300AF0CFFA47E001F024FD0AF046F941
:1056B0002449FF266831E5700136084625713246D7
:1056C000F83800F0E3FB1F4832468438204906468C
:1056D00000F0DCFBC8221F49304600F0D7FB194818
:1056E0001D492C3881620A230922012180380AF0E1
:1056F0000DFE002000900190034602901148E12227
:10570000520202210395AC380AF0E4FD07F06AFC6E
:1057100000F03CFC002806D001F0E8F801F0F6F8B3
:1057200001F0ECF890E701F0F9F801F007F901F069
:10573000FDF889E70AF056FA60790028FAD07FBDB3
:1057400034000020B00500206C13002039A30008AD
:105750001807002068030020A91B010810B50AF0F3
:10576000A5F806F0C1F806F079F807F001FA04F0A0
:105770000BFD10BDF3B5054683B0002017E0411CBA
:1057800087007819CCB2019100900BE0A600A959CE
:10579000E859FFF793F803D2711900980CF016FE40
:1057A000641CE4B204988442F0D30198C0B2049916
:1057B0008842E4D305B0F0BD3EB50E4C6A46E178B0
:1057C0001170217D9170D070606B0AF097F9019093
:1057D000E06B0290E07D6A4650706946207C06F0DE
:1057E00010FA218CE06B4143081AA16D4018A065A6
:1057F0003EBD00006400002008B504226946194837
:1058000006F00AF91849684600780A78904210D1E3
:105810006A4652784B789A420BD16A4692788B78D6
:105820009A4206D16A46D278C9788A4201D10120CB
:1058300008BD0D49091D0A78904210D1684640788C
:105840004A7890420BD1684680788A78904206D197
:105850006846C078C978884201D1022008BD00207E
:1058600008BD0000040908088601002070B506057F
:10587000360D000BFEF762FF0CF01CF8074A084BD0
:10588000FEF74AFE04460D463046FEF757FF224615
:105890002B46FEF741FEFEF7EBFF70BD7B14AE47D3
:1058A000E17A843FFFB5002685B03746354630465D
:1058B00000960024400003900799095A0120A04057
:1058C00001422BD029190C2202915143089A5258B7
:1058D000002A23D0059A002A02D11A4A10421DD06C
:1058E00008980918082001910856021100070117AD
:1058F000069840B206F08CFB00280FD00198407A41
:1059000001010E980818C068002802D07F1CFFB261
:1059100004E00F9902988855761CF6B2641CE4B234
:10592000102C01D20398C7E700981035401CEDB247
:10593000C0B20090102DBCD310980770304609B04B
:10594000F0BD0000FF02000010B504462C200CF052
:10595000F7FA2060002802D000218162012010BDEA
:10596000052300221B02C0180265426581651046AE
:10597000704710B500F0EAFF10BD70B516460B4633
:10598000054600F0D9F8002801D0002070BD0520A0
:1059900000022C18206D5521484341195420425CC7
:1059A00018460CF003FB206D552148434019403048
:1059B000007D3070206DA16D401CFEF7AFFB012013
:1059C000216570BD30B591B024480AF06DF92449C5
:1059D0000124C879002825D001282AD01F48002595
:1059E000CD7128380AF060F9002009F0EDFA1D4960
:1059F0001D480CF057FC0146184814380AF01AF9F3
:105A0000164814380AF01EF968460470057103F050
:105A100005FC0021084600F0DFF814A00AF07CFF26
:105A200011B030BDCC711F491F480CF03BFC014642
:105A30000DE00220C8719920694608704C7003205F
:105A40008870CC700C71684603F0B6F817490348AB
:105A50000AF0F0F801480AF0F5F8E1E7E00200206A
:105A600000000020C0D4010070170000456E74656E
:105A700072206175746F2064696D6D696E67206D49
:105A80006F646520616E6420776169742072656A55
:105A90006F696E20746865206E6574776F726B0D28
:105AA0000A000000E09304008813000060EA000090
:105AB00010B507F0E3FA012001F040F8022001F0F0
:105AC0003DF810BD10B507F0D9FA042001F036F802
:105AD000082001F033F810BD10B507F0CFFA102000
:105AE00001F02CF8202001F029F8402001F026F8E0
:105AF000802001F023F8FF20013001F01FF8012081
:105B0000400201F01BF80120800201F017F801208B
:105B1000C00201F013F80120000301F00FF801208A
:105B2000400301F00BF80120800301F007F8012089
:105B3000C00301F003F810BD052109024018016DF2
:105B4000406D814201D10120704700207047000064
:105B50001CB5002801D0074801E0432080016946B8
:105B600088800220009001AB01228821024803F0C6
:105B700005F81CBDC4100000B0050020F8B517469C
:105B80000E46054600F0E0F9002801D00020F8BDDF
:105B9000052000022C18542F07D9606D5522504360
:105BA000542140194030017505E0606D552148438E
:105BB000401940300775606D552148434019542104
:105BC0000A5C31460CF0F2F9606DA16D401CFEF7E5
:105BD000A5FA01206165F8BDF8B51E4D0E462C46AC
:105BE0000027297B4034002821D0012803D0022837
:105BF0001CD1287322E0022901D100F0ABF801206A
:105C000028736071002E07D0217B1348414313484D
:105C10000CF048FB09F068FAA87B4006400E28719A
:105C200009F0F6F829790EA00AF076FEF8BD0229EF
:105C300001D100F08FF82F73FF20E8766771002EF6
:105C4000F4D0217B0448414304480CF02BFB09F0BD
:105C50004BFAF8BDAC1F002060EA0000701700008E
:105C600053657420647574793A25640D0A00000048
:105C700070B5012500F0BEFE134C1248E0606802CA
:105C800060600020A060E1688000401800F06AFEBB
:105C90002070A068401CA06061688842F3D30B4963
:105CA000E068884206D20268002A00D00025001D64
:105CB000E060F6E700F06AFE002D01D0012070BD23
:105CC000002070BD0000080870010020FF070808D0
:105CD000F8B50F460446012600F08CFE002506E0CC
:105CE000A800001900F03EFE0C4908706D1CBD4272
:105CF000F6D300200A4907E02268002A00D00026D7
:105D00008C4200D2241D401CB842F5D300F03EFE68
:105D1000002E01D00120F8BD0020F8BD7001002048
:105D2000FF0F080810B502490248FFF7D1FF10BD68
:105D3000FF010000000008080EB50020009001904F
:105D400002900622694602480AF044FD0EBD00009A
:105D50000008080810B5044809F0A6FF02481430EE
:105D600009F0A2FF10BD0000841F002010B50749F4
:105D700000234B6106494A684C1522434A604A6831
:105D8000082422434A60036010BD0000A40A0020DA
:105D9000002002401A498869C2051A4803D54269A1
:105DA00008231A4342618A69920503D54269042394
:105DB0001A4342618A69520503D5426902231A4394
:105DC00042618A69120503D5426910231A43426170
:105DD0008A69920403D5426901231A4342618A69A0
:105DE000920303D5426920231A4342618A69D20390
:105DF00003D5426940231A434261034888617047D2
:105E000000200240A40A0020002F030070B50446C1
:105E100000F056FF05461C4E0AE0601C08D0002C1E
:105E200004D000F04DFF401BA04201D9032070BDFB
:105E3000B069C043C007F0D0B069800701D5022027
:105E4000B061B069C043C00517D5B069C0438005D3
:105E500013D5B069C04340050FD5B069C0430005F4
:105E60000BD5B069C043800407D5B069C043800337
:105E700003D5B069C043C00303D4FFF78BFF0120F3
:105E800070BD002070BD0000002002400023038090
:105E9000438041600281704710B50A460189501C59
:105EA000FEF726F988B210BD70B504460188FFF7E9
:105EB000F3FF61680D5C21882046FFF7EDFF20802D
:105EC000284670BD70B50D4604464188FFF7E4FFD3
:105ED000608061680D5470BD70B5040014D024203A
:105EE00041430A4822600D182946204614311022E9
:105EF00014300CF05BF8291D1022201D0CF056F810
:105F000000206062012070BD002070BDA029010842
:105F10003EB50C4D04462868002808D01A20694672
:105F20000870684603F000F9002801D000203EBD4B
:105F30000198286000E0806A0028F8D00168A1423A
:105F4000F9D13EBDA001002010B505210902441879
:105F5000606DA16D401CFEF7E1F8206D814201D11A
:105F6000012010BD002010BD0649800008580649D8
:105F7000401803D0C84203D000207047012070476A
:105F8000022070477C250108702FFCFF0348007930
:105F9000002801D000207047012070473400002005
:105FA00010B507F013F80E497D234A68DB000D4C4D
:105FB000824206D8821A08681946484310181946C2
:105FC00007E0821A08687D21C90048431018194665
:105FD000401EFEF78DF82146FEF78AF8084610BDF0
:105FE0009001002080510100FEB50E4E044630683D
:105FF0000D46002810D01A2069460870684603F044
:1060000093F800280CD1019A326007E01068A04292
:1060100003D1506A28600120FEBD926A002AF5D1A2
:106020000020FEBDA001002010B5094B0021CA00D0
:106030009C58844207D8D2189268824203D9C8007B
:10604000C018007910BD491CC9B21529EFD3FEE76D
:10605000F02501083EB50446084800216B468A0039
:106060001518491C2D6AC9B29D500329F7D3032185
:106070001846FFF77FFB019820603EBDAC1F002053
:1060800000B59BB019A9684605F024FD1BB000BD02
:1060900008B5FFF7B1FB002806D001226946034886
:1060A00005F0BAFC6846007808BD00000C09080835
:1060B0003EB50F211448FEF75EF814A11248FEF712
:1060C00092F814A16846FEF78EF80F480F2213A12C
:1060D0000F30FEF767F80C4908461E30FEF756F8F9
:1060E0000948FEF76CF8084C12A10F3400190F3064
:1060F000FEF74CF80448FEF762F8001907A11030CB
:106100000F31FEF770F83EBD941400204555383627
:106110003800000050574D5F00000000454D4C4CCA
:10612000435F4331315F4C4F52415F56312E302E29
:10613000300000005F0000001FB5062201A91848CA
:1061400005F06AFC68460079164C882803D1684639
:10615000407966280AD0022020730320607305204E
:10616000A073E07310A00AF0D7FB1FBD022001A9A5
:1061700001220B5C002B00D10A54401CC0B206283F
:10618000F7D3684681792173C2796273037AA37366
:10619000407AE07300900AA00AF0BEFB1FBD000029
:1061A00000080808EC1F00205573652064656661CF
:1061B000756C742054784379636C650D0A00000097
:1061C00055736520466C6173682054782063796349
:1061D0006C653A25642C25642C25642C25640D0AF5
:1061E000000000007CB50E11069D079C062E03D80A
:1061F0000095019400F002F87CBD0000F0B587B076
:106200000D9D04460170481C58D00F0701263F0F12
:106210003046B840608008062949070F07D0000FB4
:1062200001280FD0022812D0032815D01DE0052028
:1062300000076060C86A3043C862C86AC007C00F00
:10624000059012E01F486060CF6A022008E01E48F7
:106250006060CF6A042003E01C486060CF6A0820B9
:106260000743CF62C96A01400591608800900C988D
:10627000A072029002200390002A09D0032A09D0BC
:10628000022A0AD0012B0ED00196012A0ED011E06D
:10629000002000E0032001900CE0012B00D112202F
:1062A0000495019006E011200190EEE72946204672
:1062B00000F08CF86946606800F04CFC07B0F0BD57
:1062C000001002400004005000080050000C005074
:1062D000FFB50025052685B01F460446002B6AD071
:1062E00060880090012915D0022915D0334801900B
:1062F000A07A0290022003906946606800F02AFCB0
:10630000079800280AD0012808D0022808D00328BE
:1063100009D107E02A48EAE72A48E8E7032502E02E
:10632000022500E001256088FF220132811A904297
:1063300033D012DC102830D008DC01282ED00228FF
:106340002CD0042827D0082828D124E0202824D0C5
:10635000402822D0802821D11FE00F2000020A1AF5
:1063600081421AD00ADCFF39491E16D0FF39FF39A5
:10637000891E12D001208002081A09E001200003C2
:10638000101A0AD001214903401A06D04900401AC8
:10639000002803D101E0062600E0072620780A49FC
:1063A0000007800E0F5000222946304600F0D2FE32
:1063B000304600F0C5FE09B0F0BD0000000031100D
:1063C00000001110000021101C0A002010B500224E
:1063D0008256521C04D0CAB24188406800F06AFC60
:1063E00010BD10B5002404572411062C01D8FFF766
:1063F0006FFF10BD10B5002282561211062A01D877
:10640000FFF7E4FF10BDF8B5054604464035287D8A
:106410000026012808D00120287520688168890796
:10642000890F01290ED101E00220F8BD0168C907DA
:1064300008D0A06D20210843A06501260020287502
:106440003046F8BDA16DFF22013291430222114373
:10645000A165816892071143816000F031FC074615
:106460000EE000F02DFCC01B0A2809D9A06D022106
:10647000884310210843A065002028750120F8BD3D
:10648000206880680028ECDBA06D80088000401C3C
:10649000A065D3E7F8B505460C464035297D0129AE
:1064A0000DD00121297501688A68520709D5816DCF
:1064B000202211438165002028750120F8BD0220AB
:1064C000F8BD204B6268D80547109A421E4E8A6A72
:1064D00023681BD05B035B0B1A438A622168490364
:1064E00005D5B1680143B1600A20FEF7CDFB2068F5
:1064F000800302D5B0683843B0602068C0031DD562
:10650000B068012109060843B06017E05B035B0B2C
:106510009A438A622168490302D5B1688143B16018
:106520002068800302D5B068B843B0602068C0031B
:1065300004D5B168012000068143B16000202875B0
:10654000F8BD0000011000000027014070B50400F4
:1065500043D0A06D02210843A0652046FEF76BFBE7
:106560000026054600283AD0012D32D02068416827
:106570001F4A114041602168D0430860206881684B
:1065800001221207914381602068C168194A1140B5
:10659000C16020680169184A1140016120684169A1
:1065A000C908C90041612068016A144A11400162AA
:1065B00020688030416BC909C9014163206880307F
:1065C000416BC909C9014163204600F0FFF8E66547
:1065D000A66540342675284670BD012070BD204652
:1065E000FEF764FB05460128F3D00120A065BDE756
:1065F00060F7FFFF00023E8302FCFF3F00F000F067
:106600000068006C7047000070B5040006D0A06DF3
:10661000254600264035002802D006E0012070BD46
:10662000E6652E75204600F0D2F8A06DC00603D4B2
:1066300020688168490705D5A06D10210843A06531
:106640002E75EBE7A16DFF22013291430222114327
:10665000A16581685B4A8907890F012902D1016818
:10666000C9072BD1032361699B07994205D05B427F
:10667000994202D05B00994209D1016989008908D9
:106680000161206801696369194301610CE00169D6
:1066900089008908016190680F218904884390600E
:1066A00090686169084390602068C1681823994325
:1066B000C1602068C168A3691943C1609068012165
:1066C0004906884390609068A16C49060843906031
:1066D00020688168C90004D481680122120711432F
:1066E00081602068C168384A1140C160206A616ACF
:1066F000022823D000200143A06AA26B400352006D
:1067000010430143206C0143606C80030143E06C43
:10671000C00301432068C2681143C160206B014679
:10672000FF39C23905D0616B08432168CA6810433C
:10673000C860E06A0121012802D00BE00420DAE7FA
:10674000A06A002823D0A06D20221043A065E06D30
:106750000843E0656068012820681FD00169C90707
:1067600003D0016949084900016120684169C908ED
:10677000C900416120684169E26911434161E665F0
:10678000A06D80088000401CA065002070BD2068BE
:10679000C26801231B041A43C260DBE70269FF23BE
:1067A0009B009A43026120680269A36825691A4325
:1067B000E3682B431A430261206802690A430261BD
:1067C000D3E70000002701401902FEFF7047704721
:1067D000F8B50446C06B274640370D4608280BD055
:1067E0002068C068C00709D0A06D20210843A065BB
:1067F000002038750120F8BD082600E00C2600F0C6
:106800005FFA009011E0681C0FD0002D05D000F059
:1068100057FA0099401AA84207D9A06D04210843ED
:10682000A065002038750320F8BD2068006830425C
:10683000E9D0A06D012149020843A0652068C16824
:106840000C220905890F00291AD1A16A002917D144
:106850000168090714D5816801234907002908DB6D
:10686000416891434160A06D190288431843A065B7
:1068700006E0A06D20210843A065E06D1843E065A7
:10688000606C002801D1206802600020F8BD000083
:1068900070B50446216800208968490721D425463F
:1068A0004035297D01291CD001212975E16C012980
:1068B00004D02046FEF72AFA002811D1A16D0A4A19
:1068C0001140FF2201321143A1650021E1652975C4
:1068D00022681C21116021688A6804231A438A6097
:1068E00070BD022070BD0000FEF1FFFF024841684C
:1068F000490849004160704700580140024841681A
:1069000004229143416070470058014002484168A9
:10691000022291434160704700580140024841689B
:10692000012211434160704700580140024841680C
:1069300004221143416070470058014002484168F9
:1069400002221143416070470058014031B500F008
:10695000B7F9044600F0B4F90099001B8842F9D356
:1069600038BD000070B5074D04462846FFF74EFAC3
:10697000002805D10449486120602846FFF746FAFF
:1069800070BD000050C30000A40A00200348416805
:1069900001221143416000207047000000200240A6
:1069A000F8B5124F0646387C14460D46012807D02C
:1069B000012038740E48FFF729FA002802D012E0AF
:1069C0000220F8BD00207861022E04D0012E04D0F0
:1069D000002E04D004E02C6002E02C8000E02C703B
:1069E0000348FFF713FA00213974F8BDA40A002008
:1069F00050C3000005484168C90705D00449C1607B
:106A00000449C16000207047012070470020024007
:106A1000EFCDAB8905040302F8B5194E0546307C6D
:106A20000F46012807D0012030741648FFF7EEF911
:106A3000002802D021E00220F8BD00217161491E2A
:106A400039606C6813E02046FFF790F90D48FFF7B6
:106A5000DDF90D494A6808239A434A604A684B1594
:106A60009A434A60002801D03C6006E08034A9685F
:106A70006A68C9018918A142E5D800213174F8BDBE
:106A8000A40A002050C300000020024003484168CF
:106A900002221143416000207047000000200240A4
:106AA000F8B50C4C1646207C0F46012808D0012072
:106AB00020740948FFF7AAF90025002802D006E053
:106AC0000220F8BD65613E600348FFF79FF9257419
:106AD000F8BD0000A40A002050C300000948416826
:106AE00089070CD54168C90703D00749C160074928
:106AF000C160074901610749016100207047012019
:106B00007047000000200240EFCDAB89050403026E
:106B1000BFAE9D8C161514130021002803D104E08C
:106B20004008491CC9B20128FAD1034889004058DD
:106B3000002800D0004770471C0A002010B5044907
:106B40004A69024202D04861FFF7E6FF10BD00002B
:106B500000040140F0B5002296E001249440A446D0
:106B600023406ED04C68022C01D0122C0CD1D408DA
:106B7000A40027183D6A5407E40E0F26A640B5432B
:106B80000E69A6402E433E624C68012C05D0022CB3
:106B900003D0112C01D0122C11D18568540003268A
:106BA000A640B543CE68A6402E438660446865463D
:106BB000AC430D79ED06ED0F954025434560076820
:106BC00054000325A5400E79AF43B607B60FA64083
:106BD0003E430660C668AE438D68A5403543C56038
:106BE0004C68E4004FD52B4C666B01252E43666341
:106BF0009508294CAD002F19BD689407240F0F2666
:106C0000A640B54305263607B04201D100261AE05A
:106C1000224EB04201D1012615E0214EB04201D1F1
:106C2000022610E01F4EB04201D103260BE01E4E9B
:106C3000B04201D1042606E01C4EB04202D1052626
:106C400001E020E00626A6402E43BE60184D2C68C9
:106C50004E689C43F60300D51C432C606C684E685C
:106C60009C43B60300D51C436C60AC684E689C43E3
:106C7000F60200D51C43AC60EC684E689C43B6023B
:106C800000D51C43EC60521C0B681C46D44000D05D
:106C900063E7F0BD00100240000001400004005016
:106CA00000080050000C005000100050001C005064
:106CB00000040140002A01D0816170478162704761
:106CC00001480068704700005C00002070B50400B7
:106CD00006D025462035687D0026002802D005E034
:106CE000012070BD2E75204600F050F90220687515
:106CF000206801684908490001600F2160680906A1
:106D0000884321680861206882680121C9038A4399
:106D10008260A068002807D0E268012A01D0212102
:106D20008902084321688860E068022802D121684E
:106D300080024860206841680C4A114341606169E3
:106D400020690843A169090208432168C860216AD3
:106D5000E0690843216808602068026801210A434D
:106D60000260A6636975002070BD0000008000020B
:106D7000FFB5074681B006462037787D0B9C012879
:106D80007CD10A98002869D0002C67D030688069CF
:106D9000C043000472D5387D01286FD001203875BA
:106DA000622078750020B0630C98009030460299FC
:106DB00001F04AFD002808D0B06B042802D0002062
:106DC000387542E00020387548E009208002FF2C29
:106DD00009D9012300901B06FF223046029901F0D9
:106DE00097FDFF2508E001230090E2B25B063046E4
:106DF000029901F08DFD25460022042130460C9BAE
:106E000001F098FD002820D13068406A0A99641E7C
:106E100008700A98A4B2401C0A906D1E0BD0002C7A
:106E2000EAD11921304601F0BBFD002818D0B06B23
:106E3000042813D009E0002CF3D000228021304632
:106E40000C9B01F077FD002802D0032005B0F0BDB7
:106E5000FF2C01D90020BCE70020C4E70120F5E7A2
:106E600031682020C86130684168054A114041609E
:106E70000120787500203875E8E7FFE70220E5E794
:106E800000E800FEFFB5074681B006462037787D52
:106E90000B9C012875D10A98002870D0002C6ED068
:106EA00030688069C04300046BD5387D012868D004
:106EB00001203875522078750020B0630C9800903E
:106EC0003046029901F0F2FC002855D0B06B04283E
:106ED00002D0002038754CE0002038754FE00020CB
:106EE000012300901B06FF223046029901F010FD9D
:106EF000FF2509E0002001230090E2B25B06304646
:106F0000029901F005FD254630460C9901F070FD0F
:106F1000002803D0B06B042831D02AE00A983168E9
:106F2000007888620A98641E401CA4B20A906D1E04
:106F300015D0002CE8D11921304601F031FD002890
:106F4000E8D131682020C861306841680E4A11409C
:106F50004160012078750020387505B0F0BD002C27
:106F6000E9D00022802130460C9B01F0E3FC002890
:106F700002D00320F1E704E0FF2CBBD9AFE70120EA
:106F8000EBE70220E9E7000000E800FE70470000A0
:106F900070B5040003D02068C068400701D001200C
:106FA00070BD607C002803D12074204600F03CF8BE
:106FB0000220607421681A4808602068416862688D
:106FC000C908C9001143416020688168A268090BA3
:106FD0000903114381601348E168814203D12168AC
:106FE0000969814218D0FFF76BFE7D260546F60041
:106FF00007E0FFF765FE401BB04202D90320607432
:1070000070BD2068C0684007F3D120680169E2685C
:10701000090B09031143016101206074002070BD58
:1070200055550000FF0F000070470000F8B50446FA
:10703000007C012808D00126267402206074FFF726
:107040003FFE054600270CE00220F8BDFFF738FEA2
:10705000411B7D20C000814203D903206074277446
:10706000F8BD2068C068C0438007EFD52168034899
:107070000860667427740020F8BD0000AAAA00000A
:10708000F8B50446007C012812D00126267402209F
