:020000040800F2
:10000000B00900200901000893150008DD1300085D
:10001000911500085B010008971D00080000000012
:10002000000000000000000000000000DD160008D5
:100030008501000800000000B515000869190008D6
:100040002301000823010008230100082301000800
:1000500023010008230100082301000823010008F0
:1000600023010008230100082301000823010008E0
:1000700023010008230100082301000823010008D0
:1000800023010008230100082301000823010008C0
:1000900023010008230100082301000823010008B0
:1000A00000000000230100082301000823010008CC
:1000B0002301000823010008230100082301000890
:1000C0002301000823010008230100082301000880
:1000D0002301000823010008230100082301000870
:1000E0002301000823010008230100082301000860
:1000F00023010008DFF80CD000F018F80048004792
:1001000025220008B009002006488047064800471D
:10011000FEE7FEE7FEE7FEE7FEE7FEE7FEE7FEE7B7
:10012000FEE7FEE7F5190008F5000008064C074D4C
:1001300006E0E06840F0010394E8070098471034B7
:10014000AC42F6D3FFF7DAFF94220008C42200087D
:1001500040F2810CC2F2000C6047FEE730B5044665
:100160000020651804E000BF14F8011B01F003FE35
:10017000AC42F9D3002101F0FEFDBDE83040002182
:1001800001F0F9BD704700007FB5002504460095D9
:1001900000F036F90948CDE90154844209D2001B28
:1001A000000A0390694601A800F0C2F808B10120D6
:1001B000009000F0FDF8009804B070BD0000020847
:1001C00010B500F01DF9044940F602700860BDE862
:1001D000104000F0EDB80000183C02402DE9F0415D
:1001E00017460C460646002500F00AF904EB87077F
:1001F00014E021463046FFF7ABFF08B103250FE0BE
:1002000056F8201054F82020914201D0022502E037
:10021000401C2028F4D3803480360DB9A742E8D89A
:1002200000F0C6F82846BDE8F0810000074900222A
:100230004A6107490B6843F400730B600B6843F095
:1002400008030B6020F0FF00026070479405002057
:10025000043C02400F4A00211068C3050E4804D533
:10026000416941F002014161911513689B0505D573
:10027000436943F00103436141F4007113681B05B6
:1002800005D5436943F00403436141F40061116003
:1002900070470000183C02409405002070B50546E8
:1002A00000F0A0F90646114C09E0681C07D025B102
:1002B00000F098F9801BA84201D9032070BD206886
:1002C000C007F2D12068800701D502202060206895
:1002D000C00505D42068000502D42068800503D538
:1002E000FFF7B8FF012070BD002070BD183C024030
:1002F00010B5040002D0607910B106E0012010BDF5
:1003000000202071204600F006F8022060710120D4
:100310006071002010BD704731B500F063F90446EC
:1003200000F060F90099001B8842F9D338BD000045
:100330002DE9F0471C4E05460F46307C012808D0B9
:10034000012030744CF250384046FFF7A7FF18B137
:1003500027E00220BDE8F0874FF0FF313960C14649
:10036000DFF848806C6816E02046FFF75FFF4846DC
:10037000FFF794FFD8F8002022F00802C8F8002008
:10038000D8F8002022F40072C8F8002008B13C60C0
:1003900007E004F58074D5E9011201EB0221A142C6
:1003A000E2D800213174D5E794050020043C0240D6
:1003B0000348016841F0020101600020704700001D
:1003C000043C02402DE9F0410C4C16460F46207CBF
:1003D000012809D0012020744CF250384046FFF724
:1003E0005DFF002518B107E00220BDE8F0816561DE
:1003F0003E604046FFF752FF2574F6E79405002063
:100400000B480168890710D50068C00705D0084867
:1004100008490830016008490160054807490C3067
:10042000016007490160002070470120704700000B
:10043000043C0240EFCDAB8905040302BFAE9D8CA6
:10044000161514132DE9F84FDFF864B100234FF0AF
:10045000010C4FF0030A4FF00F090BF1040EA0E05E
:100460000CFA03F6324072D04C68022C01D0122CE8
:100470000ED1DC0800EB8408D8F820405D07EF0EB1
:1004800009FA07F5AC430D69BD402543C8F8205073
:1004900007685D0091F804800AFA05F408F0030883
:1004A000A74308FA05F848EA0708C0F800804F6833
:1004B000012F05D0022F03D0112F01D0122F11D1FF
:1004C0008768D1F80C80A74308FA05F848EA0708BE
:1004D000C0F808804768B7430E79C6F300169E40FF
:1004E0003E434660C668A6438C68AC403443C46053
:1004F0004C68E40054D52F4C256845F00105256073
:10050000246823F0030504F0010400942A4C2544D8
:10051000AF689C07240F09FA04F6B743274EB04290
:1005200001D1002615E0264EB04201D1012610E08F
:10053000244EB04201D102260BE0234EB04201D13D
:10054000032606E0214EB04202D1042601E027E056
:100550000526A6403E43AE60DBF800405D464E688F
:100560009443F60300D514432C60DEF80040754632
:100570004E689443B60300D514432C600C4D0835E7
:100580002C684E689443F60200D514432C60084D45
:100590000C352C684E689443B60200D514432C6089
:1005A0005B1C0A6832FA03F47FF45AAFBDE8F88F97
:1005B00000040140203802400000014000000240D9
:1005C0000004024000080240000C024000100240FB
:1005D00042694A40426170470AB18161704709042B
:1005E000FBE700000148006870470000040100209C
:1005F00002480168491C01607047000004010020A6
:1006000010B5032000F084F8002000F005F800F099
:1006100017F8002010BD000010B5044607484FF43D
:100620007A710068B0FBF1F000F09FFD00222146D6
:10063000501E00F04DF8002010BD00000801002001
:10064000224808B5016841F000410160016801F0ED
:1006500000410091011F0A6842F001020A60096826
:1006600001F001010091016841F0805101600068D2
:1006700000F080500090032000F04AF8002211465C
:100680006FF00B0000F024F8002211466FF00A0012
:1006900000F01EF8002211466FF0090000F018F873
:1006A00000221146501F00F013F800221146101FBF
:1006B00000F00EF800221146901E00F009F800220A
:1006C000BDE808401146501E00F002B82438024030
:1006D000F0B40E4B1B680C46C3F30223C3F10705AD
:1006E000042D00D90425191D072901D2002300E09B
:1006F000DB1E012606FA05F1491E214099409E4065
:10070000761E16403143F0BC00F044BF0CED00E013
:10071000064900F0070208684FF6FF03184040EA58
:100720000220034A10430860704700000CED00E00F
:100730000000FA052DE9F047DFF8BC8105460E46BA
:10074000D8F8000000F00100B04214D2012E05D10B
:10075000D8F8001041F00401C8F80010D8F80010D3
:1007600021F001013143C8F80010D8F8000000F072
:100770000100B04271D12878604C800705D520680F
:10078000A96820F0F000084320602878C00771D0E5
:100790005A4A5A4B69680120083A2C33022910D072
:1007A00003292ED001292FD05FEA402797FAA7FC12
:1007B000BCFA8CFC4CF0200C5FEA5C1C04D0126884
:1007C00003E04FF40037F1E71A6897FAA7F3B3FA9A
:1007D00083F303F01F039840024262D0206820F0A8
:1007E000030008432060FFF7FDFE6968074641F2F9
:1007F0008830022910D003291CD00129814626D037
:1008000034E04FF00077D1E70227CFE7FFF7EAFEA9
:10081000C11B494501D926E081462068C0F381000B
:100820000228F3D126E000BFFFF7DCFEC11B4945DB
:1008300001D918E081462068C0F381000328F3D174
:1008400018E000BFFFF7CEFEC11B49450BD820685A
:10085000C0F381000128F5D10CE022E0FFF7C2FED1
:10086000C11B494502D90320BDE8F087206810F07C
:100870000C0FF3D1D8F80010404601F00101B1424D
:1008800011D9012E03D1016841F004010160016812
:1008900021F0010131430160006800F00100B04225
:1008A00001D00120E0E72878400705D52068E968F5
:1008B00020F4E060084320602878000706D520680F
:1008C000296920F4605040EAC100206000F052F82D
:1008D0002168F02292FAA2F201F0F001B2FA82F25B
:1008E000D140074A515CC840064908600020FFF724
:1008F00093FE0020B8E70000003C024008380240A8
:1009000079220008080100200148006870470000B3
:100910000801002008480949006809684FF4E062AE
:1009200092FAA2F201F4E061B2FA82F2D140044AF2
:10093000515CC840704700000801002008380240A0
:100940008922000808480949006809684FF4605284
:1009500092FAA2F201F46051B2FA82F2D140044A52
:10096000515CC84070470000080100200838024070
:10097000892200081E4A116801F00C00042813D0D7
:10098000082813D00C2813D0101F006800F4604111
:100990004FF4604090FAA0F0B0FA80F0C1404FF4FC
:1009A0000040491C88407047124870471248704701
:1009B0004FF4701393FAA3F301F47010B3FA83F3B6
:1009C000D8400E4B01F440011268185C4FF440030C
:1009D00093FAA3F3B3FA83F3D940491CD20301D5A8
:1009E000054A00E0034A5043B0FBF1F070470000B5
:1009F000083802400024F400001BB70070220008F1
:100A00002DE9F84F07460078FB4EFC4DC0074FF02C
:100A1000010428D0F848083001684FF40038C1F3C9
:100A20008101022907D00168C1F3810103291BD18B
:100A30000068C00318D598FAA8F0B0FA80F040F02A
:100A40002000400901D0306800E0286898FAA8F139
:100A5000B1FA81F101F01F0104FA01F108425CD002
:100A6000786800287BD058E0786801280AD008B15F
:100A7000052811D0306820F480303060306820F4D0
:100A8000802002E0306840F480303060786828B31D
:100A9000FFF7A8FD81460BE0306840F4802030600D
:100AA000F0E700BFFFF79EFDA0EB0900642872D8B5
:100AB00098FAA8F0B0FA80F040F02000400901D088
:100AC000306800E0286898FAA8F1B1FA81F101F0E5
:100AD0001F0104FA01F10842E4D01EE0FFF782FD95
:100AE000814605E0FFF77EFDA0EB09006428DED813
:100AF00098FAA8F0B0FA80F040F02000400901D048
:100B0000306800E0286898FAA8F1B1FA81F101F0A4
:100B10001F0104FA01F10842E4D13878DFF8E082DD
:100B200080074FF0000B4FF002095FD5B248083044
:100B30000168C1F38101012907D00168C1F3810176
:100B400003291CD10068C00319D499FAA9F0B0FA9E
:100B500080F040F02000400902D0306801E086E0DB
:100B6000286899FAA9F1B1FA81F101F01F0104FA9C
:100B700001F108422BD0F868012878D127E0F86805
:100B8000A8B394FAA4F0B0FA80F048F82040FFF738
:100B900029FD824606E066E1FFF724FDA0EB0A008E
:100BA000022884D899FAA9F1B1FA81F141F0200123
:100BB000490901D0316800E0296899FAA9F0B0FA32
:100BC00080F000F01F0004FA00F00142E4D08A48EF
:100BD000001D01684FF4F85393FAA3F33A69B3FA8E
:100BE00083F321F4F8519A401143016025E0FFE7B7
:100BF00094FAA4F1B1FA81F148F821B0FFF7F2FCC0
:100C0000824605E0FFF7EEFCA0EB0A000228C8D8F8
:100C100099FAA9F0B0FA80F040F02000400901D024
:100C2000306800E0286899FAA9F1B1FA81F101F081
:100C30001F0104FA01F10842E4D138784FF4007A38
:100C4000C0067CD56C480830006810F00C0F0FD03F
:100C5000B9694FF48070002972D090FAA0F0B0FA10
:100C600080F048F82040FFF7BDFC00907EE087E070
:100C70009AFAAAF0B0FA80F040F02000400901D0C2
:100C8000306800E028689AFAAAF1B1FA81F101F01F
:100C90001F0104FA01F1084202D0B86900286FD0A0
:100CA0005548396A001D006800F4604081421AD935
:100CB000084600F081FC002862D14F48001D016801
:100CC0003A6A21F460411143016001684FF07F43AB
:100CD00093FAA3F3FA69B3FA83F321F07F419A40C0
:100CE0001143016018E04448001D026822F460428C
:100CF0000A43026001684FF07F4393FAA3F3FA6955
:100D0000B3FA83F321F07F419A4011430160386ABE
:100D100000F052FC0028CFD14FF4604191FAA1F1CC
:100D2000386AB1FA81F1C8404FF40041401C81405B
:100D3000314808300068F02200F0F00001E070E077
:100D400040E092FAA2F2B2FA82F2D0402D4A105C50
:100D5000C1402D4801600020FFF75EFC61E000BF4C
:100D6000FFF740FC0099401A02287CD89AFAAAF0B2
:100D7000B0FA80F040F02000400902D0306801E075
:100D8000BCE128689AFAAAF1B1FA81F101F01F01D9
:100D900004FA01F10842E3D01748001D01683A6ADD
:100DA00021F460411143016001684FF07F4393FAE1
:100DB000A3F3FA69B3FA83F321F07F419A40114318
:100DC00001602EE090FAA0F0B0FA80F048F820B070
:100DD000FFF708FC009005E0FFF704FC0099401ABB
:100DE0000228C2D89AFAAAF0B0FA80F040F02000A7
:100DF00040090BD030680AE0003802403438024025
:100E000000004742792200080801002028689AFA69
:100E1000AAF1B1FA81F101F01F0104FA01F10842CF
:100E2000DAD13878000753D5786948B394FAA4F03A
:100E3000B0FA80F008EB8000C0F88046FFF7D2FBE4
:100E4000009005E0FFF7CEFB0099401A02288CD8ED
:100E500099FAA9F0B0FA80F040F04000B4EB501FCE
:100E600002D1306801E08EE0286899FAA9F1B1FA60
:100E700081F101F01F0104FA01F21042E2D027E0F3
:100E800094FAA4F1B1FA81F108EB8101C1F880B6BE
:100E9000FFF7A8FB009005E0FFF7A4FB0099401ABC
:100EA000022870D899FAA9F0B0FA80F040F040001A
:100EB000B4EB501F01D1306800E0286899FAA9F11D
:100EC000B1FA81F101F01F0104FA01F21042E3D1FD
:100ED000387840077BD59B484FF000090068C00078
:100EE0000AD49848016841F08051016000684FF0D1
:100EF000010900F08050009093480168C90511D4A1
:100F0000016841F480710160FFF76CFB009005E01F
:100F1000FFF768FB0099401A642834D88A480068B3
:100F2000C005F5D5B86801280AD008B1052811D048
:100F3000286820F480702860286820F4806002E02F
:100F4000286840F480702860B86848B3FFF74AFB0F
:100F500000900DE0286840F480602860F0E700BF52
:100F6000FFF740FB0099411A41F2883081420AD8CC
:100F70009AFAAAF0B0FA80F040F04000B4EB501FAB
:100F800002D1306801E095E028689AFAAAF1B1FA36
:100F900081F101F01F0104FA01F21042E0D022E0D9
:100FA000FFF720FB009007E0FFF71CFB0099411AB8
:100FB00041F2883081427DD89AFAAAF0B0FA80F0E6
:100FC00040F04000B4EB501F02D1306801E012E065
:100FD00028689AFAAAF1B1FA81F101F01F0104FA26
:100FE00001F21042E0D1B9F1000F04D05548016878
:100FF00021F080510160786AE8B3DFF84891A9F1E7
:101000001C09D9F80010C1F38101032976D0022808
:101010004FF080714FF0007A58460BD091FAA1F151
:10102000B1FA81F148F82100FFF7DCFAB046074633
:1010300056466DE04FF0807191FAA1F1B1FA81F15D
:101040008A0042495050FFF7CDFAB34680465646D3
:1010500006E000BFFFF7C6FAA0EB0800022854D84C
:1010600096FAA6F0B0FA80F040F02000400903D0D4
:10107000DBF8000001E061E0286896FAA6F1B1FA19
:1010800081F101F01F0104FA01F10842E2D1D7E930
:101090000A103A6BD9F80030014323F47D031A4358
:1010A0001143C9F800104FF0807090FAA0F0B0FA28
:1010B00080F000E029E0810024480C50FFF792FA0C
:1010C000074604E0FFF78EFAC01B02281DD896FAE7
:1010D000A6F0B0FA80F040F02000400902D0DBF822
:1010E000000000E0286896FAA6F1B1FA81F101F05B
:1010F0001F0104FA01F10842E4D01FE020E000BF24
:10110000FFF770FAC01B022802D90320BDE8F88F50
:1011100096FAA6F0B0FA80F040F02000400902D024
:10112000D8F8000000E0286896FAA6F1B1FA81F13B
:1011300001F01F0104FA01F10842E1D10020E5E7C6
:101140000120E3E7243802400070004000004742DD
:101150004FF0E0210428086903D020F00400086162
:10116000704740F00400FAE7704710B5401EB0F138
:10117000807F01D3012010BD4FF0E02460610F217A
:10118000601700F007FA0020A0610720206100200E
:1011900010BD10B5FFF7E8FF10BD70B5040004D016
:1011A00094F83900002510B106E0012070BD84F8E4
:1011B0003850204600F020F8022084F839002068DA
:1011C000C16821F40051C160204600F03BFC20685A
:1011D000016921F4904101612068416921F02A01EF
:1011E00041612068C16841F40051C160E56301209C
:1011F00084F83900002070BD00B500680E4987B042
:10120000884217D10D48016841F4804101600068AF
:10121000694600F4804005904FF4C06000900220C1
:1012200001900120029003200390072004900448BD
:10123000FFF708F907B000BD003801402038024030
:10124000000002402DE9F047044690F83900994625
:101250000D46012801D0122858D12DB322B394F89D
:101260003800012852D0012684F838600027E7634F
:1012700094F8390012281AD05FF0220084F839005F
:10128000A285E2854FF48058E08D4B46401EE085F4
:10129000A0684FF0000240454FF02001204616D1D3
:1012A00000F020FDB0B904E00120BDE8F087322055
:1012B000E4E7206900282068406803D0C1B225F81F
:1012C000011B12E0C0F3080125F8021B0DE000F03D
:1012D00009FD08B10320E8E720690028206840687C
:1012E00001D000F07F0005F8010BE08D0028CBD184
:1012F00094F83900322805D084F8396084F83870C1
:101300000020D2E7122084F83900F7E70220CCE76A
:101310002DE9F047044690F8390099460D4601281A
:1013200001D0222858D12DB322B394F838000128D7
:1013300052D0012684F838600027E76394F839001A
:1013400022281AD05FF0120084F83900A284E284C7
:101350004FF48058E08C4B46401EE084A0684FF06C
:10136000000240454FF08001204613D100F0BAFC46
:1013700008BB04E00120BDE8F0873220E4E72888BC
:101380002168C0F308004860206908B16D1C08E0BE
:10139000AD1C06E000F0A6FC68B9216815F8010B49
:1013A0004860E08C0028D5D14B46002240212046E1
:1013B00000F098FC08B10320DDE794F839003228EA
:1013C00006D084F8396000BF84F838700020D2E776
:1013D000222084F83900F7E70220CCE7FEE700007E
:1013E00007480168074A1140B1F1005F07D1416821
:1013F000054A51601160006880F30888084770470B
:10140000004000080000FE2FF4000020F0B500228C
:101410000D4B154614460A27B1FBF3F630368654B9
:10142000B1FBF3F603FB1611B3FBF7F3521C86185E
:1014300016F8016C302E00D125B16D1C641C0A2CED
:10144000EAD3F0BD0022F9E700CA9A3B30B50F4855
:1014500087B0016841F00101016000680C4D00F0A7
:1014600001004FF400440590002221462846FFF772
:10147000B3F80120CDE90040002002900320039042
:1014800069462846FEF7DEFF07B030BD1C38024033
:1014900000000240174808B5154901604FF4E131DA
:1014A0004160002181600C22C160C0E904128161A9
:1014B000C161FFF772FE18B142210FA000F0A2FE39
:1014C0001148016841F4805101600068104900F43E
:1014D000805000900D4808600846FEF709FF00287C
:1014E00005D0BDE808404A2103A000F08BBE08BD2E
:1014F000003801400C0100202E2E2F5372632F75EF
:10150000736172742E6300001C3802400030024088
:10151000FC000020124910B50868124A124C904293
:101520000AD112A000F07CF900F0DAF8002816D1F8
:10153000204600F083F90BE00868104988420ED17C
:10154000204600F07BF90EA000F06AF900F016F9D1
:101550006420FEF7E1FEBDE81040FFF741BF10BD7B
:10156000003F000878563412682457132B444F5715
:101570004E4C4F41443A4F4B0D0A000021436587C2
:101580002B55504C4F41443A4F4B0D0A0000000080
:10159000FEE770470907090E002806DA00F00F0081
:1015A00000F1E02080F8141D704700F1E02080F881
:1015B000001470477047000038B51C4900230968C3
:1015C0001B4A11F0F00F23D118491C310C68E500BB
:1015D000184C03D5216801F4C0540EE00D6845F0A5
:1015E00080550D600D6805F08055009524680D68E4
:1015F00004F4C05425F080550D60B4F5C05F07D1E8
:10160000B0F5404F04D11068012340F00400106091
:10161000106820F0010018431060106800F001000D
:10162000984201D0012038BD002038BD0838024062
:10163000003C0240007000402DE9F84300240F46B2
:101640000646904613460C60012269462248FFF781
:10165000F9FD050020D19DF80000182820D006DCF7
:1016600001280BD002280BD0042804D104E0412823
:1016700027D0612825D0012530700DE0802401E0BD
:101680004FF480643070221D4346B11C1248FFF7AE
:10169000D9FD050017D0002428463C60BDE8F8833A
:1016A0004346012269460C48FFF7CCFD18B99DF866
:1016B0000000182803D001259DF80000DCE7022473
:1016C000DAE70225D8E7F178B07881F0FF018842A7
:1016D000E2D000240125DFE70C0100207047000064
:1016E00038B500200090684600F056FB04000BD08F
:1016F000052C0BD0042C0BD0022C0BD006A000BF65
:1017000000F08EF8204638BD08A0F9E70CA0F7E7F6
:1017100010A0F5E714A0F3E72B444F574E4C4F4170
:10172000443A454D5054590D0A0000002B444F5780
:101730004E4C4F41443A535543434553530D0A00D1
:101740002B444F574E4C4F41443A4C494D49540D50
:101750000A0000002B444F574E4C4F41443A46413B
:10176000494C45440D0A00002B444F574E4C4F4105
:10177000443A41424F525445440D0A0008B50020F6
:101780008DF80000431E012269460B48FFF75AFD01
:101790009DF8000043280ED14FF4A03207A14FF06E
:1017A000006000F0C3FB8DF8000008B109A000E064
:1017B0000DA000F035F808BD0C0100204C315F4C45
:1017C0006F52614D61634669726D776172652E6219
:1017D000696E00002B55504C4F41443A4641494CEC
:1017E00045440D0A000000002B55504C4F41443A2F
:1017F000535543434553530D0A00000001B50748B4
:1018000090F83910032902D1012180F8391064239E
:10181000012269460148FFF77BFD08BD0C0100204D
:10182000002201E0521C92B2815C0029FAD10146EB
:1018300064230148FFF76CBD0C0100207FB5002533
:1018400004460395FEF7DCFD00950C4D0120CDE923
:10185000015003A96846FEF76BFD10B108A0FFF721
:10186000DFFF224629460220FEF7ACFD10B10AA098
:10187000FFF7D6FFFEF79CFD7FBD0000003F00088C
:10188000464C415348204572617365204661696C3E
:101890002E2E2E0D0A000000464C41534820577250
:1018A000697465204661696C2E2E2E0D0A000000B9
:1018B000F0B5054600242A7820462346302A2ED14A
:1018C0006A78782A01D0582A29D102241CE000BF66
:1018D000A2F14106052E07D9A2F16107052F03D910
:1018E0001136092E04D913E0A2F13007092F01D8CF
:1018F000303A04E0052E01D8373A00E0573A641C2C
:1019000002EB03130B2C04D22A5D002AE0D103E082
:1019100000202A5D002A01D101200B60F0BD2A5D64
:1019200062B16B2A01D04B2A02D10CB19B0205E0B7
:101930006D2A01D04D2A04D11CB11B0501200B607A
:101940000AE0A2F13006092E0CD803EB83036FF0F6
:101950002F0606EB43031344641C0B2CDED2012834
:10196000DDD1F0BD0020F0BD10B5FEF741FEBDE8B1
:101970001040FFF70EBC00001D4800B5016893B091
:1019800021F4C05141F400610160012000900190F8
:1019900002200990C0030A904FF440200B904FF4AE
:1019A00000000C906846FFF72BF800B1FEE70F200F
:1019B0000D9003200E9000200F90109011900121A7
:1019C0000DA8FEF7B7FE00B1FEE7FEF79DFF4FF44E
:1019D0007A71B0FBF1F0FFF7C8FB0420FFF7B8FB0A
:1019E00000221146501EFEF773FE13B000BD00002A
:1019F000007000400F48016841F4807101600D499A
:101A000008310A680C4B1A400A6002680B4B1A40F6
:101A10000260026822F480220260086820F47D00DF
:101A200008600020091D086005494FF0006008604B
:101A300070470000003802400CC0FF88FEFFFEEE39
:101A400008ED00E02DE9F041044600680169E26814
:101A500021F44051114301612169A068E269084302
:101A60006169114308432168CA6849F20C639A43CB
:101A70000243CA6020684169A26921F440711143A0
:101A80004161E1696425B1F5004F954821684FF047
:101A900032083DD081427AD1FEF754FF00EBC001FD
:101AA00001EB001061688900B0FBF1F6FEF74AFF18
:101AB00000EBC00101EB001061688900B0FBF1F0A0
:101AC000B0FBF5F06FF01801484306EB800108EB1E
:101AD0000110B0FBF5F000F0F006FEF733FF00EB6D
:101AE000C00101EB001061688900B0FBF1F0B0FBB0
:101AF000F5F006EB0016FEF725FF00EBC00101EB49
:101B0000001061688900B0FBF1F7FEF71BFFD0E021
:101B100081423DD1FEF716FF00EBC00101EB001042
:101B200061684900B0FBF1F0B0FBF5F00601FEF78B
:101B300009FF00EBC00101EB001061684900B0FB38
:101B4000F1F7FEF7FFFE00EBC00101EB001061684A
:101B50004900B0FBF1F0B0FBF5F06FF0180148431D
:101B600007EB800108EBC100B0FBF5F000F0F800D6
:101B700006EB4006FEF7E6FE00EBC00101EB0010AD
:101B800061684900B0FBF1F7FEF7DCFE3CE055E090
:101B9000FEF7C0FE00EBC00101EB001061684900D8
:101BA000B0FBF1F0B0FBF5F00601FEF7B3FE00EB81
:101BB000C00101EB001061684900B0FBF1F7FEF7CE
:101BC000A9FE00EBC00101EB001061684900B0FB09
:101BD000F1F0B0FBF5F06FF01801484307EB80011E
:101BE00008EBC100B0FBF5F000F0F80006EB400692
:101BF000FEF790FE00EBC00101EB001061684900A8
:101C0000B0FBF1F7FEF786FE00EBC00101EB001020
:101C100061684900B0FBF1F0B0FBF5F06FF018011E
:101C2000484307EB800108EBC100B0FBF5F000F082
:101C30000700216830448860BDE8F081FEF76AFE45
:101C400000EBC00101EB001061688900B0FBF1F608
:101C5000FEF760FE00EBC00101EB00106168890037
:101C6000B0FBF1F0B0FBF5F06FF01801484306EB64
:101C7000800108EB0110B0FBF5F000F0F006FEF774
:101C800049FE00EBC00101EB001061688900B0FB68
:101C9000F1F0B0FBF5F006EB0016FEF73BFE00EBB3
:101CA000C00101EB001061688900B0FBF1F7FEF79D
:101CB00031FE00EBC00101EB001061688900B0FB50
:101CC000F1F0B0FBF5F06FF01801484307EB80012D
:101CD00008EB0110B0FBF5F000F00F00A9E70000E1
:101CE000003801402DE9F0471D4690460E46044657
:101CF000FEF778FC07465FEA08004FF000094FF056
:101D0000010808D030E0681C05D095B1FEF76AFCE8
:101D1000C01BA8420DD82068006836EA0000F2D146
:101D200027E0681C20D025B1FEF75CFCC01BA84250
:101D30001AD92068C16821F08001C1602068C1689B
:101D400021F02001C1602068C16821F48071C16068
:101D50002068416921F00101416184F8398084F8EB
:101D600038900320BDE8F0872068006836EA00005C
:101D7000D7D00020F6E741F4807141F22102400003
:101D80004900CB0500D5401CC30300D55040CB0310
:101D9000F5D580B27047FEE72DE9F14F0027DFF857
:101DA00078A188B03E46B9463C46D346ACE000BF79
:101DB0004FF000084546A3E042F2107204A95748CC
:101DC000FFF73AFC60B1022868D0B9F1000F00D0EB
:101DD000761C052E7AD91820FFF710FD18208DE00B
:101DE0000498002660B1022805D04C498B78434501
:101DF0000BD0152082E00620FFF700FD02247FE0D3
:101E00000620FFF7FBFC01257AE0B8F1000F14D0A3
:101E100082085846091DFEF7E1F9E8B31820FFF7DC
:101E2000EDFC1820FFF7EAFC5FF0040408F1010064
:101E300000F0FF084FF0010962E0087968B3002064
:101E4000374B091D02E01A54401C491C0A780AB19C
:101E50004028F8D34FF0000C03F800C060466B46F2
:101E600001E01A54401C11F8012F202A01D010283B
:101E7000F7D303F800C006A91846FFF719FD089824
:101E80006FF4A0310068C84215D918204FF48014AF
:101E90008DF81400234602E01FE018E028E001223C
:101EA00005A92048FFF734FA2346012205A91D4859
:101EB000FFF72EFA05245046FEF766F908980699B2
:101EC00001600620FFF79AFC43200EE015E0062093
:101ED000FFF794FC01252F4612E04FF40041124811
:101EE000FEF776FB049906208B44FFF787FC9DE7FD
:101EF0001820FFF783FC18207EE74320FFF77EFCC5
:101F000055EA04003FF458AF57EA04003FF450AFDD
:101F100009B02046BDE8F08F004000084C010020C9
:101F2000520500200C010020000002402DE9F74F6F
:101F300086B04FF0000A0120AF4E019001220898B0
:101F4000727086F802A0FF23D04655465746F370BC
:101F5000544604E006EB040C641C8CF804300B5D62
:101F60000BB1402CF6D3321900211171014602A8A1
:101F7000FFF74CFA02A8641D02E03155641C7F1C77
:101F8000C15D0029F9D14FF48019DFF86CB202E08D
:101F900000203055641C842CFAD31FE05C464E466A
:101FA0004B468322611C9548FFF7B2F98021201D22
:101FB000FEF7D4F80446000AFFF720FCE0B2FFF772
:101FC0001DFC3346012269468C48FFF73BF960B19E
:101FD0000AF1010ABAF1050F00D3012558EA0500FC
:101FE000DCD006980290089C82E09DF8000006284C
:101FF00015D01828EED13346012269467F48FFF7F5
:1020000021F90028E6D19DF800001828E2D102202D
:10201000FEF782F97948006840680225DAE74FF058
:102020000108D7E74FF400417548FEF7D1FADDE922
:102030000103714AC6B24FF480672046BC4201D307
:10204000394600E08021884200D30846B1F5806F10
:1020500007D0012757709670F643D6700426071DE7
:1020600007E00227F6E700BF13F801CB02F806C02D
:10207000761CBE42F8D3884207D81A23001D091DDA
:1020800001E01354401C8842FBD34FF0000A8DF846
:1020900000A0574629E000BF4FF48066B44200D24A
:1020A0008026F21C4B46D8460BF101015348FFF73E
:1020B0002FF9802108F10400FEF750F88046000A4D
:1020C000FFF79CFB08F0FF00FFF798FB4B4601224F
:1020D00069464A48FFF7B6F818B99DF80000062887
:1020E00011D07F1C052F00D301255AEA0500D3D05B
:1020F0000CB1002D96D0002426468DF800402746CE
:10210000DFF8F8801FE002984FF0010A3044B44233
:10211000029008D90198A41B502802D0401C0190BD
:10212000E0E70525DEE70024DCE70420FFF766FB97
:102130004B46012269463148FFF784F840B17F1CC5
:10214000052F00D3012554EA0500EED0E5B14EE09D
:102150009DF80000062815D01828F1D14B46012221
:1021600069462648FFF76EF80028E9D19DF800007F
:102170001828E5D10220FEF7CFF8D8F80000406813
:102180000225DDE70124DBE701208BF801008BF855
:102190000260FF208BF803005C4604202654401C9C
:1021A000C0B28428FAD34E464B468322611C1348A2
:1021B000FFF7AEF88021201DFDF7D0FF0446000A8E
:1021C000FFF71CFBE0B2FFF719FB3346012269461B
:1021D0000A48FFF737F850B99DF80000182806D1D3
:1021E0000220FEF799F8D8F800004068022509B0EF
:1021F0002846BDE8F08F00004C0100200C010020B3
:1022000000000240FEE702E008C8121F08C1002AD1
:10221000FAD170477047002001E001C1121F002A67
:10222000FBD17047FEF7ECF9FFF7A6FBFFF70EF9BD
:102230000122D1030A48FEF7CFF90A4801680A4A89
:10224000914203D000680949884206D1FDF7B8FFE2
:10225000FFF720F9FFF75EF901E0FFF7C1F8FEE7AD
:1022600000000240003F0008785634122143658781
:10227000030406080C1018203000000000000000C5
:102280000001020304060708090000000001020320
:1022900004000000C422000800000020F400000038
:1022A00006220008B8230008F400002018000000EF
:1022B00006220008D02300080C010020A40800001A
:1022C000162200081D4900E0401E0A68D20702D00D
:1022D0000028F9D12EE068B30868800701D50220F4
:1022E00008600868C00505D40868000502D40868BD
:1022F000800521D508680022C305114805D542692B
:1023000042F0020242614FF480720B689B0505D5D2
:10231000436943F00103436142F400720B681B05FB
:1023200005D5436943F00403436142F400620A6047
:10233000012070470320704700207047183C02407E
:10234000940500202DE9F0474FF0E0280E46D8F81C
:1023500008100746002541F00101C8F808104CF2AA
:1023600050394846FFF7AEFFD8B9124C206840F408
:1023700080602060206840F00800206072B601CEC6
:1023800047F825006D1C202DF9D34846FFF79AFF2A
:1023900062B6216821F008012160216821F4806182
:1023A0002160D8F8082022F00102C8F80820BDE812
:1023B000F0870000043C0240000000000000000024
:1023C00000000000000000000000000068FF1F0087
:10400000983F00200941000865C5000813410008D9
:1040100025C40008675700085D3A01080000000049
:104020000000000000000000000000001B4100082C
:10403000C15C0008000000001F4100086928010859
:1040400023410008234100082341000823410008C0
:104050002341000823410008915E0008DB5E000850
:10406000EB5E0008FB5E00080B5F000823410008C0
:104070002341000823410008234100082341000890
:104080002341000823410008234100082341000880
:104090002341000823410008234100081B5F00085A
:1040A00000000000234100082341000823410008CC
:1040B000234100082D2A010823410008234100085C
:1040C0002341000823410008234100082341000840
:1040D0002341000865330108713301087D3301086D
:1040E000A15E0008D5E30008234100082341000831
:1040F00023410008DFF80CD000F022FD0048004703
:1041000021580108983F002006488047064800478C
:10411000FEE7FEE7FEE7FEE7FEE7FEE7FEE7FEE777
:10412000FEE7FEE7DD290108F540000840EA01034B
:104130009B0703D009E008C9121F08C0042AFAD25D
:1041400003E011F8013B00F8013B521EF9D2704721
:10415000D2B201E000F8012B491EFBD270470022C9
:10416000F6E710B513460A4604461946FFF7F0FF76
:10417000204610BD421E12F8013F002BFBD111F862
:10418000013B02F8013B002BF9D1704710B5044602
:1041900004E00B7800F8013B03B1491C521EF8D231
:1041A000204610BD421C10F8011B0029FBD1801ACB
:1041B000704730B504460020034600E05B1C934284
:1041C00003D2E05CCD5C401BF8D030BD034611F853
:1041D000012B00F8012B002AF9D118467047F0B4E2
:1041E00080EA0102D40F4200B2EB410F02D2024634
:1041F000084611464A0042D0C30DDDB2C1F3C75292
:10420000AD1A202D35DAC1F3160141F4000204B1D4
:104210005242C5F1200602FA06F12A411044B3EBDE
:10422000D05F23D0C4B1012DA0EBC35009DCF0BC9A
:104230004FF0004202EAC352DBB200F5000000F08A
:1042400098BB400000F1807000EBC350A0F180707B
:1042500040EAD170490009E0490841EAC071A0EB89
:10426000C35000F50000400800EBC350F0BC00F064
:1042700077BB6142012202EB4101001BF6E7F0BC73
:10428000704781F00041AAE780F00040A7E780EA8C
:10429000010210B502F00043400022D04A001FD0B6
:1042A000010E01EB1261C0F35600C2F3560240F456
:1042B000000042F40002A0FB022000047F39140435
:1042C00000D0401C50EA124001D44000491EC2B246
:1042D0000C0604EBD010401C4008802A02D003E0FA
:1042E000002010BD20F00100002900DA0020184352
:1042F00010BD30B480EA010202F0004530F0004207
:1043000021F0004013D090B1C30DD40DC2F31601BB
:10431000C0F31600E41A41F4000140F400027D34B9
:10432000914201D3641C00E04900002C02DA30BC49
:10433000002070474FF400000023914201D3891AF6
:10434000034340084FEA4101F7D151B1914202D1F4
:104350004FF0004105E002D24FF0010101E06FF0A3
:10436000010103EBC450284430BC00F0F9BA2DE938
:10437000FE4F804681EA0300C00F0C46009021F0FA
:10438000004123F00045B8EB0200A94105D24046A8
:10439000214690461C460B46024623F0004010433F
:1043A00047D0270DC7F30A00C3F30A510290401A01
:1043B000019040286BDAC3F3130040F4801B00988F
:1043C000924620B10023D2EB030A63EB0B0B01985A
:1043D0005946C0F14002504600F091FA06460D469B
:1043E00050465946019A00F0A9FA10EB08006141C5
:1043F000002487EA115284EAE7731A4340D0009AF6
:1044000062B3019A012A4FEA075215DC001B61EBE7
:1044100002014FF0004202EA0752CDE90042001CBF
:1044200041F5801132462B4600F0E0FA03B0BDE8BA
:10443000F08F40462146F9E7001B61EB0201001CAA
:1044400041F5801300185B412018A2F5001747EBD7
:10445000030140EAD570B6196D4111E06D084FEACD
:10446000360645EAC0754FEA0752001B61EB0201B0
:10447000001C41F5801149084FEA300000195141F4
:1044800032462B4603B0BDE8F04F00F0A0BA0098CA
:10449000012240000023D0EB020263EBE07300989E
:1044A00021464FEAE074B8EB000061EB0401E9E754
:1044B00083F000435BE781F0004158E72DE9FE4FB0
:1044C00081EA030404F0004421F0004100944FF01D
:1044D000000B23F0004350EA01045ED052EA0304CB
:1044E0005BD0C3F30A54C1F30A552C44A4F2F3344D
:1044F0000194A0FB0254C1F3130141F48011C3F3F2
:10450000130343F4801301FB024400FB034E840AAF
:10451000970A44EA815447EA8357A4FB0768029547
:104520008D0A05FB07854FEA932C04FB0C542705E5
:10453000029D4FEA065847EA1637B5EB08056EEBC1
:10454000070C870E920E47EA811742EA8312A7FBF7
:104550000201B6EB0B0164EB00042B0D43EA0C33B4
:104560005E1844EB1C50DA465146E7FB0201C5F3E6
:1045700013044FEA0B3343EA14534FEA0432019C0D
:1045800043EA0603A4F10C040294009CCDE900B4B4
:1045900000F02CFA03B0BDE8F08F00200146F9E7E7
:1045A0002DE9F04D81EA030404F0004B21F00045B1
:1045B00014464FF0000A23F0004150EA050220D0D3
:1045C00054EA01021DD0C5F30A570246C5F313038E
:1045D000C1F31300C1F30A5640F4801543F480136D
:1045E000A7EB0608101BD64608F2FD3873EB050052
:1045F00002D308F1010801E092185B41B8F1000F05
:1046000003DA00200146BDE8F08D00204FF4801150
:10461000064684460EE0171B73EB050705D3121BF5
:1046200063EB050306434CEA010C49084FEA3000EE
:1046300092185B4150EA0107EDD152EA030012D013
:1046400082EA040083EA0501084305D0101BAB4150
:1046500006D20122002306E000224FF0004302E0D0
:104660006FF0010253101AEB06004CEB085110EBEF
:104670000A0041EB0B01BDE8F04D00F0A8B970B5A0
:1046800021F0004303430CD0C1F30A550024D5EBBD
:10469000040564EB0403D617AD1AB34102DB002016
:1046A000014670BD201841EB025170BDC10F80EA78
:1046B000E0700844CA079623002100F05AB99623F7
:1046C0000022114600F055B90EB5C10F80EAE07026
:1046D0000844CA07002140F233438DE80E000A4621
:1046E0000B4600F083F903B000BD0EB540F2334134
:1046F00002910021CDE900110A460B4600F076F93F
:1047000003B000BD20F00040C10DC0F3160040F41E
:1047100000007F2901DA00207047962903DCC1F1EF
:104720009601C840704796398840704770B5C1F30C
:104730000A5201F000450024C1F3130140F2FF3397
:1047400041F480119A4201DA002070BD40F23343F7
:104750009A42A2F2334203DC524200F0DFF800E05A
:1047600090402C43F1D0404270BDC1F30A5210B5C5
:10477000C1F3130140F2FF3341F480119A4201DA90
:10478000002010BD40F233439A42A2F2334203DCD0
:10479000524200F0C3F810BD904010BD00F000423E
:1047A00030F000400AD0C10D01F56071C0F3160071
:1047B00042EA0151C20840071143704700200146F8
:1047C0007047000030B5041E71F1000404DB4FF0A7
:1047D0000044404264EB0101141E73F1000405DB48
:1047E0001C464FF00043524263EB04038B4208BF68
:1047F000824230BD30B5041E71F1000404DB4FF07D
:104800000044404264EB0101141E73F1000405DB17
:104810001C464FF00043524263EB0403994208BF29
:10482000904230BD01F0004330B421F0004150EA25
:10483000010206D00A0DA2F56072C1F31301002A2D
:1048400002DC30BC00207047440F44EAC104C100C0
:10485000E01830BC00EBC25000F082B8002801DB49
:10486000C0F10040002901DBC1F1004188427047DE
:1048700030B50B46014600202022012409E021FA30
:1048800002F59D4205D303FA02F5491B04FA02F52D
:104890002844151EA2F10102F1DC30BD2DE9F05FC4
:1048A0000546002092469B4688460646814640249F
:1048B0001BE0284641464746224600F02FF8534663
:1048C0005A46C01A914110D311461846224600F0AC
:1048D00016F82D1A67EB01084F46224601200021E9
:1048E00000F00DF817EB00094E41201EA4F1010461
:1048F000DFDC484631462A464346BDE8F09F202A81
:1049000004DB203A00FA02F1002070479140C2F126
:10491000200320FA03F3194390407047202A04DB58
:10492000203A21FA02F00021704721FA02F3D04028
:10493000C2F120029140084319467047202A06DB45
:10494000CB17203A41FA02F043EAE07306E041FA5D
:1049500002F3D040C2F1200291400843194670474B
:104960000029A8BF7047401C490008BF20F0010083
:10497000704710B4B0FA80FC00FA0CF050EA010461
:1049800004BF10BC704749B1CCF1200421FA04F4F3
:1049900011FA0CF118BF012121430843A3EB0C01CC
:1049A000CB1D4FEA00614FEA102042BF002010BC2F
:1049B000704700EBC35010440029A4BF10BC7047DF
:1049C000401C490008BF20F0010010BC704710B522
:1049D000141E73F1000408DA401C41F10001921822
:1049E0005B411A4301D120F0010010BD2DE9F04DCB
:1049F00092469B4611B1B1FA81F202E0B0FA80F220
:104A000020329046FFF77BFF04460F4640EA0A003B
:104A100041EA0B0153465A46084313D0114653EA64
:104A2000010019D0C8F140025046FFF777FF054654
:104A30000E46504659464246FFF761FF084305D0EF
:104A4000012004E020463946BDE8F08D00200543F2
:104A500046EAE0762C4337430A986305E40AA0EB64
:104A600008000022FD0A44EA47540A3002D500201B
:104A70000146E9E7010510196941DDE9084500191A
:104A80006941BDE8F04DA2E72DE9F041054621F06E
:104A900000400C46284309D0C4F30A5040F2334189
:104AA000884205DD28462146BDE8F0812846FBE71F
:104AB00040F2FE31884210DC0CDB4FEA043040EA61
:104AC000155050EA053105D0104804F0004101436B
:104AD0000020E9E700200146E6E7A0F23340464225
:104AE000C6F1400228462146FFF709FF07468846DF
:104AF000284621463246FFF711FF43463A46FFF764
:104B000066FF3246BDE8F041FFF7F9BE0000F03F16
:104B1000C1F30A52C1F3130140F2FF3341F4801193
:104B20009A4202DA00200146704740F233439A422B
:104B3000A2F2334202DC5242FFF7F0BEFFF7DFBEC3
:104B4000064C074D06E0E06840F0010394E80700DA
:104B500098471034AC42F6D3FFF7D0FAA8680108A2
:104B6000C868010870B58C1810F8015B15F00703D0
:104B700001D110F8013B2A1106D110F8012B03E0F6
:104B800010F8016B01F8016B5B1EF9D12B0705D4FE
:104B90000023521E0DD401F8013BFAE710F8013B47
:104BA000CB1A921C03E013F8015B01F8015B521E63
:104BB000F9D5A142D8D3002070BD70B50446006875
:104BC0000168C94349061BD4816821F00101816055
:104BD00003F0FEFB05460EE003F0FAFB401B022843
:104BE00009D9E06C40F01000E064206D40F0010055
:104BF0002065012070BD20680068C0434006EBD5E9
:104C0000002070BDF8B500260446009600680168D3
:104C1000C943490629D5816841F0010181601448E2
:104C200014490068B0FBF1F000EB400000E0401ECA
:104C300000900028FBD103F0CBFB054610E003F009
:104C4000C7FB401B02280BD9E06C40F01000E06469
:104C5000206D40F00100206584F848600120F8BD17
:104C600020680068C0434006E9D40020F8BD000079
:104C70006000002040420F000B4910B50020C871B1
:104C80000A48012100F83D1FC1794EF660204143DA
:104C900041F2707011F020F90DF00AFA0448C16F6A
:104CA000BDE8104003A0084700000020742A00203F
:104CB000400900204569787420414452206A757388
:104CC00074206D6F64650D0A0000000070B588B037
:104CD0000C46054610220021684610F089FF6946FF
:104CE000224608460FF0FCFC9DF800006A460006CC
:104CF0004FF000000FD51318115C5B78490041EAB2
:104D0000D3111154401C0F28F5DB9DF80F00400013
:104D100080F087000CE01318115C5B78490041EAD1
:104D2000D3111154401C0F28F5DB9DF80F004000F3
:104D30008DF80F00D4F81401102815D09DF800004C
:104D40004FF0000100061BD55318505C5B78400003
:104D500040EAD3105054491C0F29F5DB9DF80F0091
:104D6000400080F0870018E000202118165C91F8C0
:104D70000131401C734081F801311028F5DB29E036
:104D80005318505C5B78400040EAD3105054491CE3
:104D90000F29F5DB9DF80F0040008DF80F00D4F8C7
:104DA000143104F2011180205854002300E04354D0
:104DB000D4F81401401CC4F814011028F7D30020C3
:104DC0002118165C91F80131401C734081F80131C3
:104DD0001028F5DB00202118401C11F8F12F0B7C66
:104DE0005A400A701028F6DB102204F1F10104A8E1
:104DF00010F0EAFE2246294604A80FF071FC1022AA
:104E00000021684610F0F4FE08B070BD10B50446ED
:104E100010220021F13010F0EBFE00200146C4F812
:104E200014012046BDE81040F02210F0E1BE0B4610
:104E30000246102118460FF07BBC2DE9FF470546BE
:104E4000D0F814010E46144605F2011805F1F109D7
:104E500018B3C0F11007A74200D31746BAB24044B6
:104E6000314610F0B1FED5F814013844C5F81401EC
:104E7000102837D3BC4235D000202918401C11F827
:104E8000F12F0B7C5A400A701028F6DB49462A465F
:104E900008460FF025FC3E44E41B1AE00022A81847
:104EA000B35C10F8F11F521C59400170102AF6DB58
:104EB00010224946684610F087FE69462A46084691
:104EC0000FF00EFC10226946484610F07DFE103CA3
:104ED0001036102CE2D8A2B23146404610F074FED3
:104EE000C5F81441BDE8FF870149002008707047EC
:104EF0002C010020064A10B51378002B07D101239E
:104F0000137000F01DF8BDE8104000F003B810BDAC
:104F10002C010020094800214FF020628160C1600F
:104F20004162C162C0E90D214FF480624261C163F8
:104F3000012281618262C16102F034BED806002084
:104F40007CB50C460E4905460E4A0C4808601068B0
:104F500040F400701060106800F400700090084683
:104F600002F09AFD601C08D00022009213460192C4
:104F700003222146284602F0B9FB7CBD00240140F3
:104F8000D8060020203802402DE9FF4700250124E3
:104F900094FAA4F0324EB0FA80F000950195029593
:104FA00046F820402F4F2F4B3437022292FAA2F0BE
:104FB000B0FA80F040F02000400901D0186800E00D
:104FC000386892FAA2FCBCFA8CFC0CF01F0C04FAB4
:104FD0000CFC10EA0C0FE9D0224F2037386840F45F
:104FE000007038603868CDE9001400F40070039058
:104FF0000620029069461C4802F0AAFCDFF868808F
:10500000D8F80000816841F001018160404602F05B
:10501000E0FE4FF0FF31404602F088FE404602F0CD
:10502000BDFD1FFA80F9D8F80000816821F0010168
:1050300081600098102801D0112802D10A4802F09E
:105040002BFD386820F40070386094FAA4F0B0FAB0
:1050500080F046F8205004B04846BDE8F0870000D4
:105060000000474200380240D8060020034A127868
:105070000AB1FFF789BF0020704700002C01002013
:10508000002204E0835C33338354521CD2B28A4240
:10509000F8D370472DE9FF4107460020154C0E4616
:1050A000009015463046616807F04EFA18B10120AD
:1050B00004B0BDE8F081684600F022FD0028F7D07A
:1050C00032463946009801F05BFE009806F012FA6D
:1050D00040B9009845621A208DF8040001A805F037
:1050E000CFFF08B10020E3E7029860600CF08EFA71
:1050F000DDE70000540100202DE9FF4107460020B4
:10510000144C0E46009015463046616807F01CFAB4
:1051100018B1012004B0BDE8F081684600F0F0FC51
:105120000028F7D032463946009801F029FE009851
:1051300006F0E0F940B9009845621A208DF80400A5
:1051400001A805F09DFF08B10020E3E70298606028
:10515000DFE70000540100202DE9F047224E92467F
:10516000B046727A0446C2F18002D5B298F808209F
:1051700098F80980531CC8F180080120A4F1020CA2
:105180001A4F08F0FF08DBB2A8F10109BCF1090FC2
:1051900027D2DFE80CF0201D201D111D2020230048
:1051A00000200121F171BDE8F087BC5402E0BC543D
:1051B000F9545B1C3372F3E7AD1EAA42F3DABC5418
:1051C000F9545B1CD8B207F800A0401C3072E7E726
:1051D0004A45ECDBE7E7AA42E7D3E4E7AA42E6D395
:1051E000E1E70220DFE700006C000020320E002023
:1051F0002DE9F0410D46002190460446072D71D35C
:1052000020884B4A40BA0523A2F89201E8001038E2
:1052100090FBF3F603FB1600002861D102235DE04A
:10522000E05C02EBC106C00800EB80003071491C55
:10523000C8B2E15C4907CE0EE1184F7846EA9716EE
:1052400002EBC00706EB86063E71401CC0B24E78EA
:1052500002EBC007C6EB461626F000463E714E78BC
:105260008F78F607F60E401C46EA1716C0B202EB1E
:10527000C00706EB86063E718E78CF783607F60EAD
:10528000401C46EAD716C0B202EBC00706EB860602
:105290003E71401CC0B2CE7802EBC007C6F3840654
:1052A00006EB86063E71CE780F79B607F60E401CE7
:1052B00046EA5716C0B202EBC00706EB86063E71FF
:1052C000401CC0B2097902EBC00601F01F01401C6E
:1052D00001EB810131715B1DC1B2DBB2AB429FD3E7
:1052E000002007E021E04FF4E163434342F830300F
:1052F000401CC0B28842F6D382F891110D480DF0DF
:10530000CBFD0B490C4A01F54A700CF0AFFDB8F12A
:10531000000F04D02A46214601200CF0CFF907489F
:10532000C16FBDE8F04106A00847BDE8F08100006C
:10533000242600206029002039E0000840090020D0
:105340004164642070726F66696C65310D0A0000FB
:105350002DE9F047002592460F46064603293FD324
:10536000DFF880803178F843DFF87C90A8F892115C
:10537000C0071CD1012418E03019008840BAC0F3DE
:105380000A00C0EB0010810048F83510305DC008FD
:1053900000EB800208EBC5000271D9F87C3013A045
:1053A00098476D1CA41CEDB2E4B2BC42E4D388F86B
:1053B000915113480DF070FD0A49124A01F5D4705D
:1053C0000CF054FDBAF1000F04D03A4631460220E9
:1053D0000CF074F9D9F87C10BDE8F0470AA0084732
:1053E000BDE8F087B82700204009002054494D450A
:1053F0003A25642050574D3A25640D0A00000000FC
:105400004C29002095E000084164642070726F66AA
:10541000696C65320D0A000010B50B4CB0F1824F7B
:10542000E17E06DA01290ED064200CF08FFC012009
:1054300008E0064A904206DD002904D000200CF066
:1054400085FC0020E07610BD742A00200000F041A9
:1054500010B5040001D00AF009FC0148C47010BD69
:105460004C00002070B5164D0121164835F8784FD4
:10547000FFF7FCFD06462046FFF721F90446288881
:10548000FFF71DF91049FEF702FF2146FEF731FF35
:10549000FFF738F985B23046FFF711F90B49FEF7EF
:1054A00028FF04462846FFF70AF92146FEF7EFFEDB
:1054B000FFF728F980B24FF6FF7101EA400070BD96
:1054C0000000F81FBC08002000404E4500F07F455A
:1054D00010B586B01548FFF707FD15480CF0D8FE4B
:1054E0000AF0ECFD0024009423460322602102A868
:1054F000019402F0FBF8009400230322612102A82A
:10550000019402F0F3F8002300941A462E2102A819
:10551000019402F0EBF8002300941A462F2102A810
:10552000019402F0E3F806B010BD0000BC080020B2
:105530009C18002072B602484179491C417170479D
:105540003800002004494879401E10F0FF004871DF
:1055500000D162B6704700003800002010B500246A
:105560000121064802F0EAF9FFF77CFF0449C880F0
:105570000021024802F0E2F9204610BD3409002063
:1055800038000020104951F8502F4B691A44120E70
:10559000C2714B690A681A44120C82710A888B8A9C
:1055A0001A44120A42710A780B7D1A4402714A6841
:1055B000120EC2704A68120C82708A88120A4270F7
:1055C00009790170704700000000F81FF0B5334EF4
:1055D000002485B0F078002845D00DF09BF901211A
:1055E0002F48FFF787FC01272D48009700233A46F4
:1055F00019217830019702F079F829480121783093
:1056000002F09CF9B81E00901D231E221F21254880
:105610000CF0B8FE0AF096FD2349C82201F50F7080
:1056200001F088FB1E4D214884350A23A867092212
:10563000002128460DF0BCFE0094019400234FF495
:10564000E1320221284602940DF09EFE1848E867D8
:10565000C5F8800017A00EF031FBF078002800D1CB
:10566000F77005B0F0BD03F02FF90DF005F90AF061
:10567000B5FA0094002303222D2102A8019402F020
:1056800035F802F085FC02F073FC02F079FC044866
:10569000172216210C3005F06DF9A0E73800002024
:1056A000BC0800209C1800202C070020D9570108B6
:1056B000BD3C010853746172742072756E6E696E20
:1056C00067206170702E2E2E0D0A000010B50CF0B0
:1056D000E5FF08F03DFE01200CF05CFB09F066FFE1
:1056E000BDE8104008F004BDF0B5002315E003F15B
:1056F000010C0CF0FF0200EB83040AE050F8235089
:1057000050F82270BD4202DD276040F82250521C42
:10571000D2B28A42F2D30CF0FF038B42E7D3F0BD42
:105720002DE9F04788460646002518E005F10109F5
:1057300009F0FF0406EB85070DE056F8241056F833
:105740002500FFF78BF804D206EB8401384610F0F1
:10575000A1FC641CE4B24445EFD309F0FF054545C4
:10576000E4D3BDE8F087FEE73EB50F4CE1788DF855
:105770000010217D8DF802108DF80300606B0DF094
:10578000B9FA0190E06B0290E07D8DF80100694666
:10579000207C09F0C3FB218CE06B4143081AA16D0A
:1057A0000844A0653EBD00006C00002010B5104903
:1057B0000346CC18002094F8441094F843209142FA
:1057C00011D983B1891A00290CDD4EF660204143BE
:1057D000002010F081FB94F8441040F253725143C2
:1057E000C0EB411010BD08464EF66021484310BD85
:1057F000742A002030B50024234604E0C55C5B1CFD
:105800002C44E4B2DBB28B42F8D3A24201D1012096
:1058100030BD002030BD10B507F052FE022804D084
:10582000032801D0052000E00420BDE810400CF062
:105830005BBC000010486822112102704170817029
:10584000C170017141718171C2711621C172332120
:1058500001734A2242732B2282733722C27335228C
:10586000027441748174C174017541758175C1758B
:105870000249C16270470000CC290020B1350108FF
:1058800070B50024022A14D30023551E04E0CE5C18
:105890005B1C3444E4B2DBB2AB42F8DB114420447D
:1058A00011F8011CC0B2C943C9B2814201D1012023
:1058B00070BD002070BD000070B5114D0446007829
:1058C0002A78824217D1E279824214D16018EA7AAA
:1058D00010F8013C9A420ED110F8022C891EC9B270
:1058E0002046FFF787FF002806D00622691C601CAF
:1058F000FEF75FFC08B1002070BD012070BD000004
:10590000CC29002048290CD3818851B141894FF41A
:105910000042914205D08189914202D0C08B9042D1
:1059200001D10020704701207047000008B5042213
:105930006946194808F094FD18499DF800000A7856
:10594000904210D19DF801204B789A420BD19DF8DE
:1059500002208B789A4206D19DF80320C9788A42AA
:1059600001D1012008BD0D49091D0A78904210D1CE
:105970009DF801004A7890420BD19DF802008A7888
:10598000904206D19DF80300C978884201D10220D7
:1059900008BD002008BD00000409080860010020BF
:1059A0007FB503AA6946012008F046FE40B3BDF862
:1059B0000000812640BA40F400458DF80060280AB6
:1059C0008DF801008DF80250032168460BF0D4FFDA
:1059D000002403AA6946292008F02EFE18B9641C89
:1059E000E4B2032CF5D37F208DF8006000EA152087
:1059F0008DF801008DF80250032168460BF0BCFFC2
:105A000000F048FB03490020486103494860886072
:105A100048807FBD6C0600207001002070B5C0F387
:105A20000B06000BFEF761FE0FF056FD084A094B0E
:105A3000FEF744FD04460D463046FEF756FE22466C
:105A40002B46FEF73BFDBDE87040FEF7EBBE0000C5
:105A50007B14AE47E17A843F30B5002208E08B1A10
:105A60000344845C13F8015D8554521C1C70D2B24F
:105A7000B2EB510FF3D330BD2DE9FF5F0026924604
:105A8000B046354637460024019830F817100120FB
:105A9000A040014223D005EB040909EB49005AF864
:105AA0002010E1B10AEB800B9BF90800021140F3D2
:105AB0000301009840B209F019FC80B19BF809106D
:105AC000039800EB0110C06820B108F1010000F05C
:105AD000FF0804E00E9901F80690761CF6B2641CEB
:105AE000E4B2102CD0D310357F1CEDB2FFB2602D84
:105AF000C9D30F99304681F8008004B0BDE8F09F0B
:105B000010B504462C2010F029F82060002802D09F
:105B100000218162012010BD0022C0F8902B00F509
:105B20003960C0E901211046704700000F4910B5E7
:105B30000D480860084602F0A8F90D48002100222F
:105B40000160022141600146084802F07DF900220F
:105B500040F6FF731146054802F0D2F9BDE8104047
:105B60000021024802F0D9B900740040002A002048
:105B70008401002070B5044615460378A278581CAD
:105B8000B0FBF2F602FB16006278904201D00A2DBB
:105B900001D9002070BD03EB430202EBC300204497
:105BA0002A46C01CFEF7C2FA207800EB400101EB48
:105BB000C000204445732078A178401CC0B2B0FBDF
:105BC000F1F201FB12002070012070BD0022027072
:105BD00042708170704770B504460B460078A1781A
:105BE0001546B0FBF1F201FB12016078814201D150
:105BF000002070BD00EB400101EBC0000119184608
:105C00004A7BC91CFEF792FA607800EB400101EB79
:105C1000C0002044407B28706078A178401CC0B24E
:105C2000B0FBF1F201FB12006070012070BD08B5FD
:105C300001200022009040F20D1311464FF43B402A
:105C40000EF022FF08BD08B5012200920146902304
:105C500000224FF4C8700EF017FF08BD08B50122EE
:105C6000009201469723002240F297100EF00CFF9D
:105C700008BD08B520230091014600224FF4907022
:105C80000EF002FF08BD000038B50B460B4A00219C
:105C900012F811409C420BD102EB41014FF4AF735B
:105CA0004A7800210091014600200EF0EDFE38BD3B
:105CB000491CC9B26529EBD338BD0000A001002002
:105CC000704702F06DB970B515460B46044600F0FA
:105CD0003CF908B1002070BDD4F8900BB92101FB4C
:105CE0000041184691F8B8200FF06EFFD4F8900BE1
:105CF000B92100FB014090F8B8002870D4F8900B4F
:105D0000D4F8981B401C90FBF1F201FB1200C4F880
:105D1000900B012070BD0000F0B5A9B02E480DF029
:105D2000BBF82E4E0125B07960B301283AD02A483D
:105D30000024B47178380DF0AFF800200CF030F981
:105D40008DF800508DF80440684605F00FFA22489F
:105D500050380DF071F8224F0021084687F84B406B
:105D600087F84C4000F042F91E48C16F1EA08847DA
:105D7000387B3A7940F0800129480CF029F8757297
:105D800029B0F0BDB571274941F2883010F0A4F870
:105D9000014611480DF048F829B00F48BDE8F04021
:105DA0000DF04AB80220B07199208DF800008DF8EE
:105DB000015003208DF802008DF803508DF8045037
:105DC000684604F0A1FE4EF6602103480DF02CF861
:105DD00001480DF031F8D3E79C06002000000020B8
:105DE000742A002040090020456E74657220617598
:105DF000746F2064696D6D696E67206D6F646520D6
:105E0000616E6420776169742072656A6F696E20C3
:105E1000746865206E6574776F726B0D0A00000000
:105E20000C0A0808E09304003EB50F4801780F48BB
:105E30004278114217D00024447018208DF80000D9
:105E4000684605F01DF900B9019C09482346D0F8C1
:105E500080500848AC4602780748017803B007A094
:105E6000BDE8304060473EBD6D0200201C050020AB
:105E70004009002005000020040000202B4C554460
:105E800043543A25642C25642C25640D0A00000037
:105E900010B509F0EBFEBDE81040012002F0B8B9E2
:105EA00010B509F0E3FE4FF4806002F0B1F94FF451
:105EB000006002F0ADF94FF4805002F0A9F94FF400
:105EC000005002F0A5F94FF4804002F0A1F9BDE8BE
:105ED00010404FF4004002F09BB910B509F0C6FE27
:105EE000BDE81040022002F093B910B509F0BEFEE3
:105EF000BDE81040042002F08BB910B509F0B6FEE1
:105F0000BDE81040082002F083B910B509F0AEFEDC
:105F1000BDE81040102002F07BB910B509F0A6FED4
:105F2000202002F075F9402002F072F9802002F082
:105F30006FF94FF4807002F06BF9BDE810404FF438
:105F4000007002F065B900207047D0F8901BD0F8BF
:105F5000940B814201D1012070470020704700005E
:105F60001CB510B141F2C40001E04FF48650ADF809
:105F700004000220009001AB01228821014804F0B6
:105F8000A5FD1CBDC808002070B515460E46044688
:105F900000F030FF08B1002070BDB82D08D9B8213D
:105FA000D4F8940BB92200FB024080F8B81006E048
:105FB000D4F8940BB92100FB014080F8B850D4F814
:105FC000940BB92100FB0140314690F8B8200FF046
:105FD000FBFD04F6943003C8401C90FBF1F201FB7A
:105FE0001200C4F8940B012070BD00002DE9F041AF
:105FF000224E0C460125317B41F2707720B30128F7
:1060000003D0022838D1307326E0022901D100F0F4
:10601000C5F8357386F83D504CB196F844104EF6ED
:106020006020414338460FF057FF0CF041F8B07B39
:1060300000F07F0030710BF089FE11483179C26F9A
:10604000BDE8F0410FA01047022901D100F0A6F8E9
:1060500000203073FF20F07686F83D50002C0BD0E6
:1060600096F844104EF66020414338460FF034FF56
:10607000BDE8F0410CF01CB8BDE8F081742A0020A6
:106080004009002053657420647574793A25640DC5
:106090000A0000007CB50020094D094C00908035B5
:1060A000019001226946204608F0EEFA009818B1E6
:1060B0000121204600F036F8241DAC42F1D37CBD0E
:1060C000200A080870B5012501F0F4FF134C1248AE
:1060D000E060680260600020A060D4E9021000EB7C
:1060E0008101022001F068FF2070A068401CA060C0
:1060F00061688842F1D30A49E068884205D20268A3
:1061000002B10025001DE060F7E701F075FF0DB159
:10611000012070BD002070BD000008084001002073
:10612000FF0708082DE9F0410F460446012601F05B
:10613000C1FF0025DFF8408007E004EB8501022065
:1061400001F03AFF88F800006D1CBD42F5D3002035
:106150000A4906E0226802B100268C4200D2241DC2
:10616000401CB842F6D301F047FF16B10120BDE84C
:10617000F0810020FBE7000040010020FF0F08082D
:1061800040F2FF110148FFF7CDBF000000000808F2
:1061900001210148FFF7C6BF040A080810B50448EA
:1061A0000CF07AFE0248BDE8104014300CF074BECA
:1061B0004C29002070B504464CF250360D4630464E
:1061C00000F08EF9002824D11348016821F4807171
:1061D00001602DB125703046BDE8704000F080B9F7
:1061E00024F003052E68A007C10EFF2088408643D7
:1061F0002946022001F0E0FE084C002032462074BF
:106200002946102001F002FF217C012902D0012142
:10621000217470BD022070BD043C0240FC0B0020C4
:106220002DE9F04104464CF250370E46384600F056
:1062300057F9050034D11D48016821F480710160CF
:106240002EB12680384600F04BF9054628E0184E5E
:1062500000203074E043800713D024F003052F683A
:10626000A007C10E4FF6FF708840874329460220E1
:1062700001F0A2FE3A462946102001F0C7FE05466D
:1062800009E000222146042001F0C0FE0022611C2A
:10629000042001F0BBFE307C012804D001203074C2
:1062A0002846BDE8F0810220FBE70000043C0240E4
:1062B000FC0B002070B504464CF250360D463046BB
:1062C00000F00EF900281FD12DB125703046BDE831
:1062D000704000F005B924F003052E68A007C10E38
:1062E000FF20884086432946022001F065FE084CC5
:1062F0000020324620742946102001F087FE217CC0
:10630000012902D00121217470BD022070BD00005E
:10631000FC0B00202DE9F04104464CF250370E46AC
:10632000384600F0DDF805002FD12EB12680384622
:1063300000F0D6F8054628E0164E00203074E04301
:10634000800713D024F003052F68A007C10E4FF675
:10635000FF70884087432946022001F02DFE3A460F
:106360002946102001F052FE054609E00022214690
:10637000042001F04BFE0022611C042001F046FEC7
:10638000307C012804D0012030742846BDE8F0811B
:106390000220FBE7FC0B00202DE9F04704462448CF
:1063A0000027DFF890908AB090468A46844207D250
:1063B00021498C4204D9D9F87C1020A0884733E0C9
:1063C00025466E4601F0F0FE002003E004CD46F8BD
:1063D0002020401C4045F9D301F0BEFE4FEA880260
:1063E00069465046FDF7E5FEF0B1254654460126C4
:1063F00001F0DAFE04EB880810E02946022022684A
:1064000001F0B4FE28682168884205D0D9F87C10D4
:1064100012A08847002603E0241D2D1DA045ECD8BE
:1064200001F09AFE06B101270AB03846BDE8F087B0
:1064300000A801084009002000000308466C6173B1
:106440006820777269747220616464726573732066
:106450006D69736D617463682121210057726974DD
:106460006520666C617368206572726F720D0A0038
:10647000074900224A6107490B6843F400730B6027
:106480000B6843F008030B6020F0FF0002607047C8
:10649000FC0B0020043C02400F4A00201168CB0591
:1064A0000E4904D5486940F0020048619015136810
:1064B0009B0505D54B6943F001034B6140F4007027
:1064C00013681B0505D54B6943F004034B6140F489
:1064D0000060106070470000183C0240FC0B002078
:1064E00070B5044601F074FF0546114E09E0601CCA
:1064F00007D024B101F06CFF401BA04201D903205A
:1065000070BD3068C007F2D13068800701D5022025
:1065100030603068C00505D43068000502D43068AA
:10652000800503D5FFF7B8FF012070BD002070BDC6
:10653000183C024070B5194EAAB004292AD301783C
:10654000427801F00F04C178807841EA02454FF0AB
:106550007F4141EA00200543002229462046FEF7FC
:10656000CBFD002814D0F36F224629460CA0984793
:10657000CA208DF8000001208DF8010003218DF85C
:1065800002108DF803008DF80400684604F0BCFA90
:106590002AB070BDF16F0DA08847F9E740090020CF
:1065A000466F7461206164642067726F757020614A
:1065B0006464722025582D256420737563636573A8
:1065C0007366756C6C792E0D0A000000466F74615D
:1065D00020616464206D756C7469636173742066F6
:1065E00061696C65642121210D0A00000278052A89
:1065F00004D14078012801D1022903D00448C16F99
:1066000004A008470B49012048700B480BF05CBD03
:1066100040090020466F74612067657420766572BA
:1066200073696F6E206661696C65642121210D0AB2
:106630000000000070020020C0D401002DE9F04FDE
:106640000F460A4691B00646F149FDF7B2FD002813
:106650007ED03A463146EE48FDF768FDED4DEE4CF2
:10666000284600F1540A1C302A78A0F1200B0D9026
:1066700030784FF001094FF0000822B1022868D0AD
:10668000032867D04BE1012802D002287ED095E094
:10669000152FFCD1F07B317C000440EA0120717C95
:1066A00008436860B0F5AC3F7DD20822DB49701C1E
:1066B000FDF77FFD38B10820A870D9480BF004FD24
:1066C000D8A0E16F6DE0CBF82080ABF82480D6F83D
:1066D0000910CBF82010B6F80D10ABF824100622E4
:1066E0000EA9D84807F0BCFE06220EA90D98FDF7AA
:1066F00060FD00284ED0D4480CF0CEFBD3480CF0FF
:10670000CBFBC348D24980300CF0F6FA85F80090F4
:10671000708A4F4640BA2881307DA872C01E287505
:10672000DFF830934646CDF8408001F03DFD4FF450
:10673000AC700A96CDE90B9010A90AA801F0CEFC26
:1067400000B1109701F008FD8BF802606E8202E044
:106750001AE03EE0DEE02E824FF496715046FDF7DF
:10676000FEFCE16FBCA08847E26FC1A00D99904785
:10677000E26F6968C3A09047E26F2989C6A090477D
:10678000E26FA97AC8A0904711B001E013E00AE0D7
:10679000BDE8F08F0920A870A1480BF095FCE16FCF
:1067A000C5A08847F0E70720A8709D480BF08CFC37
:1067B000C9A0E16FF5E7A8780B2802D0CDA0E16F62
:1067C000EFE70620A87096480BF07EFCD0A0E16FA2
:1067D000E7E7A87AB8426DD18D48D54980300CF0F2
:1067E00023FB8B4880300CF027FB7178B07801F0E8
:1067F0007F0140EA0120A8818648302124300746E5
:10680000FDF7ADFC2A7DF11C3846FDF78FFCA98908
:106810002889814202D9C7A0E16FC2E77078E26F90
:10682000000601D4CAA000E0CEA09047287D6A46A9
:106830008308002009E007EB800191F803C0096894
:106840006CF31F6142F82010401C9842F3DBA889CA
:10685000297D804A401E00FB01208A086946A86104
:10686000FFF79AFD002852D0688A401C81B26982E5
:10687000E26FC1A090477078000627D44FF4967657
:10688000A989E889091A012918DD401CE881298AAB
:1068900005EB4101A1F85400288A401C81B22982ED
:1068A000B1420ED985F800800420A8705C480BF036
:1068B0000BFC00E033E0E16FB4A08847A889E881D1
:1068C00062E7E36FEA89BAA09847D9E7514BAC89F0
:1068D0005246002133F8105F07E032F81160A642FB
:1068E00001D108460BE0491C89B28D42F5D806E07B
:1068F00002EB4001498822F81010401C80B2198830
:10690000491E8142F4DC1888401E18803CE7B1A083
:10691000E16F46E77078012801D1032F02D0B1A0C2
:10692000E16F3EE73A4880300CF0B6FA9BF802007F
:106930005E46401CC1B28BF80210E26FB0A09047D7
:106940002989E88981421CD04FF496772989E88902
:10695000814213D0401CE881298A05EB4101A1F84E
:106960005400288A401C81B22982B9420DD985F889
:1069700000800420A870E16F84A088472878002850
:106980009ED0B078012805D012E0E36FEA8988A094
:106990009847DBE7698A2A8A11442A89914207D0FD
:1069A00085F800901E480BF08FFB99A0E16FF8E688
:1069B000698A2A89914209D185F8029006222148E4
:1069C0000D990DF073F89BA0E16F1BE0062804D32E
:1069D0000220A8709BA0E16F14E00320A870E26F72
:1069E000298A9CA09047002607E005EB4600E26F4D
:1069F000B0F854109FA09047761C288AB042F4DC6F
:106A0000E16F28A0884706480BF05EFBBCE600005B
:106A1000D83400207002002040090020200000200F
:106A2000C0D401004669726D776172652061707033
:106A3000657569206D69736D617463682121210D2D
:106A40000A000000100B0808240600209C06002005
:106A5000B1E6000800A801082D2D2D2D2D2D2D2D7E
:106A60002D2D2D2D2D2D2D2D2D2D0D0A000000004D
:106A70004669726D776172655665723A5625730D77
:106A80000A0000004669726D7761726553697A6524
:106A90003A25640D0A0000005061636B546F746105
:106AA0006C3A25640D0A00005061636B4C656E679B
:106AB00074683A25640D0A004669726D77617265E3
:106AC0002076657273696F6E206D69736D61746392
:106AD000682121210D0A00004669726D7761726597
:106AE0002073697A65206D69736D61746368212113
:106AF000210D0A005374617274204672616D652025
:106B00006D69736D617463682121210D0A000000B5
:106B10004E6F207374617274206672616D652072AD
:106B2000656365697665642121210D0A0000000016
:106B3000C02709004672616D65206E756D626572D1
:106B4000206D69736D617463682121210D0A000055
:106B50004E6F726D616C207061636B65743A256471
:106B60000D0A000052656973737565207061636B6F
:106B700065743A25640D0A00577269746550616343
:106B80006B53756D3A25640D0A0000005061636B0C
:106B90006574206C6F737320746F6F206D756368FC
:106BA000206578697420464F54412121210D0A0047
:106BB0004C6F7373205061636B546F74616C3A2532
:106BC00064204375724C6F73734E756D3A25640D76
:106BD0000A0000005468652073616D65206461746B
:106BE000610D0A005061636B6574204672616D65CA
:106BF000206D69736D617463682121210D0A0000A5
:106C0000466F746120656E643A25640D0A000000C9
:106C10005061636B6574206C6F737320737461745F
:106C2000697374696373206572726F722121210D1B
:106C30000A000000464F54412053554343455353E7
:106C40000D0A0000464F5441204641494C45440D31
:106C50000A0000004C6F7373207061636B20746FC7
:106C600074616C206E756D6265723A2564206C6982
:106C700073743A002564200010B5104A0378D26F6F
:106C8000072B04D14078012801D1022901D00CA0A2
:106C900008E014488178012907D0002101700B21F8
:106CA000817011A0BDE81040104718A090471F49FF
:106CB0001F480BF09DF805F067FC0000400900201C
:106CC000466F74612073797374656D20626F6F74A1
:106CD0006C6F61646572206661696C656421212155
:106CE0000D0A000070020020466F74612066616921
:106CF0006C65642077616974206E657874207570A6
:106D0000677261642121210D0A000000466F7461E1
:106D100020737563636573732073797374656D2075
:106D200072657365740D0A0D0A00000031754286A4
:106D3000003F0008002303804380416002817047C8
:106D40000089491CB1FBF0F200FB121080B27047C1
:106D500070B504460188FFF7F3FF61680D5C218878
:106D60002046FFF7EDFF2080284670BD70B50D4628
:106D700004464188FFF7E4FF608061680D5470BDF0
:106D800070B5040015D00C4801EBC10100EB810582
:106D9000226005F11401102204F114000EF014FF1A
:106DA000291D1022201D0EF00FFF0020606201201F
:106DB00070BD002070BD00000C6601083EB50C4D92
:106DC00004466868002807D01A208DF8000068463D
:106DD00004F056F908B100203EBD0198686000E05B
:106DE000806A0028F8D00168A142F9D13EBD0000B8
:106DF0005401002000F69431D0F8900B06C9491CCC
:106E000091FBF2F302FB1311814201D10120704783
:106E100000207047002070472DE9F04F9BB00025FF
:106E2000482105A807F03CFB482105A8FEF76AFDAC
:106E3000DFF87C914FF0030A30B3002405AE17AFA2
:106E400004F180008DF85C00072C15D0082C13D0BD
:106E50007119781C02220EF0B7FE781C0221FEF791
:106E6000FBFD0321AD1CEDB217A80AF085FD641CE3
:106E7000E4B2172CE4D90BE07119781C01220EF052
:106E8000A3FE02216D1CEEE7D9F87C1049A08847CB
:106E900081208DF85C004FF000088DF85D808DF842
:106EA0005EA0032117A80AF067FD9DF85000DDF8E9
:106EB000511040EA0120FDF707FC474D00222B4608
:106EC000FDF76EFB454C00222346FDF769FBFDF7FD
:106ED000A9FC07469DF85400DDF8551040EA012052
:106EE000FDF7F2FB00222B46FDF75AFB002223465A
:106EF000FDF756FBFDF796FC06469DF85800DDF8B9
:106F0000591040EA0120FDF7DFFB0022344BFDF76A
:106F100047FBFDF787FCBDF84A40DFF8C8A00546EF
:106F200017F0FF4F4FF47A7B10D016F0FF4F0DD0C3
:106F300015F0FF4F0AD04CB1D9F87C102AA0884731
:106F40005C4512D0B4F5166F0FD011E0304F314EC2
:106F500031483249FDF766FC0546D9F87C105C469D
:106F60002FA088478AF8008002E001208AF80000FC
:106F70003A4928464D62C1E906670C85FDF70EFCCB
:106F800005468A463046FDF709FC064688463846DF
:106F9000FDF704FC0096CDE903A4CDE90185024686
:106FA000D9F87C400B462EA0A0471BB0BDE8F08F5F
:106FB00040090020577269746520726567697374AF
:106FC0006572206661696C65642066726F6D20660B
:106FD0006C6173680D0A00000000604100408F4042
:106FE0000000E0417001002043656C6962726174C9
:106FF000696F6E206461746120696E20666C6173D4
:10700000682069732076616C69640D0A00000000D5
:107010004FCD7836A76D433921DD7DBDD98EE73E52
:1070200043656C6962726174696F6E20646174613A
:1070300020696E20666C61736820697320696E76C2
:10704000616C69642E205573652064656661756C9A
:10705000742076616C75652E0D0A0000CC29002025
:107060006B69613A25662C206B753A25662C206B7E
:1070700070703A25662C2065633A25640D0A00007D
:1070800010B508F0A7FD0C4B0C4A4FF47A74596800
:10709000814201D8411A01E0C9430144186800EB5C
:1070A0004003C3EBC01001EBC000B0FBF4F0B0FB39
:1070B000F2F102FB110010BD6801002080510100B7
:1070C000F8B516460D4600240422694607F0C8F9B3
:1070D0009DF8000088280AD19DF80100662806D195
:1070E0009DF8020028709DF80300307001242046AE
:1070F000F8BD0000074A20B1012805D0FE20087025
:1071000070470020527801E09278802040EA4200E7
:10711000C0B2F4E7D82A0020FEB50E4E04460D4654
:10712000706800280FD01A208DF80000684603F020
:10713000A7FF60B9019A726007E01068A04203D10E
:10714000506A28600120FEBD926A002AF5D1002015
:10715000FEBD000054010020094A002152F83130E0
:10716000834208D802EBC1039B68834203D902EB38
:10717000C10000797047491CC9B21529EED3FEE75A
:107180005C6201083EB50446084A0021684602EBED
:1071900081031B6A40F82130491CC9B20329F6D388
:1071A0000321FEF7BDFA019820603EBD742A00203D
:1071B00000B59BB019A9684607F0E6F91BB000BD01
:1071C00008B5FEF7B3FB002806D001226946034844
:1071D00007F046F99DF8000008BD00000C090808FA
:1071E0002DE9F04F0446002093B0DFF8ECA2DFF861
:1071F000EC920D900E900746064605460DF1340BB5
:107200000F9010AA08A9222007F016FA70B19DF875
:1072100020009DF82110000440EA01209DF8221072
:1072200008437F1C4BF82500FFB229E0761CF6B21C
:10723000022E25D3DAF810100026A9A0CAF81410DF
:107240000EF02EFF08F0B2F910AA08A9222007F0CC
:10725000F3F9A8B19DF820009DF82110000440EA40
:1072600001209DF822100843FDF729FAD9F81C10D7
:10727000FDF70DF8A249FDF70AF8FDF743FA208063
:107280006D1CEDB2032DBCD3022F11D303210DA829
:10729000FEF72AFA0E981290FDF711FAD9F81C1091
:1072A000FCF7F5FF9649FCF7F2FFFDF72BFA20807B
:1072B00000200D900E90074605465E460F9010AADE
:1072C00008A9242007F0B8F968B19DF820009DF8BE
:1072D0002110000440EA01209DF8221008437F1C81
:1072E00046F82500FFB26D1CEDB2032DE7D3022F47
:1072F0000CD303210DA8FEF7F7F90E981190FDF7B6
:10730000DEF9D9F81810FCF7C2FF60604FF0000BEF
:10731000CDF834B0CDF838B05F465D46CDF83CB01E
:1073200010AA08A9262007F087F950B108989DF8FF
:10733000231000BA20F0FF0008437F1C46F8250008
:10734000FFB26D1CEDB2032DEAD3022F12D303213D
:107350000DA8FEF7C9F9DDF838805FEA080001D50D
:10736000C8F100084046FDF7A1F9D9F82410FCF750
:107370008EFFA0600027CDF834B0CDF838B03D4680
:10738000CDF83CB010AA08A9292007F055F968B13A
:107390009DF820009DF82110000440EA01209DF88E
:1073A000221008437F1C46F82500FFB26D1CEDB289
:1073B000032DE7D3022F2FD303210DA8FEF794F955
:1073C000504A0E989168884202D25088401C5080E2
:1073D0000E9890605188C1EB01610D185560B9F8A5
:1073E0002800FDF782F906460F462846FDF77DF98D
:1073F00032463B46FDF7D4F805460E46DAF814004F
:10740000FDF7CCF92A463346FCF7B1FFFDF70AFA3F
:10741000206120460AF07AF920880090002857D091
:10742000606810F0FF4F53D0FDF7B8F905460E46DF
:107430000098FDF75AF90022334BFDF7B1F82A46C0
:107440003346FDF73BF806460D46A068FDF7A6F962
:1074500032462B46FDF7A4F8FDF7E4F94FF07E51D4
:10746000E060884200DDE1602069FDF797F906469B
:107470008A46E068FDF792F983460191A068FDF71E
:107480008DF9054689466068FDF788F904460F4680
:107490000098FDF72AF900221B4BFDF781F8CDE992
:1074A000066A0B460199CDE90047184CCDE904B1B5
:1074B000CDE902590246E16F15A08847DDE91121A7
:1074C000E46F43461BA0A04713B00120BDE8F08F36
:1074D000C4F80CB0C8E700006C060020CC290020DE
:1074E00052656164206661696C656420616E642028
:1074F000726573657420526E38323078210D0A003F
:1075000000007A447001002000408F4040090020B4
:107510002A2A2A493A256620563A256620503A25D5
:10752000662050463A2566206B57683A25660D0A54
:10753000000000002A2A2A497265673A2558205619
:107540007265673A255820507265673A25580D0ACA
:107550000000000010B5044606F0C0FFFDF7C5F8B6
:107560000022034BFDF71CF8FDF75CF9606110BDCC
:1075700000408F403EB51FA12048FCF727FE204861
:10758000007818B1012803D0022803D01DA102E021
:107590001EA100E01FA16846FCF718FE17480A224A
:1075A0001EA10F30FCF7F2FD144901F11900FCF7A0
:1075B000E1FD1248FCF7F6FD104C13A10F342044F6
:1075C0000A30FCF7D7FD0D48FCF7ECFD2044694676
:1075D0000B30FCF7CFFD0948FCF7E4FD0444684696
:1075E000FCF7E0FD20440DA10B300A31FCF7EEFD65
:1075F0003EBD0000434E343730000000003500200F
:107600007E010020307E31305F00000050574D5F1A
:107610000000000044414C495F000000454D4C4CC7
:10762000435F4231305F56312E362E30000000006D
:107630003EB502AA01A91848FFF742FD174C184DA4
:10764000F0B19DF80410012009B98DF804009DF8EF
:10765000081009B98DF808009DF8080000F00F0126
:1076600004F8441F020962709DF8040000F00F0343
:10767000A3700009E0700090EC6F0AA0A0473EBD27
:10768000022004F8440F032060700520A070E07011
:10769000E96F0EA088473EBD040A0808742A00203E
:1076A0004009002055736520466C6173682054784A
:1076B000204379636C652054696D653A25642C25F7
:1076C000642C25642C25640D0A0000005573652088
:1076D00064656661756C74205478204379636C65C9
:1076E0002054696D650D0A00006870477CB5062658
:1076F000DDE90654B6EB211F03D3CDE9005400F0B9
:1077000001F87CBDF0B587B01546DDE90C260446CE
